{
  "_format": "hh-sol-artifact-1",
  "contractName": "FP_Vault",
  "sourceName": "contracts/iebs_Faillapop_vault.sol",
  "abi": [
    {
      "inputs": [
        {
          "internalType": "address",
          "name": "token",
          "type": "address"
        },
        {
          "internalType": "address",
          "name": "shop",
          "type": "address"
        },
        {
          "internalType": "address",
          "name": "dao",
          "type": "address"
        }
      ],
      "stateMutability": "nonpayable",
      "type": "constructor"
    },
    {
      "inputs": [],
      "name": "AccessControlBadConfirmation",
      "type": "error"
    },
    {
      "inputs": [
        {
          "internalType": "address",
          "name": "account",
          "type": "address"
        },
        {
          "internalType": "bytes32",
          "name": "neededRole",
          "type": "bytes32"
        }
      ],
      "name": "AccessControlUnauthorizedAccount",
      "type": "error"
    },
    {
      "anonymous": false,
      "inputs": [
        {
          "indexed": false,
          "internalType": "address",
          "name": "user",
          "type": "address"
        },
        {
          "indexed": false,
          "internalType": "uint256",
          "name": "amount",
          "type": "uint256"
        }
      ],
      "name": "Locked",
      "type": "event"
    },
    {
      "anonymous": false,
      "inputs": [
        {
          "indexed": false,
          "internalType": "address",
          "name": "shop",
          "type": "address"
        },
        {
          "indexed": false,
          "internalType": "address",
          "name": "dao",
          "type": "address"
        },
        {
          "indexed": false,
          "internalType": "address",
          "name": "nft",
          "type": "address"
        }
      ],
      "name": "NewConfig",
      "type": "event"
    },
    {
      "anonymous": false,
      "inputs": [
        {
          "indexed": false,
          "internalType": "address",
          "name": "user",
          "type": "address"
        },
        {
          "indexed": false,
          "internalType": "uint256",
          "name": "amount",
          "type": "uint256"
        }
      ],
      "name": "RewardsClaimed",
      "type": "event"
    },
    {
      "anonymous": false,
      "inputs": [
        {
          "indexed": true,
          "internalType": "bytes32",
          "name": "role",
          "type": "bytes32"
        },
        {
          "indexed": true,
          "internalType": "bytes32",
          "name": "previousAdminRole",
          "type": "bytes32"
        },
        {
          "indexed": true,
          "internalType": "bytes32",
          "name": "newAdminRole",
          "type": "bytes32"
        }
      ],
      "name": "RoleAdminChanged",
      "type": "event"
    },
    {
      "anonymous": false,
      "inputs": [
        {
          "indexed": true,
          "internalType": "bytes32",
          "name": "role",
          "type": "bytes32"
        },
        {
          "indexed": true,
          "internalType": "address",
          "name": "account",
          "type": "address"
        },
        {
          "indexed": true,
          "internalType": "address",
          "name": "sender",
          "type": "address"
        }
      ],
      "name": "RoleGranted",
      "type": "event"
    },
    {
      "anonymous": false,
      "inputs": [
        {
          "indexed": true,
          "internalType": "bytes32",
          "name": "role",
          "type": "bytes32"
        },
        {
          "indexed": true,
          "internalType": "address",
          "name": "account",
          "type": "address"
        },
        {
          "indexed": true,
          "internalType": "address",
          "name": "sender",
          "type": "address"
        }
      ],
      "name": "RoleRevoked",
      "type": "event"
    },
    {
      "anonymous": false,
      "inputs": [
        {
          "indexed": false,
          "internalType": "address",
          "name": "user",
          "type": "address"
        },
        {
          "indexed": false,
          "internalType": "uint256",
          "name": "amount",
          "type": "uint256"
        }
      ],
      "name": "Slashed",
      "type": "event"
    },
    {
      "anonymous": false,
      "inputs": [
        {
          "indexed": false,
          "internalType": "address",
          "name": "user",
          "type": "address"
        },
        {
          "indexed": false,
          "internalType": "uint256",
          "name": "amount",
          "type": "uint256"
        }
      ],
      "name": "Stake",
      "type": "event"
    },
    {
      "anonymous": false,
      "inputs": [
        {
          "indexed": false,
          "internalType": "address",
          "name": "user",
          "type": "address"
        },
        {
          "indexed": false,
          "internalType": "uint256",
          "name": "amount",
          "type": "uint256"
        }
      ],
      "name": "Unlocked",
      "type": "event"
    },
    {
      "anonymous": false,
      "inputs": [
        {
          "indexed": false,
          "internalType": "address",
          "name": "user",
          "type": "address"
        },
        {
          "indexed": false,
          "internalType": "uint256",
          "name": "amount",
          "type": "uint256"
        }
      ],
      "name": "Unstake",
      "type": "event"
    },
    {
      "inputs": [],
      "name": "DEFAULT_ADMIN_ROLE",
      "outputs": [
        {
          "internalType": "bytes32",
          "name": "",
          "type": "bytes32"
        }
      ],
      "stateMutability": "view",
      "type": "function"
    },
    {
      "inputs": [
        {
          "internalType": "address",
          "name": "",
          "type": "address"
        }
      ],
      "name": "balance",
      "outputs": [
        {
          "internalType": "uint256",
          "name": "",
          "type": "uint256"
        }
      ],
      "stateMutability": "view",
      "type": "function"
    },
    {
      "inputs": [],
      "name": "claimRewards",
      "outputs": [],
      "stateMutability": "nonpayable",
      "type": "function"
    },
    {
      "inputs": [],
      "name": "daoContract",
      "outputs": [
        {
          "internalType": "contract IFP_DAO",
          "name": "",
          "type": "address"
        }
      ],
      "stateMutability": "view",
      "type": "function"
    },
    {
      "inputs": [
        {
          "internalType": "address",
          "name": "user",
          "type": "address"
        },
        {
          "internalType": "uint256",
          "name": "amount",
          "type": "uint256"
        }
      ],
      "name": "doLock",
      "outputs": [],
      "stateMutability": "nonpayable",
      "type": "function"
    },
    {
      "inputs": [
        {
          "internalType": "address",
          "name": "badUser",
          "type": "address"
        }
      ],
      "name": "doSlash",
      "outputs": [],
      "stateMutability": "nonpayable",
      "type": "function"
    },
    {
      "inputs": [],
      "name": "doStake",
      "outputs": [],
      "stateMutability": "payable",
      "type": "function"
    },
    {
      "inputs": [
        {
          "internalType": "address",
          "name": "user",
          "type": "address"
        },
        {
          "internalType": "uint256",
          "name": "amount",
          "type": "uint256"
        }
      ],
      "name": "doUnlock",
      "outputs": [],
      "stateMutability": "nonpayable",
      "type": "function"
    },
    {
      "inputs": [
        {
          "internalType": "uint256",
          "name": "amount",
          "type": "uint256"
        }
      ],
      "name": "doUnstake",
      "outputs": [],
      "stateMutability": "nonpayable",
      "type": "function"
    },
    {
      "inputs": [
        {
          "internalType": "bytes32",
          "name": "role",
          "type": "bytes32"
        }
      ],
      "name": "getRoleAdmin",
      "outputs": [
        {
          "internalType": "bytes32",
          "name": "",
          "type": "bytes32"
        }
      ],
      "stateMutability": "view",
      "type": "function"
    },
    {
      "inputs": [
        {
          "internalType": "bytes32",
          "name": "role",
          "type": "bytes32"
        },
        {
          "internalType": "address",
          "name": "account",
          "type": "address"
        }
      ],
      "name": "grantRole",
      "outputs": [],
      "stateMutability": "nonpayable",
      "type": "function"
    },
    {
      "inputs": [
        {
          "internalType": "bytes32",
          "name": "role",
          "type": "bytes32"
        },
        {
          "internalType": "address",
          "name": "account",
          "type": "address"
        }
      ],
      "name": "hasRole",
      "outputs": [
        {
          "internalType": "bool",
          "name": "",
          "type": "bool"
        }
      ],
      "stateMutability": "view",
      "type": "function"
    },
    {
      "inputs": [
        {
          "internalType": "address",
          "name": "",
          "type": "address"
        }
      ],
      "name": "lockedFunds",
      "outputs": [
        {
          "internalType": "uint256",
          "name": "",
          "type": "uint256"
        }
      ],
      "stateMutability": "view",
      "type": "function"
    },
    {
      "inputs": [],
      "name": "max_claimable_amount",
      "outputs": [
        {
          "internalType": "uint256",
          "name": "",
          "type": "uint256"
        }
      ],
      "stateMutability": "view",
      "type": "function"
    },
    {
      "inputs": [],
      "name": "nftContract",
      "outputs": [
        {
          "internalType": "address",
          "name": "",
          "type": "address"
        }
      ],
      "stateMutability": "view",
      "type": "function"
    },
    {
      "inputs": [
        {
          "internalType": "bytes32",
          "name": "role",
          "type": "bytes32"
        },
        {
          "internalType": "address",
          "name": "callerConfirmation",
          "type": "address"
        }
      ],
      "name": "renounceRole",
      "outputs": [],
      "stateMutability": "nonpayable",
      "type": "function"
    },
    {
      "inputs": [
        {
          "internalType": "bytes32",
          "name": "role",
          "type": "bytes32"
        },
        {
          "internalType": "address",
          "name": "account",
          "type": "address"
        }
      ],
      "name": "revokeRole",
      "outputs": [],
      "stateMutability": "nonpayable",
      "type": "function"
    },
    {
      "inputs": [
        {
          "internalType": "address",
          "name": "",
          "type": "address"
        }
      ],
      "name": "rewardsClaimed",
      "outputs": [
        {
          "internalType": "uint256",
          "name": "",
          "type": "uint256"
        }
      ],
      "stateMutability": "view",
      "type": "function"
    },
    {
      "inputs": [],
      "name": "shopContract",
      "outputs": [
        {
          "internalType": "contract IFP_Shop",
          "name": "",
          "type": "address"
        }
      ],
      "stateMutability": "view",
      "type": "function"
    },
    {
      "inputs": [
        {
          "internalType": "bytes4",
          "name": "interfaceId",
          "type": "bytes4"
        }
      ],
      "name": "supportsInterface",
      "outputs": [
        {
          "internalType": "bool",
          "name": "",
          "type": "bool"
        }
      ],
      "stateMutability": "view",
      "type": "function"
    },
    {
      "inputs": [],
      "name": "totalSlashed",
      "outputs": [
        {
          "internalType": "uint256",
          "name": "",
          "type": "uint256"
        }
      ],
      "stateMutability": "view",
      "type": "function"
    },
    {
      "inputs": [
        {
          "internalType": "address",
          "name": "newDao",
          "type": "address"
        },
        {
          "internalType": "address",
          "name": "newShop",
          "type": "address"
        },
        {
          "internalType": "address",
          "name": "newNft",
          "type": "address"
        }
      ],
      "name": "updateConfig",
      "outputs": [],
      "stateMutability": "nonpayable",
      "type": "function"
    },
    {
      "inputs": [
        {
          "internalType": "address",
          "name": "user",
          "type": "address"
        }
      ],
      "name": "userBalance",
      "outputs": [
        {
          "internalType": "uint256",
          "name": "",
          "type": "uint256"
        }
      ],
      "stateMutability": "view",
      "type": "function"
    },
    {
      "inputs": [
        {
          "internalType": "address",
          "name": "user",
          "type": "address"
        }
      ],
      "name": "userLockedBalance",
      "outputs": [
        {
          "internalType": "uint256",
          "name": "",
          "type": "uint256"
        }
      ],
      "stateMutability": "view",
      "type": "function"
    },
    {
      "inputs": [],
      "name": "vaultBalance",
      "outputs": [
        {
          "internalType": "uint256",
          "name": "",
          "type": "uint256"
        }
      ],
      "stateMutability": "view",
      "type": "function"
    }
  ],
  "bytecode": "0x60806040523480156200001157600080fd5b50604051620027e5380380620027e583398181016040528101906200003791906200037b565b620000697fa49807205ce4d355092ef5a8a18f56e8913cf4a201fbe287825b095693c21775336200019c60201b60201c565b506200009c7f3b5d4cc60d3ec3516ee8ae083bd60934f6eb2a6c54b1229985c41bfb092b2603826200019c60201b60201c565b50620000cf7f1f0426c2589e5c3ea5f5996e2a4371ca21edd86514b6679c9dd135d7c85b28bf836200019c60201b60201c565b5082600360006101000a81548173ffffffffffffffffffffffffffffffffffffffff021916908373ffffffffffffffffffffffffffffffffffffffff16021790555081600460006101000a81548173ffffffffffffffffffffffffffffffffffffffff021916908373ffffffffffffffffffffffffffffffffffffffff16021790555080600560006101000a81548173ffffffffffffffffffffffffffffffffffffffff021916908373ffffffffffffffffffffffffffffffffffffffff160217905550505050620003d7565b6000620001b083836200029f60201b60201c565b6200029457600160008085815260200190815260200160002060000160008473ffffffffffffffffffffffffffffffffffffffff1673ffffffffffffffffffffffffffffffffffffffff16815260200190815260200160002060006101000a81548160ff021916908315150217905550620002306200030960201b60201c565b73ffffffffffffffffffffffffffffffffffffffff168273ffffffffffffffffffffffffffffffffffffffff16847f2f8788117e7eff1d82e926ec794901d17c78024a50270940304540a733656f0d60405160405180910390a46001905062000299565b600090505b92915050565b600080600084815260200190815260200160002060000160008373ffffffffffffffffffffffffffffffffffffffff1673ffffffffffffffffffffffffffffffffffffffff16815260200190815260200160002060009054906101000a900460ff16905092915050565b600033905090565b600080fd5b600073ffffffffffffffffffffffffffffffffffffffff82169050919050565b6000620003438262000316565b9050919050565b620003558162000336565b81146200036157600080fd5b50565b60008151905062000375816200034a565b92915050565b60008060006060848603121562000397576200039662000311565b5b6000620003a78682870162000364565b9350506020620003ba8682870162000364565b9250506040620003cd8682870162000364565b9150509250925092565b6123fe80620003e76000396000f3fe6080604052600436106101665760003560e01c80634a7ffcbc116100d1578063a201bbdd1161008a578063d3f730fd11610064578063d3f730fd1461051b578063d547741f14610558578063d56d229d14610581578063e3d670d7146105ac57610166565b8063a201bbdd14610488578063a217fddf146104b3578063b86247d7146104de57610166565b80634a7ffcbc146103855780634efa7e70146103b057806374cb9ed8146103ba5780638b0e458d146103e35780638cf2b63e1461040e57806391d148541461044b57610166565b80631e89e058116101235780631e89e0581461028d578063248a9ca3146102b65780632f2ff15d146102f357806336568abe1461031c578063372500ab146103455780634697fbfa1461035c57610166565b80630103c92b1461016b57806301ffc9a7146101a8578063076622e2146101e557806309090a511461020e5780630bf6cc081461023957806311c9a94d14610264575b600080fd5b34801561017757600080fd5b50610192600480360381019061018d9190611a89565b6105e9565b60405161019f9190611acf565b60405180910390f35b3480156101b457600080fd5b506101cf60048036038101906101ca9190611b42565b610632565b6040516101dc9190611b8a565b60405180910390f35b3480156101f157600080fd5b5061020c60048036038101906102079190611bd1565b6106ac565b005b34801561021a57600080fd5b5061022361082f565b6040516102309190611c70565b60405180910390f35b34801561024557600080fd5b5061024e610855565b60405161025b9190611acf565b60405180910390f35b34801561027057600080fd5b5061028b60048036038101906102869190611c8b565b61085d565b005b34801561029957600080fd5b506102b460048036038101906102af9190611bd1565b61098b565b005b3480156102c257600080fd5b506102dd60048036038101906102d89190611d14565b610bd7565b6040516102ea9190611d50565b60405180910390f35b3480156102ff57600080fd5b5061031a60048036038101906103159190611d6b565b610bf6565b005b34801561032857600080fd5b50610343600480360381019061033e9190611d6b565b610c18565b005b34801561035157600080fd5b5061035a610c93565b005b34801561036857600080fd5b50610383600480360381019061037e9190611dab565b610faf565b005b34801561039157600080fd5b5061039a61127c565b6040516103a79190611df9565b60405180910390f35b6103b86112a2565b005b3480156103c657600080fd5b506103e160048036038101906103dc9190611a89565b611376565b005b3480156103ef57600080fd5b506103f86114b5565b6040516104059190611acf565b60405180910390f35b34801561041a57600080fd5b5061043560048036038101906104309190611a89565b6114bb565b6040516104429190611acf565b60405180910390f35b34801561045757600080fd5b50610472600480360381019061046d9190611d6b565b611504565b60405161047f9190611b8a565b60405180910390f35b34801561049457600080fd5b5061049d61156e565b6040516104aa9190611acf565b60405180910390f35b3480156104bf57600080fd5b506104c8611574565b6040516104d59190611d50565b60405180910390f35b3480156104ea57600080fd5b5061050560048036038101906105009190611a89565b61157b565b6040516105129190611acf565b60405180910390f35b34801561052757600080fd5b50610542600480360381019061053d9190611a89565b611593565b60405161054f9190611acf565b60405180910390f35b34801561056457600080fd5b5061057f600480360381019061057a9190611d6b565b6115ab565b005b34801561058d57600080fd5b506105966115cd565b6040516105a39190611e23565b60405180910390f35b3480156105b857600080fd5b506105d360048036038101906105ce9190611a89565b6115f3565b6040516105e09190611acf565b60405180910390f35b6000600160008373ffffffffffffffffffffffffffffffffffffffff1673ffffffffffffffffffffffffffffffffffffffff168152602001908152602001600020549050919050565b60007f7965db0b000000000000000000000000000000000000000000000000000000007bffffffffffffffffffffffffffffffffffffffffffffffffffffffff1916827bffffffffffffffffffffffffffffffffffffffffffffffffffffffff191614806106a557506106a48261160b565b5b9050919050565b7f1f0426c2589e5c3ea5f5996e2a4371ca21edd86514b6679c9dd135d7c85b28bf6106d681611675565b60008211610719576040517f08c379a000000000000000000000000000000000000000000000000000000000815260040161071090611e9b565b60405180910390fd5b600260008473ffffffffffffffffffffffffffffffffffffffff1673ffffffffffffffffffffffffffffffffffffffff1681526020019081526020016000205482111561079b576040517f08c379a000000000000000000000000000000000000000000000000000000000815260040161079290611f07565b60405180910390fd5b81600260008573ffffffffffffffffffffffffffffffffffffffff1673ffffffffffffffffffffffffffffffffffffffff16815260200190815260200160002060008282546107ea9190611f56565b925050819055507f0f0bc5b519ddefdd8e5f9e6423433aa2b869738de2ae34d58ebc796fc749fa0d8383604051610822929190611f8a565b60405180910390a1505050565b600460009054906101000a900473ffffffffffffffffffffffffffffffffffffffff1681565b600047905090565b7fa49807205ce4d355092ef5a8a18f56e8913cf4a201fbe287825b095693c2177561088781611675565b83600560006101000a81548173ffffffffffffffffffffffffffffffffffffffff021916908373ffffffffffffffffffffffffffffffffffffffff16021790555082600460006101000a81548173ffffffffffffffffffffffffffffffffffffffff021916908373ffffffffffffffffffffffffffffffffffffffff16021790555081600360006101000a81548173ffffffffffffffffffffffffffffffffffffffff021916908373ffffffffffffffffffffffffffffffffffffffff1602179055507fb932d837ab7f56a484a07ab64a666e9208940b3d35de9c0aff3cd0192f5d067684848460405161097d93929190611fb3565b60405180910390a150505050565b7f1f0426c2589e5c3ea5f5996e2a4371ca21edd86514b6679c9dd135d7c85b28bf6109b581611675565b82826000600160008473ffffffffffffffffffffffffffffffffffffffff1673ffffffffffffffffffffffffffffffffffffffff1681526020019081526020016000205411610a39576040517f08c379a0000000000000000000000000000000000000000000000000000000008152600401610a3090612036565b60405180910390fd5b600081600260008573ffffffffffffffffffffffffffffffffffffffff1673ffffffffffffffffffffffffffffffffffffffff16815260200190815260200160002054600160008673ffffffffffffffffffffffffffffffffffffffff1673ffffffffffffffffffffffffffffffffffffffff16815260200190815260200160002054030311610afe576040517f08c379a0000000000000000000000000000000000000000000000000000000008152600401610af5906120a2565b60405180910390fd5b60008411610b41576040517f08c379a0000000000000000000000000000000000000000000000000000000008152600401610b3890611e9b565b60405180910390fd5b83600260008773ffffffffffffffffffffffffffffffffffffffff1673ffffffffffffffffffffffffffffffffffffffff1681526020019081526020016000206000828254610b9091906120c2565b925050819055507f9f1ec8c880f76798e7b793325d625e9b60e4082a553c98f42b6cda368dd600088585604051610bc8929190611f8a565b60405180910390a15050505050565b6000806000838152602001908152602001600020600101549050919050565b610bff82610bd7565b610c0881611675565b610c128383611689565b50505050565b610c2061177a565b73ffffffffffffffffffffffffffffffffffffffff168173ffffffffffffffffffffffffffffffffffffffff1614610c84576040517f6697b23200000000000000000000000000000000000000000000000000000000815260040160405180910390fd5b610c8e8282611782565b505050565b600360009054906101000a900473ffffffffffffffffffffffffffffffffffffffff1673ffffffffffffffffffffffffffffffffffffffff1633604051602401610cdd9190611e23565b6040516020818303038152906040527f9d886a68000000000000000000000000000000000000000000000000000000007bffffffffffffffffffffffffffffffffffffffffffffffffffffffff19166020820180517bffffffffffffffffffffffffffffffffffffffffffffffffffffffff8381831617835250505050604051610d679190612167565b6000604051808303816000865af19150503d8060008114610da4576040519150601f19603f3d011682016040523d82523d6000602084013e610da9565b606091505b505050600654600760003373ffffffffffffffffffffffffffffffffffffffff1673ffffffffffffffffffffffffffffffffffffffff1681526020019081526020016000205410610e2f576040517f08c379a0000000000000000000000000000000000000000000000000000000008152600401610e26906121ca565b60405180910390fd5b6000600760003373ffffffffffffffffffffffffffffffffffffffff1673ffffffffffffffffffffffffffffffffffffffff16815260200190815260200160002054600654610e7e9190611f56565b905060003373ffffffffffffffffffffffffffffffffffffffff1682604051610ea690612210565b60006040518083038185875af1925050503d8060008114610ee3576040519150601f19603f3d011682016040523d82523d6000602084013e610ee8565b606091505b5050905080610f2c576040517f08c379a0000000000000000000000000000000000000000000000000000000008152600401610f2390612271565b60405180910390fd5b600654600760003373ffffffffffffffffffffffffffffffffffffffff1673ffffffffffffffffffffffffffffffffffffffff168152602001908152602001600020819055507ffc30cddea38e2bf4d6ea7d3f9ed3b6ad7f176419f4963bd81318067a4aee73fe3383604051610fa3929190611f8a565b60405180910390a15050565b33816000600160008473ffffffffffffffffffffffffffffffffffffffff1673ffffffffffffffffffffffffffffffffffffffff1681526020019081526020016000205411611033576040517f08c379a000000000000000000000000000000000000000000000000000000000815260040161102a90612036565b60405180910390fd5b600081600260008573ffffffffffffffffffffffffffffffffffffffff1673ffffffffffffffffffffffffffffffffffffffff16815260200190815260200160002054600160008673ffffffffffffffffffffffffffffffffffffffff1673ffffffffffffffffffffffffffffffffffffffff168152602001908152602001600020540303116110f8576040517f08c379a00000000000000000000000000000000000000000000000000000000081526004016110ef906120a2565b60405180910390fd5b6000831161113b576040517f08c379a000000000000000000000000000000000000000000000000000000000815260040161113290611e9b565b60405180910390fd5b82600160003373ffffffffffffffffffffffffffffffffffffffff1673ffffffffffffffffffffffffffffffffffffffff168152602001908152602001600020600082825461118a9190611f56565b9250508190555060003373ffffffffffffffffffffffffffffffffffffffff16846040516111b790612210565b60006040518083038185875af1925050503d80600081146111f4576040519150601f19603f3d011682016040523d82523d6000602084013e6111f9565b606091505b505090508061123d576040517f08c379a0000000000000000000000000000000000000000000000000000000008152600401611234906122dd565b60405180910390fd5b7f85082129d87b2fe11527cb1b3b7a520aeb5aa6913f88a3d8757fe40d1db02fdd338560405161126e929190611f8a565b60405180910390a150505050565b600560009054906101000a900473ffffffffffffffffffffffffffffffffffffffff1681565b600034116112e5576040517f08c379a00000000000000000000000000000000000000000000000000000000081526004016112dc90611e9b565b60405180910390fd5b34600160003373ffffffffffffffffffffffffffffffffffffffff1673ffffffffffffffffffffffffffffffffffffffff168152602001908152602001600020600082825461133491906120c2565b925050819055507febedb8b3c678666e7f36970bc8f57abf6d8fa2e828c0da91ea5b75bf68ed101a333460405161136c929190611f8a565b60405180910390a1565b7f3b5d4cc60d3ec3516ee8ae083bd60934f6eb2a6c54b1229985c41bfb092b26036113a081611675565b6000600160008473ffffffffffffffffffffffffffffffffffffffff1673ffffffffffffffffffffffffffffffffffffffff1681526020019081526020016000205490506000600160008573ffffffffffffffffffffffffffffffffffffffff1673ffffffffffffffffffffffffffffffffffffffff168152602001908152602001600020819055506000600260008573ffffffffffffffffffffffffffffffffffffffff1673ffffffffffffffffffffffffffffffffffffffff1681526020019081526020016000208190555061147781611874565b7f4ed05e9673c26d2ed44f7ef6a7f2942df0ee3b5e1e17db4b99f9dcd261a339cd83826040516114a8929190611f8a565b60405180910390a1505050565b60065481565b6000600260008373ffffffffffffffffffffffffffffffffffffffff1673ffffffffffffffffffffffffffffffffffffffff168152602001908152602001600020549050919050565b600080600084815260200190815260200160002060000160008373ffffffffffffffffffffffffffffffffffffffff1673ffffffffffffffffffffffffffffffffffffffff16815260200190815260200160002060009054906101000a900460ff16905092915050565b60085481565b6000801b81565b60026020528060005260406000206000915090505481565b60076020528060005260406000206000915090505481565b6115b482610bd7565b6115bd81611675565b6115c78383611782565b50505050565b600360009054906101000a900473ffffffffffffffffffffffffffffffffffffffff1681565b60016020528060005260406000206000915090505481565b60007f01ffc9a7000000000000000000000000000000000000000000000000000000007bffffffffffffffffffffffffffffffffffffffffffffffffffffffff1916827bffffffffffffffffffffffffffffffffffffffffffffffffffffffff1916149050919050565b6116868161168161177a565b6119d5565b50565b60006116958383611504565b61176f57600160008085815260200190815260200160002060000160008473ffffffffffffffffffffffffffffffffffffffff1673ffffffffffffffffffffffffffffffffffffffff16815260200190815260200160002060006101000a81548160ff02191690831515021790555061170c61177a565b73ffffffffffffffffffffffffffffffffffffffff168273ffffffffffffffffffffffffffffffffffffffff16847f2f8788117e7eff1d82e926ec794901d17c78024a50270940304540a733656f0d60405160405180910390a460019050611774565b600090505b92915050565b600033905090565b600061178e8383611504565b1561186957600080600085815260200190815260200160002060000160008473ffffffffffffffffffffffffffffffffffffffff1673ffffffffffffffffffffffffffffffffffffffff16815260200190815260200160002060006101000a81548160ff02191690831515021790555061180661177a565b73ffffffffffffffffffffffffffffffffffffffff168273ffffffffffffffffffffffffffffffffffffffff16847ff6391f5c32d9c69d2a47ea670b442974b53935d1edc7fd64eb21e047a839171b60405160405180910390a46001905061186e565b600090505b92915050565b806008600082825461188691906120c2565b925050819055506000600360009054906101000a900473ffffffffffffffffffffffffffffffffffffffff1673ffffffffffffffffffffffffffffffffffffffff166040516024016040516020818303038152906040527f85aa2e1b000000000000000000000000000000000000000000000000000000007bffffffffffffffffffffffffffffffffffffffffffffffffffffffff19166020820180517bffffffffffffffffffffffffffffffffffffffffffffffffffffffff83818316178352505050506040516119589190612167565b6000604051808303816000865af19150503d8060008114611995576040519150601f19603f3d011682016040523d82523d6000602084013e61199a565b606091505b509150506000818060200190518101906119b49190612312565b90506000816008546119c6919061236e565b90508060068190555050505050565b6119df8282611504565b611a225780826040517fe2517d3f000000000000000000000000000000000000000000000000000000008152600401611a1992919061239f565b60405180910390fd5b5050565b600080fd5b600073ffffffffffffffffffffffffffffffffffffffff82169050919050565b6000611a5682611a2b565b9050919050565b611a6681611a4b565b8114611a7157600080fd5b50565b600081359050611a8381611a5d565b92915050565b600060208284031215611a9f57611a9e611a26565b5b6000611aad84828501611a74565b91505092915050565b6000819050919050565b611ac981611ab6565b82525050565b6000602082019050611ae46000830184611ac0565b92915050565b60007fffffffff0000000000000000000000000000000000000000000000000000000082169050919050565b611b1f81611aea565b8114611b2a57600080fd5b50565b600081359050611b3c81611b16565b92915050565b600060208284031215611b5857611b57611a26565b5b6000611b6684828501611b2d565b91505092915050565b60008115159050919050565b611b8481611b6f565b82525050565b6000602082019050611b9f6000830184611b7b565b92915050565b611bae81611ab6565b8114611bb957600080fd5b50565b600081359050611bcb81611ba5565b92915050565b60008060408385031215611be857611be7611a26565b5b6000611bf685828601611a74565b9250506020611c0785828601611bbc565b9150509250929050565b6000819050919050565b6000611c36611c31611c2c84611a2b565b611c11565b611a2b565b9050919050565b6000611c4882611c1b565b9050919050565b6000611c5a82611c3d565b9050919050565b611c6a81611c4f565b82525050565b6000602082019050611c856000830184611c61565b92915050565b600080600060608486031215611ca457611ca3611a26565b5b6000611cb286828701611a74565b9350506020611cc386828701611a74565b9250506040611cd486828701611a74565b9150509250925092565b6000819050919050565b611cf181611cde565b8114611cfc57600080fd5b50565b600081359050611d0e81611ce8565b92915050565b600060208284031215611d2a57611d29611a26565b5b6000611d3884828501611cff565b91505092915050565b611d4a81611cde565b82525050565b6000602082019050611d656000830184611d41565b92915050565b60008060408385031215611d8257611d81611a26565b5b6000611d9085828601611cff565b9250506020611da185828601611a74565b9150509250929050565b600060208284031215611dc157611dc0611a26565b5b6000611dcf84828501611bbc565b91505092915050565b6000611de382611c3d565b9050919050565b611df381611dd8565b82525050565b6000602082019050611e0e6000830184611dea565b92915050565b611e1d81611a4b565b82525050565b6000602082019050611e386000830184611e14565b92915050565b600082825260208201905092915050565b7f416d6f756e742063616e6e6f74206265207a65726f0000000000000000000000600082015250565b6000611e85601583611e3e565b9150611e9082611e4f565b602082019050919050565b60006020820190508181036000830152611eb481611e78565b9050919050565b7f4e6f7420656e6f756768206c6f636b65642066756e6473000000000000000000600082015250565b6000611ef1601783611e3e565b9150611efc82611ebb565b602082019050919050565b60006020820190508181036000830152611f2081611ee4565b9050919050565b7f4e487b7100000000000000000000000000000000000000000000000000000000600052601160045260246000fd5b6000611f6182611ab6565b9150611f6c83611ab6565b9250828203905081811115611f8457611f83611f27565b5b92915050565b6000604082019050611f9f6000830185611e14565b611fac6020830184611ac0565b9392505050565b6000606082019050611fc86000830186611e14565b611fd56020830185611e14565b611fe26040830184611e14565b949350505050565b7f4e6f207374616b65642066756e64732100000000000000000000000000000000600082015250565b6000612020601083611e3e565b915061202b82611fea565b602082019050919050565b6000602082019050818103600083015261204f81612013565b9050919050565b7f4e6f7420656e6f7567682066756e647321000000000000000000000000000000600082015250565b600061208c601183611e3e565b915061209782612056565b602082019050919050565b600060208201905081810360008301526120bb8161207f565b9050919050565b60006120cd82611ab6565b91506120d883611ab6565b92508282019050808211156120f0576120ef611f27565b5b92915050565b600081519050919050565b600081905092915050565b60005b8381101561212a57808201518184015260208101905061210f565b60008484015250505050565b6000612141826120f6565b61214b8185612101565b935061215b81856020860161210c565b80840191505092915050565b60006121738284612136565b915081905092915050565b7f4d617820636c61696d61626c6520616d6f756e74207265616368656400000000600082015250565b60006121b4601c83611e3e565b91506121bf8261217e565b602082019050919050565b600060208201905081810360008301526121e3816121a7565b9050919050565b50565b60006121fa600083612101565b9150612205826121ea565b600082019050919050565b600061221b826121ed565b9150819050919050565b7f52657761726473207061796d656e74206661696c656400000000000000000000600082015250565b600061225b601683611e3e565b915061226682612225565b602082019050919050565b6000602082019050818103600083015261228a8161224e565b9050919050565b7f556e7374616b65206661696c6564000000000000000000000000000000000000600082015250565b60006122c7600e83611e3e565b91506122d282612291565b602082019050919050565b600060208201905081810360008301526122f6816122ba565b9050919050565b60008151905061230c81611ba5565b92915050565b60006020828403121561232857612327611a26565b5b6000612336848285016122fd565b91505092915050565b7f4e487b7100000000000000000000000000000000000000000000000000000000600052601260045260246000fd5b600061237982611ab6565b915061238483611ab6565b9250826123945761239361233f565b5b828204905092915050565b60006040820190506123b46000830185611e14565b6123c16020830184611d41565b939250505056fea2646970667358221220bc9a5652433d847ce03cb9c1272618f5adc2166f249c616ef6a8740233e45b8064736f6c63430008140033",
  "linkReferences": {},
  "deployedLinkReferences": {}
}