{
  "_format": "hh-sol-artifact-1",
  "contractName": "FP_DAO",
  "sourceName": "contracts/iebs_Faillapop_DAO.sol",
  "abi": [
    {
      "inputs": [
        {
          "internalType": "string",
          "name": "magicWord",
          "type": "string"
        },
        {
          "internalType": "address",
          "name": "shop",
          "type": "address"
        },
        {
          "internalType": "address",
          "name": "nft_addr",
          "type": "address"
        },
        {
          "internalType": "address",
          "name": "fpt_addr",
          "type": "address"
        }
      ],
      "stateMutability": "nonpayable",
      "type": "constructor"
    },
    {
      "anonymous": false,
      "inputs": [
        {
          "indexed": false,
          "internalType": "address",
          "name": "user",
          "type": "address"
        }
      ],
      "name": "AwardNFT",
      "type": "event"
    },
    {
      "anonymous": false,
      "inputs": [
        {
          "indexed": false,
          "internalType": "uint256",
          "name": "disputeId",
          "type": "uint256"
        },
        {
          "indexed": false,
          "internalType": "uint256",
          "name": "itemId",
          "type": "uint256"
        }
      ],
      "name": "EndDispute",
      "type": "event"
    },
    {
      "anonymous": false,
      "inputs": [
        {
          "indexed": false,
          "internalType": "address",
          "name": "shop",
          "type": "address"
        },
        {
          "indexed": false,
          "internalType": "address",
          "name": "nft",
          "type": "address"
        }
      ],
      "name": "NewConfig",
      "type": "event"
    },
    {
      "anonymous": false,
      "inputs": [
        {
          "indexed": false,
          "internalType": "uint256",
          "name": "disputeId",
          "type": "uint256"
        },
        {
          "indexed": false,
          "internalType": "uint256",
          "name": "itemId",
          "type": "uint256"
        }
      ],
      "name": "NewDispute",
      "type": "event"
    },
    {
      "anonymous": false,
      "inputs": [
        {
          "indexed": false,
          "internalType": "uint256",
          "name": "disputeId",
          "type": "uint256"
        },
        {
          "indexed": false,
          "internalType": "address",
          "name": "user",
          "type": "address"
        }
      ],
      "name": "Vote",
      "type": "event"
    },
    {
      "inputs": [
        {
          "internalType": "uint256",
          "name": "disputeId",
          "type": "uint256"
        }
      ],
      "name": "cancelDispute",
      "outputs": [],
      "stateMutability": "nonpayable",
      "type": "function"
    },
    {
      "inputs": [
        {
          "internalType": "uint256",
          "name": "disputeId",
          "type": "uint256"
        },
        {
          "internalType": "bool",
          "name": "vote",
          "type": "bool"
        }
      ],
      "name": "castVote",
      "outputs": [],
      "stateMutability": "nonpayable",
      "type": "function"
    },
    {
      "inputs": [
        {
          "internalType": "uint256",
          "name": "disputeID",
          "type": "uint256"
        }
      ],
      "name": "checkLottery",
      "outputs": [],
      "stateMutability": "nonpayable",
      "type": "function"
    },
    {
      "inputs": [
        {
          "internalType": "uint256",
          "name": "",
          "type": "uint256"
        }
      ],
      "name": "disputeResult",
      "outputs": [
        {
          "internalType": "uint8",
          "name": "",
          "type": "uint8"
        }
      ],
      "stateMutability": "view",
      "type": "function"
    },
    {
      "inputs": [
        {
          "internalType": "uint256",
          "name": "",
          "type": "uint256"
        }
      ],
      "name": "disputes",
      "outputs": [
        {
          "internalType": "uint256",
          "name": "itemId",
          "type": "uint256"
        },
        {
          "internalType": "string",
          "name": "buyerReasoning",
          "type": "string"
        },
        {
          "internalType": "string",
          "name": "sellerReasoning",
          "type": "string"
        },
        {
          "internalType": "uint256",
          "name": "votesFor",
          "type": "uint256"
        },
        {
          "internalType": "uint256",
          "name": "votesAgainst",
          "type": "uint256"
        },
        {
          "internalType": "uint256",
          "name": "totalVoters",
          "type": "uint256"
        }
      ],
      "stateMutability": "view",
      "type": "function"
    },
    {
      "inputs": [
        {
          "internalType": "uint256",
          "name": "disputeId",
          "type": "uint256"
        }
      ],
      "name": "endDispute",
      "outputs": [],
      "stateMutability": "nonpayable",
      "type": "function"
    },
    {
      "inputs": [],
      "name": "fptContract",
      "outputs": [
        {
          "internalType": "contract IERC20",
          "name": "",
          "type": "address"
        }
      ],
      "stateMutability": "view",
      "type": "function"
    },
    {
      "inputs": [
        {
          "internalType": "address",
          "name": "",
          "type": "address"
        },
        {
          "internalType": "uint256",
          "name": "",
          "type": "uint256"
        }
      ],
      "name": "hasVoted",
      "outputs": [
        {
          "internalType": "uint256",
          "name": "",
          "type": "uint256"
        }
      ],
      "stateMutability": "view",
      "type": "function"
    },
    {
      "inputs": [
        {
          "internalType": "uint256",
          "name": "itemId",
          "type": "uint256"
        },
        {
          "internalType": "string",
          "name": "buyerReasoning",
          "type": "string"
        },
        {
          "internalType": "string",
          "name": "sellerReasoning",
          "type": "string"
        }
      ],
      "name": "newDispute",
      "outputs": [
        {
          "internalType": "uint256",
          "name": "",
          "type": "uint256"
        }
      ],
      "stateMutability": "nonpayable",
      "type": "function"
    },
    {
      "inputs": [],
      "name": "nextDisputeId",
      "outputs": [
        {
          "internalType": "uint256",
          "name": "",
          "type": "uint256"
        }
      ],
      "stateMutability": "view",
      "type": "function"
    },
    {
      "inputs": [],
      "name": "nftContract",
      "outputs": [
        {
          "internalType": "contract IFP_NFT",
          "name": "",
          "type": "address"
        }
      ],
      "stateMutability": "view",
      "type": "function"
    },
    {
      "inputs": [
        {
          "internalType": "uint256",
          "name": "disputeId",
          "type": "uint256"
        }
      ],
      "name": "query_dispute",
      "outputs": [
        {
          "components": [
            {
              "internalType": "uint256",
              "name": "itemId",
              "type": "uint256"
            },
            {
              "internalType": "string",
              "name": "buyerReasoning",
              "type": "string"
            },
            {
              "internalType": "string",
              "name": "sellerReasoning",
              "type": "string"
            },
            {
              "internalType": "uint256",
              "name": "votesFor",
              "type": "uint256"
            },
            {
              "internalType": "uint256",
              "name": "votesAgainst",
              "type": "uint256"
            },
            {
              "internalType": "uint256",
              "name": "totalVoters",
              "type": "uint256"
            }
          ],
          "internalType": "struct FP_DAO.Dispute",
          "name": "",
          "type": "tuple"
        }
      ],
      "stateMutability": "view",
      "type": "function"
    },
    {
      "inputs": [],
      "name": "shopContract",
      "outputs": [
        {
          "internalType": "contract IFP_Shop",
          "name": "",
          "type": "address"
        }
      ],
      "stateMutability": "view",
      "type": "function"
    },
    {
      "inputs": [],
      "name": "shop_addr",
      "outputs": [
        {
          "internalType": "address",
          "name": "",
          "type": "address"
        }
      ],
      "stateMutability": "view",
      "type": "function"
    },
    {
      "inputs": [
        {
          "internalType": "string",
          "name": "magicWord",
          "type": "string"
        },
        {
          "internalType": "string",
          "name": "newMagicWord",
          "type": "string"
        },
        {
          "internalType": "address",
          "name": "newShop",
          "type": "address"
        },
        {
          "internalType": "address",
          "name": "newNft",
          "type": "address"
        }
      ],
      "name": "updateConfig",
      "outputs": [],
      "stateMutability": "nonpayable",
      "type": "function"
    }
  ],
  "bytecode": "0x60806040523480156200001157600080fd5b5060405162002b6538038062002b65833981810160405281019062000037919062000371565b83600490816200004891906200064d565b5082600560006101000a81548173ffffffffffffffffffffffffffffffffffffffff021916908373ffffffffffffffffffffffffffffffffffffffff160217905550600560009054906101000a900473ffffffffffffffffffffffffffffffffffffffff16600660006101000a81548173ffffffffffffffffffffffffffffffffffffffff021916908373ffffffffffffffffffffffffffffffffffffffff16021790555081600760006101000a81548173ffffffffffffffffffffffffffffffffffffffff021916908373ffffffffffffffffffffffffffffffffffffffff16021790555080600860006101000a81548173ffffffffffffffffffffffffffffffffffffffff021916908373ffffffffffffffffffffffffffffffffffffffff1602179055505050505062000734565b6000604051905090565b600080fd5b600080fd5b600080fd5b600080fd5b6000601f19601f8301169050919050565b7f4e487b7100000000000000000000000000000000000000000000000000000000600052604160045260246000fd5b620001e28262000197565b810181811067ffffffffffffffff82111715620002045762000203620001a8565b5b80604052505050565b60006200021962000179565b9050620002278282620001d7565b919050565b600067ffffffffffffffff8211156200024a5762000249620001a8565b5b620002558262000197565b9050602081019050919050565b60005b838110156200028257808201518184015260208101905062000265565b60008484015250505050565b6000620002a56200029f846200022c565b6200020d565b905082815260208101848484011115620002c457620002c362000192565b5b620002d184828562000262565b509392505050565b600082601f830112620002f157620002f06200018d565b5b8151620003038482602086016200028e565b91505092915050565b600073ffffffffffffffffffffffffffffffffffffffff82169050919050565b600062000339826200030c565b9050919050565b6200034b816200032c565b81146200035757600080fd5b50565b6000815190506200036b8162000340565b92915050565b600080600080608085870312156200038e576200038d62000183565b5b600085015167ffffffffffffffff811115620003af57620003ae62000188565b5b620003bd87828801620002d9565b9450506020620003d0878288016200035a565b9350506040620003e3878288016200035a565b9250506060620003f6878288016200035a565b91505092959194509250565b600081519050919050565b7f4e487b7100000000000000000000000000000000000000000000000000000000600052602260045260246000fd5b600060028204905060018216806200045557607f821691505b6020821081036200046b576200046a6200040d565b5b50919050565b60008190508160005260206000209050919050565b60006020601f8301049050919050565b600082821b905092915050565b600060088302620004d57fffffffffffffffffffffffffffffffffffffffffffffffffffffffffffffffff8262000496565b620004e1868362000496565b95508019841693508086168417925050509392505050565b6000819050919050565b6000819050919050565b60006200052e620005286200052284620004f9565b62000503565b620004f9565b9050919050565b6000819050919050565b6200054a836200050d565b62000562620005598262000535565b848454620004a3565b825550505050565b600090565b620005796200056a565b620005868184846200053f565b505050565b5b81811015620005ae57620005a26000826200056f565b6001810190506200058c565b5050565b601f821115620005fd57620005c78162000471565b620005d28462000486565b81016020851015620005e2578190505b620005fa620005f18562000486565b8301826200058b565b50505b505050565b600082821c905092915050565b6000620006226000198460080262000602565b1980831691505092915050565b60006200063d83836200060f565b9150826002028217905092915050565b620006588262000402565b67ffffffffffffffff811115620006745762000673620001a8565b5b6200068082546200043c565b6200068d828285620005b2565b600060209050601f831160018114620006c55760008415620006b0578287015190505b620006bc85826200062f565b8655506200072c565b601f198416620006d58662000471565b60005b82811015620006ff57848901518255600182019150602085019450602081019050620006d8565b868310156200071f57848901516200071b601f8916826200060f565b8355505b6001600288020188555050505b505050505050565b61242180620007446000396000f3fe608060405234801561001057600080fd5b50600436106100f45760003560e01c8063564a565d11610097578063d56d229d11610066578063d56d229d1461028a578063df02935c146102a8578063f43acb52146102c4578063fdd1f754146102e0576100f4565b8063564a565d146101fd57806359a716ad14610232578063c83b8e561461024e578063d283f0af1461026c576100f4565b806315373e3d116100d357806315373e3d1461016557806324ffa4111461018157806342545825146101b15780635187b7a0146101e1576100f4565b80623a18cf146100f957806309090a51146101295780630db3993414610147575b600080fd5b610113600480360381019061010e919061146f565b610310565b60405161012091906115cb565b60405180910390f35b610131610488565b60405161013e919061166c565b60405180910390f35b61014f6104ae565b60405161015c9190611696565b60405180910390f35b61017f600480360381019061017a91906116e9565b6104b4565b005b61019b6004803603810190610196919061178e565b610679565b6040516101a89190611696565b60405180910390f35b6101cb60048036038101906101c69190611861565b610892565b6040516101d89190611696565b60405180910390f35b6101fb60048036038101906101f6919061146f565b6108b7565b005b6102176004803603810190610212919061146f565b610a61565b604051610229969594939291906118eb565b60405180910390f35b61024c6004803603810190610247919061195a565b610bad565b005b610256610d9c565b6040516102639190611a10565b60405180910390f35b610274610dc2565b6040516102819190611a4c565b60405180910390f35b610292610de8565b60405161029f9190611a88565b60405180910390f35b6102c260048036038101906102bd919061146f565b610e0e565b005b6102de60048036038101906102d9919061146f565b610f4a565b005b6102fa60048036038101906102f5919061146f565b6110a3565b6040516103079190611abf565b60405180910390f35b61031861139c565b6000808381526020019081526020016000206040518060c00160405290816000820154815260200160018201805461034f90611b09565b80601f016020809104026020016040519081016040528092919081815260200182805461037b90611b09565b80156103c85780601f1061039d576101008083540402835291602001916103c8565b820191906000526020600020905b8154815290600101906020018083116103ab57829003601f168201915b505050505081526020016002820180546103e190611b09565b80601f016020809104026020016040519081016040528092919081815260200182805461040d90611b09565b801561045a5780601f1061042f5761010080835404028352916020019161045a565b820191906000526020600020905b81548152906001019060200180831161043d57829003601f168201915b5050505050815260200160038201548152602001600482015481526020016005820154815250509050919050565b600660009054906101000a900473ffffffffffffffffffffffffffffffffffffffff1681565b60015481565b6000600260003373ffffffffffffffffffffffffffffffffffffffff1673ffffffffffffffffffffffffffffffffffffffff16815260200190815260200160002060008481526020019081526020016000205414610547576040517f08c379a000000000000000000000000000000000000000000000000000000000815260040161053e90611b86565b60405180910390fd5b6000610552336110c3565b905081156105e15780600080858152602001908152602001600020600301600082825461057f9190611bd5565b925050819055506001600260003373ffffffffffffffffffffffffffffffffffffffff1673ffffffffffffffffffffffffffffffffffffffff16815260200190815260200160002060008581526020019081526020016000208190555061060e565b8060008085815260200190815260200160002060040160008282546106069190611bd5565b925050819055505b600160008085815260200190815260200160002060050160008282546106349190611bd5565b925050819055507f10a412bf229fbac2408912cb271b8ff9eb39eb72da91dd0c8accab0fb1011135833360405161066c929190611c09565b60405180910390a1505050565b6000600560009054906101000a900473ffffffffffffffffffffffffffffffffffffffff1673ffffffffffffffffffffffffffffffffffffffff163373ffffffffffffffffffffffffffffffffffffffff161461070b576040517f08c379a000000000000000000000000000000000000000000000000000000000815260040161070290611c7e565b60405180910390fd5b6000600154905060018060008282546107249190611bd5565b925050819055506040518060c0016040528088815260200187878080601f016020809104026020016040519081016040528093929190818152602001838380828437600081840152601f19601f82011690508083019250505050505050815260200185858080601f016020809104026020016040519081016040528093929190818152602001838380828437600081840152601f19601f820116905080830192505050505050508152602001600081526020016000815260200160008152506000808381526020019081526020016000206000820151816000015560208201518160010190816108149190611e6f565b50604082015181600201908161082a9190611e6f565b50606082015181600301556080820151816004015560a082015181600501559050507f98d85359d4c56c7eaf2486712c329156c582a48e60b4188ba13a7afa45cfff32818860405161087d929190611f41565b60405180910390a18091505095945050505050565b6002602052816000526040600020602052806000526040600020600091509150505481565b600954600080838152602001908152602001600020600501541015610911576040517f08c379a000000000000000000000000000000000000000000000000000000000815260040161090890611fb6565b60405180910390fd5b6000806000838152602001908152602001600020600001549050600080838152602001908152602001600020600401546000808481526020019081526020016000206003015411156109985761096681611168565b60016003600084815260200190815260200160002060006101000a81548160ff021916908360ff1602179055506109cf565b6109a1816111f8565b60026003600084815260200190815260200160002060006101000a81548160ff021916908360ff1602179055505b6000808381526020019081526020016000206000808201600090556001820160006109fa91906113d2565b600282016000610a0a91906113d2565b60038201600090556004820160009055600582016000905550507f5f65ba4221e242e33b7e6330ca9b57400e8d026cf0fd6d7761b8f1be8fbf29388282604051610a55929190611f41565b60405180910390a15050565b6000602052806000526040600020600091509050806000015490806001018054610a8a90611b09565b80601f0160208091040260200160405190810160405280929190818152602001828054610ab690611b09565b8015610b035780601f10610ad857610100808354040283529160200191610b03565b820191906000526020600020905b815481529060010190602001808311610ae657829003601f168201915b505050505090806002018054610b1890611b09565b80601f0160208091040260200160405190810160405280929190818152602001828054610b4490611b09565b8015610b915780601f10610b6657610100808354040283529160200191610b91565b820191906000526020600020905b815481529060010190602001808311610b7457829003601f168201915b5050505050908060030154908060040154908060050154905086565b85856004604051602001610bc19190612064565b604051602081830303815290604052805190602001208282604051602001610bea9291906120af565b6040516020818303038152906040528051906020012014610c40576040517f08c379a0000000000000000000000000000000000000000000000000000000008152600401610c3790611c7e565b60405180910390fd5b858560049182610c519291906120d3565b5083600560006101000a81548173ffffffffffffffffffffffffffffffffffffffff021916908373ffffffffffffffffffffffffffffffffffffffff160217905550600560009054906101000a900473ffffffffffffffffffffffffffffffffffffffff16600660006101000a81548173ffffffffffffffffffffffffffffffffffffffff021916908373ffffffffffffffffffffffffffffffffffffffff16021790555082600760006101000a81548173ffffffffffffffffffffffffffffffffffffffff021916908373ffffffffffffffffffffffffffffffffffffffff1602179055507f3f97ee5bfc1c5fb7ed7777025ccb32eaff67bb248b9385905fee860c8e9873ae600560009054906101000a900473ffffffffffffffffffffffffffffffffffffffff1684604051610d8a9291906121a3565b60405180910390a15050505050505050565b600560009054906101000a900473ffffffffffffffffffffffffffffffffffffffff1681565b600860009054906101000a900473ffffffffffffffffffffffffffffffffffffffff1681565b600760009054906101000a900473ffffffffffffffffffffffffffffffffffffffff1681565b600560009054906101000a900473ffffffffffffffffffffffffffffffffffffffff1673ffffffffffffffffffffffffffffffffffffffff163373ffffffffffffffffffffffffffffffffffffffff1614610e9e576040517f08c379a0000000000000000000000000000000000000000000000000000000008152600401610e9590611c7e565b60405180910390fd5b6000806000838152602001908152602001600020600001549050600080838152602001908152602001600020600080820160009055600182016000610ee391906113d2565b600282016000610ef391906113d2565b60038201600090556004820160009055600582016000905550507f5f65ba4221e242e33b7e6330ca9b57400e8d026cf0fd6d7761b8f1be8fbf29388282604051610f3e929190611f41565b60405180910390a15050565b6000600260003373ffffffffffffffffffffffffffffffffffffffff1673ffffffffffffffffffffffffffffffffffffffff16815260200190815260200160002060008381526020019081526020016000205403610fdd576040517f08c379a0000000000000000000000000000000000000000000000000000000008152600401610fd490612218565b60405180910390fd5b600260003373ffffffffffffffffffffffffffffffffffffffff1673ffffffffffffffffffffffffffffffffffffffff1681526020019081526020016000206000828152602001908152602001600020546003600083815260200190815260200160002060009054906101000a900460ff1660ff16036110655761106033611288565b6110a0565b6040517f08c379a000000000000000000000000000000000000000000000000000000000815260040161109790612284565b60405180910390fd5b50565b60036020528060005260406000206000915054906101000a900460ff1681565b6000600860009054906101000a900473ffffffffffffffffffffffffffffffffffffffff1673ffffffffffffffffffffffffffffffffffffffff166370a08231836040518263ffffffff1660e01b81526004016111209190611a10565b602060405180830381865afa15801561113d573d6000803e3d6000fd5b505050506040513d601f19601f8201168201806040525081019061116191906122b9565b9050919050565b600660009054906101000a900473ffffffffffffffffffffffffffffffffffffffff1673ffffffffffffffffffffffffffffffffffffffff1663223ed1dd826040518263ffffffff1660e01b81526004016111c39190611696565b600060405180830381600087803b1580156111dd57600080fd5b505af11580156111f1573d6000803e3d6000fd5b5050505050565b600660009054906101000a900473ffffffffffffffffffffffffffffffffffffffff1673ffffffffffffffffffffffffffffffffffffffff16635187b7a0826040518263ffffffff1660e01b81526004016112539190611696565b600060405180830381600087803b15801561126d57600080fd5b505af1158015611281573d6000803e3d6000fd5b5050505050565b600060014361129791906122e6565b4042836040516020016112ac939291906123ae565b6040516020818303038152906040528051906020012060001c60ff169050600a81101561136157600760009054906101000a900473ffffffffffffffffffffffffffffffffffffffff1673ffffffffffffffffffffffffffffffffffffffff166374e4fe36836040518263ffffffff1660e01b815260040161132e9190611a10565b600060405180830381600087803b15801561134857600080fd5b505af115801561135c573d6000803e3d6000fd5b505050505b7f50a76bf3b663b76d774ece1923da131b8e960e3ca9442ab303d45428b87743a1826040516113909190611a10565b60405180910390a15050565b6040518060c001604052806000815260200160608152602001606081526020016000815260200160008152602001600081525090565b5080546113de90611b09565b6000825580601f106113f0575061140f565b601f01602090049060005260206000209081019061140e9190611412565b5b50565b5b8082111561142b576000816000905550600101611413565b5090565b600080fd5b600080fd5b6000819050919050565b61144c81611439565b811461145757600080fd5b50565b60008135905061146981611443565b92915050565b6000602082840312156114855761148461142f565b5b60006114938482850161145a565b91505092915050565b6114a581611439565b82525050565b600081519050919050565b600082825260208201905092915050565b60005b838110156114e55780820151818401526020810190506114ca565b60008484015250505050565b6000601f19601f8301169050919050565b600061150d826114ab565b61151781856114b6565b93506115278185602086016114c7565b611530816114f1565b840191505092915050565b600060c083016000830151611553600086018261149c565b506020830151848203602086015261156b8282611502565b915050604083015184820360408601526115858282611502565b915050606083015161159a606086018261149c565b5060808301516115ad608086018261149c565b5060a08301516115c060a086018261149c565b508091505092915050565b600060208201905081810360008301526115e5818461153b565b905092915050565b600073ffffffffffffffffffffffffffffffffffffffff82169050919050565b6000819050919050565b600061163261162d611628846115ed565b61160d565b6115ed565b9050919050565b600061164482611617565b9050919050565b600061165682611639565b9050919050565b6116668161164b565b82525050565b6000602082019050611681600083018461165d565b92915050565b61169081611439565b82525050565b60006020820190506116ab6000830184611687565b92915050565b60008115159050919050565b6116c6816116b1565b81146116d157600080fd5b50565b6000813590506116e3816116bd565b92915050565b60008060408385031215611700576116ff61142f565b5b600061170e8582860161145a565b925050602061171f858286016116d4565b9150509250929050565b600080fd5b600080fd5b600080fd5b60008083601f84011261174e5761174d611729565b5b8235905067ffffffffffffffff81111561176b5761176a61172e565b5b60208301915083600182028301111561178757611786611733565b5b9250929050565b6000806000806000606086880312156117aa576117a961142f565b5b60006117b88882890161145a565b955050602086013567ffffffffffffffff8111156117d9576117d8611434565b5b6117e588828901611738565b9450945050604086013567ffffffffffffffff81111561180857611807611434565b5b61181488828901611738565b92509250509295509295909350565b600061182e826115ed565b9050919050565b61183e81611823565b811461184957600080fd5b50565b60008135905061185b81611835565b92915050565b600080604083850312156118785761187761142f565b5b60006118868582860161184c565b92505060206118978582860161145a565b9150509250929050565b600082825260208201905092915050565b60006118bd826114ab565b6118c781856118a1565b93506118d78185602086016114c7565b6118e0816114f1565b840191505092915050565b600060c0820190506119006000830189611687565b818103602083015261191281886118b2565b9050818103604083015261192681876118b2565b90506119356060830186611687565b6119426080830185611687565b61194f60a0830184611687565b979650505050505050565b600080600080600080608087890312156119775761197661142f565b5b600087013567ffffffffffffffff81111561199557611994611434565b5b6119a189828a01611738565b9650965050602087013567ffffffffffffffff8111156119c4576119c3611434565b5b6119d089828a01611738565b945094505060406119e389828a0161184c565b92505060606119f489828a0161184c565b9150509295509295509295565b611a0a81611823565b82525050565b6000602082019050611a256000830184611a01565b92915050565b6000611a3682611639565b9050919050565b611a4681611a2b565b82525050565b6000602082019050611a616000830184611a3d565b92915050565b6000611a7282611639565b9050919050565b611a8281611a67565b82525050565b6000602082019050611a9d6000830184611a79565b92915050565b600060ff82169050919050565b611ab981611aa3565b82525050565b6000602082019050611ad46000830184611ab0565b92915050565b7f4e487b7100000000000000000000000000000000000000000000000000000000600052602260045260246000fd5b60006002820490506001821680611b2157607f821691505b602082108103611b3457611b33611ada565b5b50919050565b7f596f75206861766520616c726561647920766f74656400000000000000000000600082015250565b6000611b706016836118a1565b9150611b7b82611b3a565b602082019050919050565b60006020820190508181036000830152611b9f81611b63565b9050919050565b7f4e487b7100000000000000000000000000000000000000000000000000000000600052601160045260246000fd5b6000611be082611439565b9150611beb83611439565b9250828201905080821115611c0357611c02611ba6565b5b92915050565b6000604082019050611c1e6000830185611687565b611c2b6020830184611a01565b9392505050565b7f556e617574686f72697a65640000000000000000000000000000000000000000600082015250565b6000611c68600c836118a1565b9150611c7382611c32565b602082019050919050565b60006020820190508181036000830152611c9781611c5b565b9050919050565b7f4e487b7100000000000000000000000000000000000000000000000000000000600052604160045260246000fd5b60008190508160005260206000209050919050565b60006020601f8301049050919050565b600082821b905092915050565b600060088302611d2f7fffffffffffffffffffffffffffffffffffffffffffffffffffffffffffffffff82611cf2565b611d398683611cf2565b95508019841693508086168417925050509392505050565b6000611d6c611d67611d6284611439565b61160d565b611439565b9050919050565b6000819050919050565b611d8683611d51565b611d9a611d9282611d73565b848454611cff565b825550505050565b600090565b611daf611da2565b611dba818484611d7d565b505050565b5b81811015611dde57611dd3600082611da7565b600181019050611dc0565b5050565b601f821115611e2357611df481611ccd565b611dfd84611ce2565b81016020851015611e0c578190505b611e20611e1885611ce2565b830182611dbf565b50505b505050565b600082821c905092915050565b6000611e4660001984600802611e28565b1980831691505092915050565b6000611e5f8383611e35565b9150826002028217905092915050565b611e78826114ab565b67ffffffffffffffff811115611e9157611e90611c9e565b5b611e9b8254611b09565b611ea6828285611de2565b600060209050601f831160018114611ed95760008415611ec7578287015190505b611ed18582611e53565b865550611f39565b601f198416611ee786611ccd565b60005b82811015611f0f57848901518255600182019150602085019450602081019050611eea565b86831015611f2c5784890151611f28601f891682611e35565b8355505b6001600288020188555050505b505050505050565b6000604082019050611f566000830185611687565b611f636020830184611687565b9392505050565b7f4e6f7420656e6f75676820766f74657273000000000000000000000000000000600082015250565b6000611fa06011836118a1565b9150611fab82611f6a565b602082019050919050565b60006020820190508181036000830152611fcf81611f93565b9050919050565b600081905092915050565b60008154611fee81611b09565b611ff88186611fd6565b9450600182166000811461201357600181146120285761205b565b60ff198316865281151582028601935061205b565b61203185611ccd565b60005b8381101561205357815481890152600182019150602081019050612034565b838801955050505b50505092915050565b60006120708284611fe1565b915081905092915050565b82818337600083830152505050565b60006120968385611fd6565b93506120a383858461207b565b82840190509392505050565b60006120bc82848661208a565b91508190509392505050565b600082905092915050565b6120dd83836120c8565b67ffffffffffffffff8111156120f6576120f5611c9e565b5b6121008254611b09565b61210b828285611de2565b6000601f83116001811461213a5760008415612128578287013590505b6121328582611e53565b86555061219a565b601f19841661214886611ccd565b60005b828110156121705784890135825560018201915060208501945060208101905061214b565b8683101561218d5784890135612189601f891682611e35565b8355505b6001600288020188555050505b50505050505050565b60006040820190506121b86000830185611a01565b6121c56020830184611a01565b9392505050565b7f55736572206469646e277420766f746500000000000000000000000000000000600082015250565b60006122026010836118a1565b915061220d826121cc565b602082019050919050565b60006020820190508181036000830152612231816121f5565b9050919050565b7f5573657220766f74656420666f72207468652077726f6e672073696465000000600082015250565b600061226e601d836118a1565b915061227982612238565b602082019050919050565b6000602082019050818103600083015261229d81612261565b9050919050565b6000815190506122b381611443565b92915050565b6000602082840312156122cf576122ce61142f565b5b60006122dd848285016122a4565b91505092915050565b60006122f182611439565b91506122fc83611439565b925082820390508181111561231457612313611ba6565b5b92915050565b6000819050919050565b6000819050919050565b61233f61233a8261231a565b612324565b82525050565b6000819050919050565b61236061235b82611439565b612345565b82525050565b60008160601b9050919050565b600061237e82612366565b9050919050565b600061239082612373565b9050919050565b6123a86123a382611823565b612385565b82525050565b60006123ba828661232e565b6020820191506123ca828561234f565b6020820191506123da8284612397565b60148201915081905094935050505056fea2646970667358221220cc6ecd4da101c3a0842c0932d8bd985a9a3791bc233dd218f26f0d52b8ec593564736f6c63430008140033",
  "linkReferences": {},
  "deployedLinkReferences": {}
}