{
    "contractName": "FP_DAO",
    "abi": [
        {
            "inputs": [
                {
                    "internalType": "string",
                    "name": "magicWord",
                    "type": "string"
                },
                {
                    "internalType": "address",
                    "name": "shop",
                    "type": "address"
                },
                {
                    "internalType": "address",
                    "name": "nft_addr",
                    "type": "address"
                },
                {
                    "internalType": "address",
                    "name": "fpt_addr",
                    "type": "address"
                }
            ],
            "stateMutability": "nonpayable",
            "type": "constructor"
        },
        {
            "anonymous": false,
            "inputs": [
                {
                    "indexed": false,
                    "internalType": "address",
                    "name": "user",
                    "type": "address"
                }
            ],
            "name": "AwardNFT",
            "type": "event"
        },
        {
            "anonymous": false,
            "inputs": [
                {
                    "indexed": false,
                    "internalType": "uint256",
                    "name": "disputeId",
                    "type": "uint256"
                },
                {
                    "indexed": false,
                    "internalType": "uint256",
                    "name": "itemId",
                    "type": "uint256"
                }
            ],
            "name": "EndDispute",
            "type": "event"
        },
        {
            "anonymous": false,
            "inputs": [
                {
                    "indexed": false,
                    "internalType": "address",
                    "name": "shop",
                    "type": "address"
                },
                {
                    "indexed": false,
                    "internalType": "address",
                    "name": "nft",
                    "type": "address"
                }
            ],
            "name": "NewConfig",
            "type": "event"
        },
        {
            "anonymous": false,
            "inputs": [
                {
                    "indexed": false,
                    "internalType": "uint256",
                    "name": "disputeId",
                    "type": "uint256"
                },
                {
                    "indexed": false,
                    "internalType": "uint256",
                    "name": "itemId",
                    "type": "uint256"
                }
            ],
            "name": "NewDispute",
            "type": "event"
        },
        {
            "anonymous": false,
            "inputs": [
                {
                    "indexed": false,
                    "internalType": "uint256",
                    "name": "disputeId",
                    "type": "uint256"
                },
                {
                    "indexed": false,
                    "internalType": "address",
                    "name": "user",
                    "type": "address"
                }
            ],
            "name": "Vote",
            "type": "event"
        },
        {
            "inputs": [
                {
                    "internalType": "uint256",
                    "name": "disputeId",
                    "type": "uint256"
                }
            ],
            "name": "cancelDispute",
            "outputs": [],
            "stateMutability": "nonpayable",
            "type": "function"
        },
        {
            "inputs": [
                {
                    "internalType": "uint256",
                    "name": "disputeId",
                    "type": "uint256"
                },
                {
                    "internalType": "bool",
                    "name": "vote",
                    "type": "bool"
                }
            ],
            "name": "castVote",
            "outputs": [],
            "stateMutability": "nonpayable",
            "type": "function"
        },
        {
            "inputs": [
                {
                    "internalType": "uint256",
                    "name": "disputeID",
                    "type": "uint256"
                }
            ],
            "name": "checkLottery",
            "outputs": [],
            "stateMutability": "nonpayable",
            "type": "function"
        },
        {
            "inputs": [
                {
                    "internalType": "uint256",
                    "name": "",
                    "type": "uint256"
                }
            ],
            "name": "disputeResult",
            "outputs": [
                {
                    "internalType": "uint8",
                    "name": "",
                    "type": "uint8"
                }
            ],
            "stateMutability": "view",
            "type": "function"
        },
        {
            "inputs": [
                {
                    "internalType": "uint256",
                    "name": "",
                    "type": "uint256"
                }
            ],
            "name": "disputes",
            "outputs": [
                {
                    "internalType": "uint256",
                    "name": "itemId",
                    "type": "uint256"
                },
                {
                    "internalType": "string",
                    "name": "buyerReasoning",
                    "type": "string"
                },
                {
                    "internalType": "string",
                    "name": "sellerReasoning",
                    "type": "string"
                },
                {
                    "internalType": "uint256",
                    "name": "votesFor",
                    "type": "uint256"
                },
                {
                    "internalType": "uint256",
                    "name": "votesAgainst",
                    "type": "uint256"
                },
                {
                    "internalType": "uint256",
                    "name": "totalVoters",
                    "type": "uint256"
                }
            ],
            "stateMutability": "view",
            "type": "function"
        },
        {
            "inputs": [
                {
                    "internalType": "uint256",
                    "name": "disputeId",
                    "type": "uint256"
                }
            ],
            "name": "endDispute",
            "outputs": [],
            "stateMutability": "nonpayable",
            "type": "function"
        },
        {
            "inputs": [],
            "name": "fptContract",
            "outputs": [
                {
                    "internalType": "contract IERC20",
                    "name": "",
                    "type": "address"
                }
            ],
            "stateMutability": "view",
            "type": "function"
        },
        {
            "inputs": [
                {
                    "internalType": "address",
                    "name": "",
                    "type": "address"
                },
                {
                    "internalType": "uint256",
                    "name": "",
                    "type": "uint256"
                }
            ],
            "name": "hasVoted",
            "outputs": [
                {
                    "internalType": "uint256",
                    "name": "",
                    "type": "uint256"
                }
            ],
            "stateMutability": "view",
            "type": "function"
        },
        {
            "inputs": [
                {
                    "internalType": "uint256",
                    "name": "itemId",
                    "type": "uint256"
                },
                {
                    "internalType": "string",
                    "name": "buyerReasoning",
                    "type": "string"
                },
                {
                    "internalType": "string",
                    "name": "sellerReasoning",
                    "type": "string"
                }
            ],
            "name": "newDispute",
            "outputs": [
                {
                    "internalType": "uint256",
                    "name": "",
                    "type": "uint256"
                }
            ],
            "stateMutability": "nonpayable",
            "type": "function"
        },
        {
            "inputs": [],
            "name": "nextDisputeId",
            "outputs": [
                {
                    "internalType": "uint256",
                    "name": "",
                    "type": "uint256"
                }
            ],
            "stateMutability": "view",
            "type": "function"
        },
        {
            "inputs": [],
            "name": "nftContract",
            "outputs": [
                {
                    "internalType": "contract IFP_NFT",
                    "name": "",
                    "type": "address"
                }
            ],
            "stateMutability": "view",
            "type": "function"
        },
        {
            "inputs": [
                {
                    "internalType": "uint256",
                    "name": "disputeId",
                    "type": "uint256"
                }
            ],
            "name": "query_dispute",
            "outputs": [
                {
                    "components": [
                        {
                            "internalType": "uint256",
                            "name": "itemId",
                            "type": "uint256"
                        },
                        {
                            "internalType": "string",
                            "name": "buyerReasoning",
                            "type": "string"
                        },
                        {
                            "internalType": "string",
                            "name": "sellerReasoning",
                            "type": "string"
                        },
                        {
                            "internalType": "uint256",
                            "name": "votesFor",
                            "type": "uint256"
                        },
                        {
                            "internalType": "uint256",
                            "name": "votesAgainst",
                            "type": "uint256"
                        },
                        {
                            "internalType": "uint256",
                            "name": "totalVoters",
                            "type": "uint256"
                        }
                    ],
                    "internalType": "struct FP_DAO.Dispute",
                    "name": "",
                    "type": "tuple"
                }
            ],
            "stateMutability": "view",
            "type": "function"
        },
        {
            "inputs": [],
            "name": "shopContract",
            "outputs": [
                {
                    "internalType": "contract IFP_Shop",
                    "name": "",
                    "type": "address"
                }
            ],
            "stateMutability": "view",
            "type": "function"
        },
        {
            "inputs": [],
            "name": "shop_addr",
            "outputs": [
                {
                    "internalType": "address",
                    "name": "",
                    "type": "address"
                }
            ],
            "stateMutability": "view",
            "type": "function"
        },
        {
            "inputs": [
                {
                    "internalType": "string",
                    "name": "magicWord",
                    "type": "string"
                },
                {
                    "internalType": "string",
                    "name": "newMagicWord",
                    "type": "string"
                },
                {
                    "internalType": "address",
                    "name": "newShop",
                    "type": "address"
                },
                {
                    "internalType": "address",
                    "name": "newNft",
                    "type": "address"
                }
            ],
            "name": "updateConfig",
            "outputs": [],
            "stateMutability": "nonpayable",
            "type": "function"
        }
    ],
    "bytecode": "608060405234801562000010575f80fd5b50604051620016f1380380620016f18339810160408190526200003391620000c3565b600462000041858262000254565b50600580546001600160a01b039485166001600160a01b03199182168117909255600680548216909217909155600780549385169382169390931790925560088054919093169116179055506200031c565b634e487b7160e01b5f52604160045260245ffd5b80516001600160a01b0381168114620000be575f80fd5b919050565b5f805f8060808587031215620000d7575f80fd5b84516001600160401b0380821115620000ee575f80fd5b818701915087601f83011262000102575f80fd5b81518181111562000117576200011762000093565b604051601f8201601f19908116603f0116810190838211818310171562000142576200014262000093565b81604052828152602093508a848487010111156200015e575f80fd5b5f91505b8282101562000181578482018401518183018501529083019062000162565b5f8484830101528098505050506200019b818801620000a7565b94505050620001ad60408601620000a7565b9150620001bd60608601620000a7565b905092959194509250565b600181811c90821680620001dd57607f821691505b602082108103620001fc57634e487b7160e01b5f52602260045260245ffd5b50919050565b601f8211156200024f575f81815260208120601f850160051c810160208610156200022a5750805b601f850160051c820191505b818110156200024b5782815560010162000236565b5050505b505050565b81516001600160401b0381111562000270576200027062000093565b6200028881620002818454620001c8565b8462000202565b602080601f831160018114620002be575f8415620002a65750858301515b5f19600386901b1c1916600185901b1785556200024b565b5f85815260208120601f198616915b82811015620002ee57888601518255948401946001909101908401620002cd565b50858210156200030c57878501515f19600388901b60f8161c191681555b5050505050600190811b01905550565b6113c7806200032a5f395ff3fe608060405234801561000f575f80fd5b50600436106100ef575f3560e01c8063564a565d11610093578063d56d229d11610063578063d56d229d14610221578063df02935c14610234578063f43acb5214610247578063fdd1f7541461025a575f80fd5b8063564a565d146101c357806359a716ad146101e8578063c83b8e56146101fb578063d283f0af1461020e575f80fd5b806315373e3d116100ce57806315373e3d1461015e57806324ffa4111461017357806342545825146101865780635187b7a0146101b0575f80fd5b80623a18cf146100f357806309090a511461011c5780630db3993414610147575b5f80fd5b610106610101366004610dc0565b61028e565b6040516101139190610e1a565b60405180910390f35b60065461012f906001600160a01b031681565b6040516001600160a01b039091168152602001610113565b61015060015481565b604051908152602001610113565b61017161016c366004610e87565b610428565b005b610150610181366004610efe565b61056f565b610150610194366004610f8d565b600260209081525f928352604080842090915290825290205481565b6101716101be366004610dc0565b6106e6565b6101d66101d1366004610dc0565b610825565b60405161011396959493929190610fb5565b6101716101f6366004610ffe565b610965565b60055461012f906001600160a01b031681565b60085461012f906001600160a01b031681565b60075461012f906001600160a01b031681565b610171610242366004610dc0565b610a61565b610171610255366004610dc0565b610aab565b61027c610268366004610dc0565b60036020525f908152604090205460ff1681565b60405160ff9091168152602001610113565b6102c36040518060c001604052805f815260200160608152602001606081526020015f81526020015f81526020015f81525090565b5f8281526020818152604091829020825160c081019093528054835260018101805491928401916102f390611088565b80601f016020809104026020016040519081016040528092919081815260200182805461031f90611088565b801561036a5780601f106103415761010080835404028352916020019161036a565b820191905f5260205f20905b81548152906001019060200180831161034d57829003601f168201915b5050505050815260200160028201805461038390611088565b80601f01602080910402602001604051908101604052809291908181526020018280546103af90611088565b80156103fa5780601f106103d1576101008083540402835291602001916103fa565b820191905f5260205f20905b8154815290600101906020018083116103dd57829003601f168201915b5050505050815260200160038201548152602001600482015481526020016005820154815250509050919050565b335f9081526002602090815260408083208584529091529020541561048d5760405162461bcd60e51b8152602060048201526016602482015275165bdd481a185d9948185b1c9958591e481d9bdd195960521b60448201526064015b60405180910390fd5b5f61049733610b85565b905081156104e6575f83815260208190526040812060030180548392906104bf9084906110d4565b9091555050335f90815260026020908152604080832086845290915290206001905561050c565b5f83815260208190526040812060040180548392906105069084906110d4565b90915550505b5f83815260208190526040812060050180546001929061052d9084906110d4565b9091555050604080518481523360208201527f10a412bf229fbac2408912cb271b8ff9eb39eb72da91dd0c8accab0fb1011135910160405180910390a1505050565b6005545f906001600160a01b0316331461059b5760405162461bcd60e51b8152600401610484906110e7565b6001805490805f6105ac82856110d4565b925050819055506040518060c0016040528088815260200187878080601f0160208091040260200160405190810160405280939291908181526020018383808284375f92019190915250505090825250604080516020601f8801819004810282018101909252868152918101919087908790819084018382808284375f9201829052509385525050506020808301829052604080840183905260609093018290528482528181529190208251815590820151600182019061066d908261116f565b5060408201516002820190610682908261116f565b50606082015160038201556080820151600482015560a09091015160059091015560408051828152602081018990527f98d85359d4c56c7eaf2486712c329156c582a48e60b4188ba13a7afa45cfff32910160405180910390a19695505050505050565b6009545f82815260208190526040902060050154101561073c5760405162461bcd60e51b81526020600482015260116024820152704e6f7420656e6f75676820766f7465727360781b6044820152606401610484565b5f81815260208190526040902080546004820154600390920154909110156107845761076781610bf7565b5f828152600360205260409020805460ff191660011790556107a6565b61078d81610c54565b5f828152600360205260409020805460ff191660021790555b5f828152602081905260408120818155906107c46001830182610d76565b6107d1600283015f610d76565b505f600382018190556004820181905560059091015560408051838152602081018390527f5f65ba4221e242e33b7e6330ca9b57400e8d026cf0fd6d7761b8f1be8fbf293891015b60405180910390a15050565b5f602081905290815260409020805460018201805491929161084690611088565b80601f016020809104026020016040519081016040528092919081815260200182805461087290611088565b80156108bd5780601f10610894576101008083540402835291602001916108bd565b820191905f5260205f20905b8154815290600101906020018083116108a057829003601f168201915b5050505050908060020180546108d290611088565b80601f01602080910402602001604051908101604052809291908181526020018280546108fe90611088565b80156109495780601f1061092057610100808354040283529160200191610949565b820191905f5260205f20905b81548152906001019060200180831161092c57829003601f168201915b5050505050908060030154908060040154908060050154905086565b85856004604051602001610979919061122b565b6040516020818303038152906040528051906020012082826040516020016109a292919061129d565b60405160208183030381529060405280519060200120146109d55760405162461bcd60e51b8152600401610484906110e7565b60046109e28688836112ac565b50600580546001600160a01b038681166001600160a01b0319928316811790935560068054831684179055600780549187169190921681179091556040805192835260208301919091527f3f97ee5bfc1c5fb7ed7777025ccb32eaff67bb248b9385905fee860c8e9873ae910160405180910390a15050505050505050565b6005546001600160a01b03163314610a8b5760405162461bcd60e51b8152600401610484906110e7565b5f8181526020819052604081208054828255916107c46001830182610d76565b335f9081526002602090815260408083208484529091528120549003610b065760405162461bcd60e51b815260206004820152601060248201526f55736572206469646e277420766f746560801b6044820152606401610484565b335f90815260026020908152604080832084845282528083205460039092529091205460ff1603610b3d57610b3a33610c85565b50565b60405162461bcd60e51b815260206004820152601d60248201527f5573657220766f74656420666f72207468652077726f6e6720736964650000006044820152606401610484565b6008546040516370a0823160e01b81526001600160a01b0383811660048301525f9216906370a0823190602401602060405180830381865afa158015610bcd573d5f803e3d5ffd5b505050506040513d601f19601f82011682018060405250810190610bf19190611367565b92915050565b60065460405163223ed1dd60e01b8152600481018390526001600160a01b039091169063223ed1dd906024015b5f604051808303815f87803b158015610c3b575f80fd5b505af1158015610c4d573d5f803e3d5ffd5b5050505050565b60065460405163028c3dbd60e51b8152600481018390526001600160a01b0390911690635187b7a090602401610c24565b5f610c9160014361137e565b60408051914060208301524290820152606083811b6bffffffffffffffffffffffff191690820152607401604051602081830303815290604052805190602001205f1c60ff169050600a811015610d3d57600754604051633a727f1b60e11b81526001600160a01b038481166004830152909116906374e4fe36906024015f604051808303815f87803b158015610d26575f80fd5b505af1158015610d38573d5f803e3d5ffd5b505050505b6040516001600160a01b03831681527f50a76bf3b663b76d774ece1923da131b8e960e3ca9442ab303d45428b87743a190602001610819565b508054610d8290611088565b5f825580601f10610d91575050565b601f0160209004905f5260205f2090810190610b3a91905b80821115610dbc575f8155600101610da9565b5090565b5f60208284031215610dd0575f80fd5b5035919050565b5f81518084525f5b81811015610dfb57602081850181015186830182015201610ddf565b505f602082860101526020601f19601f83011685010191505092915050565b60208152815160208201525f602083015160c06040840152610e3f60e0840182610dd7565b90506040840151601f19848303016060850152610e5c8282610dd7565b91505060608401516080840152608084015160a084015260a084015160c08401528091505092915050565b5f8060408385031215610e98575f80fd5b8235915060208301358015158114610eae575f80fd5b809150509250929050565b5f8083601f840112610ec9575f80fd5b50813567ffffffffffffffff811115610ee0575f80fd5b602083019150836020828501011115610ef7575f80fd5b9250929050565b5f805f805f60608688031215610f12575f80fd5b85359450602086013567ffffffffffffffff80821115610f30575f80fd5b610f3c89838a01610eb9565b90965094506040880135915080821115610f54575f80fd5b50610f6188828901610eb9565b969995985093965092949392505050565b80356001600160a01b0381168114610f88575f80fd5b919050565b5f8060408385031215610f9e575f80fd5b610fa783610f72565b946020939093013593505050565b86815260c060208201525f610fcd60c0830188610dd7565b8281036040840152610fdf8188610dd7565b60608401969096525050608081019290925260a0909101529392505050565b5f805f805f8060808789031215611013575f80fd5b863567ffffffffffffffff8082111561102a575f80fd5b6110368a838b01610eb9565b9098509650602089013591508082111561104e575f80fd5b5061105b89828a01610eb9565b909550935061106e905060408801610f72565b915061107c60608801610f72565b90509295509295509295565b600181811c9082168061109c57607f821691505b6020821081036110ba57634e487b7160e01b5f52602260045260245ffd5b50919050565b634e487b7160e01b5f52601160045260245ffd5b80820180821115610bf157610bf16110c0565b6020808252600c908201526b155b985d5d1a1bdc9a5e995960a21b604082015260600190565b634e487b7160e01b5f52604160045260245ffd5b601f82111561116a575f81815260208120601f850160051c810160208610156111475750805b601f850160051c820191505b8181101561116657828155600101611153565b5050505b505050565b815167ffffffffffffffff8111156111895761118961110d565b61119d816111978454611088565b84611121565b602080601f8311600181146111d0575f84156111b95750858301515b5f19600386901b1c1916600185901b178555611166565b5f85815260208120601f198616915b828110156111fe578886015182559484019460019091019084016111df565b508582101561121b57878501515f19600388901b60f8161c191681555b5050505050600190811b01905550565b5f80835461123881611088565b60018281168015611250576001811461126557611291565b60ff1984168752821515830287019450611291565b875f526020805f205f5b858110156112885781548a82015290840190820161126f565b50505082870194505b50929695505050505050565b818382375f9101908152919050565b67ffffffffffffffff8311156112c4576112c461110d565b6112d8836112d28354611088565b83611121565b5f601f841160018114611309575f85156112f25750838201355b5f19600387901b1c1916600186901b178355610c4d565b5f83815260209020601f19861690835b828110156113395786850135825560209485019460019092019101611319565b5086821015611355575f1960f88860031b161c19848701351681555b505060018560011b0183555050505050565b5f60208284031215611377575f80fd5b5051919050565b81810381811115610bf157610bf16110c056fea2646970667358221220ab7a73585e67bb20d26a0986f79d2197a1db14cf34956d884cb25991a6377b0b64736f6c63430008140033",
    "sourcePath": "/Users/jaimecontreras/Downloads/Proyecto_Final/Proyecto/contracts/iebs_Faillapop_DAO.sol",
    "compiler": {
        "name": "solc",
        "version": "0.8.20+commit.a1b79de6"
    },
    "functionHashes": {
        "cancelDispute(uint256)": "df02935c",
        "castVote(uint256,bool)": "15373e3d",
        "checkLottery(uint256)": "f43acb52",
        "disputeResult(uint256)": "fdd1f754",
        "disputes(uint256)": "564a565d",
        "endDispute(uint256)": "5187b7a0",
        "fptContract()": "d283f0af",
        "hasVoted(address,uint256)": "42545825",
        "newDispute(uint256,string,string)": "24ffa411",
        "nextDisputeId()": "0db39934",
        "nftContract()": "d56d229d",
        "query_dispute(uint256)": "003a18cf",
        "shopContract()": "09090a51",
        "shop_addr()": "c83b8e56",
        "updateConfig(string,string,address,address)": "59a716ad"
    },
    "gasEstimates": {
        "creation": {
            "codeDepositCost": "1012600",
            "executionCost": "infinite",
            "totalCost": "infinite"
        },
        "external": {
            "cancelDispute(uint256)": "infinite",
            "castVote(uint256,bool)": "infinite",
            "checkLottery(uint256)": "infinite",
            "disputeResult(uint256)": "2538",
            "disputes(uint256)": "infinite",
            "endDispute(uint256)": "infinite",
            "fptContract()": "2425",
            "hasVoted(address,uint256)": "2676",
            "newDispute(uint256,string,string)": "infinite",
            "nextDisputeId()": "2362",
            "nftContract()": "2358",
            "query_dispute(uint256)": "infinite",
            "shopContract()": "2382",
            "shop_addr()": "2403",
            "updateConfig(string,string,address,address)": "infinite"
        },
        "internal": {
            "buyerWins(uint256)": "infinite",
            "calcVotingPower(address)": "infinite",
            "lotteryNFT(address)": "infinite",
            "sellerWins(uint256)": "infinite"
        }
    }
}