{
    "contractName": "FP_Shop",
    "abi": [
        {
            "inputs": [
                {
                    "internalType": "address",
                    "name": "dao_addr",
                    "type": "address"
                },
                {
                    "internalType": "address",
                    "name": "vault_addr",
                    "type": "address"
                }
            ],
            "stateMutability": "nonpayable",
            "type": "constructor"
        },
        {
            "inputs": [],
            "name": "AccessControlBadConfirmation",
            "type": "error"
        },
        {
            "inputs": [
                {
                    "internalType": "address",
                    "name": "account",
                    "type": "address"
                },
                {
                    "internalType": "bytes32",
                    "name": "neededRole",
                    "type": "bytes32"
                }
            ],
            "name": "AccessControlUnauthorizedAccount",
            "type": "error"
        },
        {
            "anonymous": false,
            "inputs": [
                {
                    "indexed": false,
                    "internalType": "address",
                    "name": "user",
                    "type": "address"
                }
            ],
            "name": "AwardNFT",
            "type": "event"
        },
        {
            "anonymous": false,
            "inputs": [
                {
                    "indexed": false,
                    "internalType": "address",
                    "name": "seller",
                    "type": "address"
                }
            ],
            "name": "BlacklistSeller",
            "type": "event"
        },
        {
            "anonymous": false,
            "inputs": [
                {
                    "indexed": false,
                    "internalType": "address",
                    "name": "user",
                    "type": "address"
                },
                {
                    "indexed": false,
                    "internalType": "uint256",
                    "name": "item",
                    "type": "uint256"
                }
            ],
            "name": "Buy",
            "type": "event"
        },
        {
            "anonymous": false,
            "inputs": [
                {
                    "indexed": false,
                    "internalType": "uint256",
                    "name": "id",
                    "type": "uint256"
                },
                {
                    "indexed": false,
                    "internalType": "string",
                    "name": "title",
                    "type": "string"
                }
            ],
            "name": "ModifyItem",
            "type": "event"
        },
        {
            "anonymous": false,
            "inputs": [
                {
                    "indexed": false,
                    "internalType": "uint256",
                    "name": "id",
                    "type": "uint256"
                },
                {
                    "indexed": false,
                    "internalType": "string",
                    "name": "title",
                    "type": "string"
                }
            ],
            "name": "NewItem",
            "type": "event"
        },
        {
            "anonymous": false,
            "inputs": [
                {
                    "indexed": false,
                    "internalType": "address",
                    "name": "user",
                    "type": "address"
                },
                {
                    "indexed": false,
                    "internalType": "uint256",
                    "name": "item",
                    "type": "uint256"
                }
            ],
            "name": "OpenDispute",
            "type": "event"
        },
        {
            "anonymous": false,
            "inputs": [
                {
                    "indexed": false,
                    "internalType": "address",
                    "name": "user",
                    "type": "address"
                },
                {
                    "indexed": false,
                    "internalType": "uint256",
                    "name": "amount",
                    "type": "uint256"
                }
            ],
            "name": "Reimburse",
            "type": "event"
        },
        {
            "anonymous": false,
            "inputs": [
                {
                    "indexed": true,
                    "internalType": "bytes32",
                    "name": "role",
                    "type": "bytes32"
                },
                {
                    "indexed": true,
                    "internalType": "bytes32",
                    "name": "previousAdminRole",
                    "type": "bytes32"
                },
                {
                    "indexed": true,
                    "internalType": "bytes32",
                    "name": "newAdminRole",
                    "type": "bytes32"
                }
            ],
            "name": "RoleAdminChanged",
            "type": "event"
        },
        {
            "anonymous": false,
            "inputs": [
                {
                    "indexed": true,
                    "internalType": "bytes32",
                    "name": "role",
                    "type": "bytes32"
                },
                {
                    "indexed": true,
                    "internalType": "address",
                    "name": "account",
                    "type": "address"
                },
                {
                    "indexed": true,
                    "internalType": "address",
                    "name": "sender",
                    "type": "address"
                }
            ],
            "name": "RoleGranted",
            "type": "event"
        },
        {
            "anonymous": false,
            "inputs": [
                {
                    "indexed": true,
                    "internalType": "bytes32",
                    "name": "role",
                    "type": "bytes32"
                },
                {
                    "indexed": true,
                    "internalType": "address",
                    "name": "account",
                    "type": "address"
                },
                {
                    "indexed": true,
                    "internalType": "address",
                    "name": "sender",
                    "type": "address"
                }
            ],
            "name": "RoleRevoked",
            "type": "event"
        },
        {
            "inputs": [],
            "name": "ADMIN_ROLE",
            "outputs": [
                {
                    "internalType": "bytes32",
                    "name": "",
                    "type": "bytes32"
                }
            ],
            "stateMutability": "view",
            "type": "function"
        },
        {
            "inputs": [],
            "name": "BLACKLISTED_ROLE",
            "outputs": [
                {
                    "internalType": "bytes32",
                    "name": "",
                    "type": "bytes32"
                }
            ],
            "stateMutability": "view",
            "type": "function"
        },
        {
            "inputs": [],
            "name": "DAO_ROLE",
            "outputs": [
                {
                    "internalType": "bytes32",
                    "name": "",
                    "type": "bytes32"
                }
            ],
            "stateMutability": "view",
            "type": "function"
        },
        {
            "inputs": [],
            "name": "DEFAULT_ADMIN_ROLE",
            "outputs": [
                {
                    "internalType": "bytes32",
                    "name": "",
                    "type": "bytes32"
                }
            ],
            "stateMutability": "view",
            "type": "function"
        },
        {
            "inputs": [
                {
                    "internalType": "uint256",
                    "name": "",
                    "type": "uint256"
                }
            ],
            "name": "blacklistedSellers",
            "outputs": [
                {
                    "internalType": "address",
                    "name": "",
                    "type": "address"
                }
            ],
            "stateMutability": "view",
            "type": "function"
        },
        {
            "inputs": [
                {
                    "internalType": "uint256",
                    "name": "itemId",
                    "type": "uint256"
                }
            ],
            "name": "cancelActiveSale",
            "outputs": [],
            "stateMutability": "nonpayable",
            "type": "function"
        },
        {
            "inputs": [
                {
                    "internalType": "uint256",
                    "name": "itemId",
                    "type": "uint256"
                },
                {
                    "internalType": "bool",
                    "name": "toBePaid",
                    "type": "bool"
                }
            ],
            "name": "closeSale",
            "outputs": [],
            "stateMutability": "nonpayable",
            "type": "function"
        },
        {
            "inputs": [],
            "name": "daoContract",
            "outputs": [
                {
                    "internalType": "contract IFP_DAO",
                    "name": "",
                    "type": "address"
                }
            ],
            "stateMutability": "view",
            "type": "function"
        },
        {
            "inputs": [
                {
                    "internalType": "uint256",
                    "name": "itemId",
                    "type": "uint256"
                },
                {
                    "internalType": "string",
                    "name": "buyerReasoning",
                    "type": "string"
                }
            ],
            "name": "disputeSale",
            "outputs": [],
            "stateMutability": "nonpayable",
            "type": "function"
        },
        {
            "inputs": [
                {
                    "internalType": "uint256",
                    "name": "itemId",
                    "type": "uint256"
                },
                {
                    "internalType": "string",
                    "name": "sellerReasoning",
                    "type": "string"
                }
            ],
            "name": "disputedSaleReply",
            "outputs": [],
            "stateMutability": "nonpayable",
            "type": "function"
        },
        {
            "inputs": [
                {
                    "internalType": "uint256",
                    "name": "",
                    "type": "uint256"
                }
            ],
            "name": "disputed_items",
            "outputs": [
                {
                    "internalType": "uint256",
                    "name": "disputeId",
                    "type": "uint256"
                },
                {
                    "internalType": "string",
                    "name": "buyerReasoning",
                    "type": "string"
                },
                {
                    "internalType": "string",
                    "name": "sellerReasoning",
                    "type": "string"
                }
            ],
            "stateMutability": "view",
            "type": "function"
        },
        {
            "inputs": [
                {
                    "internalType": "uint256",
                    "name": "itemId",
                    "type": "uint256"
                }
            ],
            "name": "doBuy",
            "outputs": [],
            "stateMutability": "payable",
            "type": "function"
        },
        {
            "inputs": [
                {
                    "internalType": "uint256",
                    "name": "itemId",
                    "type": "uint256"
                }
            ],
            "name": "endDispute",
            "outputs": [],
            "stateMutability": "nonpayable",
            "type": "function"
        },
        {
            "inputs": [
                {
                    "internalType": "bytes32",
                    "name": "role",
                    "type": "bytes32"
                }
            ],
            "name": "getRoleAdmin",
            "outputs": [
                {
                    "internalType": "bytes32",
                    "name": "",
                    "type": "bytes32"
                }
            ],
            "stateMutability": "view",
            "type": "function"
        },
        {
            "inputs": [
                {
                    "internalType": "bytes32",
                    "name": "role",
                    "type": "bytes32"
                },
                {
                    "internalType": "address",
                    "name": "account",
                    "type": "address"
                }
            ],
            "name": "grantRole",
            "outputs": [],
            "stateMutability": "nonpayable",
            "type": "function"
        },
        {
            "inputs": [
                {
                    "internalType": "bytes32",
                    "name": "role",
                    "type": "bytes32"
                },
                {
                    "internalType": "address",
                    "name": "account",
                    "type": "address"
                }
            ],
            "name": "hasRole",
            "outputs": [
                {
                    "internalType": "bool",
                    "name": "",
                    "type": "bool"
                }
            ],
            "stateMutability": "view",
            "type": "function"
        },
        {
            "inputs": [
                {
                    "internalType": "uint256",
                    "name": "itemId",
                    "type": "uint256"
                }
            ],
            "name": "itemReceived",
            "outputs": [],
            "stateMutability": "nonpayable",
            "type": "function"
        },
        {
            "inputs": [
                {
                    "internalType": "uint256",
                    "name": "itemId",
                    "type": "uint256"
                },
                {
                    "internalType": "string",
                    "name": "newTitle",
                    "type": "string"
                },
                {
                    "internalType": "string",
                    "name": "newDesc",
                    "type": "string"
                },
                {
                    "internalType": "uint256",
                    "name": "newPrice",
                    "type": "uint256"
                }
            ],
            "name": "modifySale",
            "outputs": [],
            "stateMutability": "nonpayable",
            "type": "function"
        },
        {
            "inputs": [
                {
                    "internalType": "uint256",
                    "name": "currentId",
                    "type": "uint256"
                },
                {
                    "internalType": "string",
                    "name": "title",
                    "type": "string"
                },
                {
                    "internalType": "string",
                    "name": "description",
                    "type": "string"
                },
                {
                    "internalType": "uint256",
                    "name": "price",
                    "type": "uint256"
                }
            ],
            "name": "newSale",
            "outputs": [],
            "stateMutability": "nonpayable",
            "type": "function"
        },
        {
            "inputs": [],
            "name": "offerIndex",
            "outputs": [
                {
                    "internalType": "uint256",
                    "name": "",
                    "type": "uint256"
                }
            ],
            "stateMutability": "view",
            "type": "function"
        },
        {
            "inputs": [
                {
                    "internalType": "uint256",
                    "name": "",
                    "type": "uint256"
                }
            ],
            "name": "offered_items",
            "outputs": [
                {
                    "internalType": "address",
                    "name": "seller",
                    "type": "address"
                },
                {
                    "internalType": "address",
                    "name": "buyer",
                    "type": "address"
                },
                {
                    "internalType": "string",
                    "name": "title",
                    "type": "string"
                },
                {
                    "internalType": "string",
                    "name": "description",
                    "type": "string"
                },
                {
                    "internalType": "uint256",
                    "name": "price",
                    "type": "uint256"
                },
                {
                    "internalType": "enum FP_Shop.State",
                    "name": "state",
                    "type": "uint8"
                }
            ],
            "stateMutability": "view",
            "type": "function"
        },
        {
            "inputs": [
                {
                    "internalType": "uint256",
                    "name": "itemId",
                    "type": "uint256"
                }
            ],
            "name": "query_dispute",
            "outputs": [
                {
                    "components": [
                        {
                            "internalType": "uint256",
                            "name": "disputeId",
                            "type": "uint256"
                        },
                        {
                            "internalType": "string",
                            "name": "buyerReasoning",
                            "type": "string"
                        },
                        {
                            "internalType": "string",
                            "name": "sellerReasoning",
                            "type": "string"
                        }
                    ],
                    "internalType": "struct FP_Shop.Dispute",
                    "name": "",
                    "type": "tuple"
                }
            ],
            "stateMutability": "view",
            "type": "function"
        },
        {
            "inputs": [
                {
                    "internalType": "uint256",
                    "name": "itemId",
                    "type": "uint256"
                }
            ],
            "name": "query_sale",
            "outputs": [
                {
                    "components": [
                        {
                            "internalType": "address",
                            "name": "seller",
                            "type": "address"
                        },
                        {
                            "internalType": "address",
                            "name": "buyer",
                            "type": "address"
                        },
                        {
                            "internalType": "string",
                            "name": "title",
                            "type": "string"
                        },
                        {
                            "internalType": "string",
                            "name": "description",
                            "type": "string"
                        },
                        {
                            "internalType": "uint256",
                            "name": "price",
                            "type": "uint256"
                        },
                        {
                            "internalType": "enum FP_Shop.State",
                            "name": "state",
                            "type": "uint8"
                        }
                    ],
                    "internalType": "struct FP_Shop.Sale",
                    "name": "",
                    "type": "tuple"
                }
            ],
            "stateMutability": "view",
            "type": "function"
        },
        {
            "inputs": [
                {
                    "internalType": "uint256",
                    "name": "itemId",
                    "type": "uint256"
                }
            ],
            "name": "removeMaliciousSale",
            "outputs": [],
            "stateMutability": "nonpayable",
            "type": "function"
        },
        {
            "inputs": [
                {
                    "internalType": "bytes32",
                    "name": "role",
                    "type": "bytes32"
                },
                {
                    "internalType": "address",
                    "name": "callerConfirmation",
                    "type": "address"
                }
            ],
            "name": "renounceRole",
            "outputs": [],
            "stateMutability": "nonpayable",
            "type": "function"
        },
        {
            "inputs": [
                {
                    "internalType": "uint256",
                    "name": "itemId",
                    "type": "uint256"
                }
            ],
            "name": "returnItem",
            "outputs": [],
            "stateMutability": "nonpayable",
            "type": "function"
        },
        {
            "inputs": [
                {
                    "internalType": "bytes32",
                    "name": "role",
                    "type": "bytes32"
                },
                {
                    "internalType": "address",
                    "name": "account",
                    "type": "address"
                }
            ],
            "name": "revokeRole",
            "outputs": [],
            "stateMutability": "nonpayable",
            "type": "function"
        },
        {
            "inputs": [
                {
                    "internalType": "bool",
                    "name": "_vacationMode",
                    "type": "bool"
                }
            ],
            "name": "setVacationMode",
            "outputs": [],
            "stateMutability": "nonpayable",
            "type": "function"
        },
        {
            "inputs": [
                {
                    "internalType": "bytes4",
                    "name": "interfaceId",
                    "type": "bytes4"
                }
            ],
            "name": "supportsInterface",
            "outputs": [
                {
                    "internalType": "bool",
                    "name": "",
                    "type": "bool"
                }
            ],
            "stateMutability": "view",
            "type": "function"
        },
        {
            "inputs": [],
            "name": "vaultContract",
            "outputs": [
                {
                    "internalType": "contract IFP_Vault",
                    "name": "",
                    "type": "address"
                }
            ],
            "stateMutability": "view",
            "type": "function"
        }
    ],
    "bytecode": "608060405234801562000010575f80fd5b5060405162002ab938038062002ab9833981016040819052620000339162000187565b6200005f7fa49807205ce4d355092ef5a8a18f56e8913cf4a201fbe287825b095693c2177533620000bf565b506200008c7f3b5d4cc60d3ec3516ee8ae083bd60934f6eb2a6c54b1229985c41bfb092b260383620000bf565b50600680546001600160a01b039384166001600160a01b03199182161790915560058054929093169116179055620001bd565b5f828152602081815260408083206001600160a01b038516845290915281205460ff1662000162575f838152602081815260408083206001600160a01b03861684529091529020805460ff19166001179055620001193390565b6001600160a01b0316826001600160a01b0316847f2f8788117e7eff1d82e926ec794901d17c78024a50270940304540a733656f0d60405160405180910390a450600162000165565b505f5b92915050565b80516001600160a01b038116811462000182575f80fd5b919050565b5f806040838503121562000199575f80fd5b620001a4836200016b565b9150620001b4602084016200016b565b90509250929050565b6128ee80620001cb5f395ff3fe6080604052600436106101c4575f3560e01c8063704b71ed116100f2578063aa8b374511610092578063d547741f11610062578063d547741f1461058b578063d9209de8146105aa578063e9c26518146105c9578063fb7c0a3f146105fc575f80fd5b8063aa8b3745146104f3578063ab0378be1461051f578063c2b9cf8d1461053e578063c45379b91461055d575f80fd5b806391d14854116100cd57806391d1485414610483578063a217fddf146104a2578063a55dd46b146104b5578063a610c298146104d4575f80fd5b8063704b71ed1461041257806373e07e451461043157806375b238fc14610450575f80fd5b80632274346b1161016857806336568abe1161013857806336568abe146103825780634a7ffcbc146103a15780635187b7a0146103c057806362b199c5146103df575f80fd5b80632274346b146102cd578063248a9ca3146103045780632eaf2054146103325780632f2ff15d14610363575f80fd5b80631d24e299116101a35780631d24e2991461024d5780631f22b6771461026c57806320ca2d271461028f578063223ed1dd146102ae575f80fd5b80623a18cf146101c857806301ffc9a7146101fd5780630fa3d7d61461022c575b5f80fd5b3480156101d3575f80fd5b506101e76101e23660046121b5565b61060f565b6040516101f4919061220f565b60405180910390f35b348015610208575f80fd5b5061021c61021736600461225a565b61077e565b60405190151581526020016101f4565b348015610237575f80fd5b5061024b6102463660046122cd565b6107b4565b005b348015610258575f80fd5b5061024b6102673660046121b5565b610887565b348015610277575f80fd5b5061028160025481565b6040519081526020016101f4565b34801561029a575f80fd5b5061024b6102a93660046122cd565b610977565b3480156102b9575f80fd5b5061024b6102c83660046121b5565b610a85565b3480156102d8575f80fd5b506005546102ec906001600160a01b031681565b6040516001600160a01b0390911681526020016101f4565b34801561030f575f80fd5b5061028161031e3660046121b5565b5f9081526020819052604090206001015490565b34801561033d575f80fd5b5061035161034c3660046121b5565b610b2e565b6040516101f496959493929190612349565b34801561036e575f80fd5b5061024b61037d3660046123a7565b610c81565b34801561038d575f80fd5b5061024b61039c3660046123a7565b610cab565b3480156103ac575f80fd5b506006546102ec906001600160a01b031681565b3480156103cb575f80fd5b5061024b6103da3660046121b5565b610cde565b3480156103ea575f80fd5b506102817f548c7f0307ab2a7ea894e5c7e8c5353cc750bb9385ee2e945f189a9a83daa8ed81565b34801561041d575f80fd5b5061024b61042c3660046123e0565b610dfc565b34801561043c575f80fd5b5061024b61044b366004612470565b611144565b34801561045b575f80fd5b506102817fa49807205ce4d355092ef5a8a18f56e8913cf4a201fbe287825b095693c2177581565b34801561048e575f80fd5b5061021c61049d3660046123a7565b6112c0565b3480156104ad575f80fd5b506102815f81565b3480156104c0575f80fd5b5061024b6104cf3660046121b5565b6112e8565b3480156104df575f80fd5b5061024b6104ee3660046121b5565b611366565b3480156104fe575f80fd5b5061051261050d3660046121b5565b61148d565b6040516101f4919061249a565b34801561052a575f80fd5b5061024b6105393660046123e0565b611634565b348015610549575f80fd5b506102ec6105583660046121b5565b6118a4565b348015610568575f80fd5b5061057c6105773660046121b5565b6118cc565b6040516101f493929190612519565b348015610596575f80fd5b5061024b6105a53660046123a7565b6119fa565b3480156105b5575f80fd5b5061024b6105c436600461254d565b611a1e565b3480156105d4575f80fd5b506102817f3b5d4cc60d3ec3516ee8ae083bd60934f6eb2a6c54b1229985c41bfb092b260381565b61024b61060a3660046121b5565b611aff565b61063260405180606001604052805f815260200160608152602001606081525090565b60035f8381526020019081526020015f206040518060600160405290815f820154815260200160018201805461066790612566565b80601f016020809104026020016040519081016040528092919081815260200182805461069390612566565b80156106de5780601f106106b5576101008083540402835291602001916106de565b820191905f5260205f20905b8154815290600101906020018083116106c157829003601f168201915b505050505081526020016002820180546106f790612566565b80601f016020809104026020016040519081016040528092919081815260200182805461072390612566565b801561076e5780601f106107455761010080835404028352916020019161076e565b820191905f5260205f20905b81548152906001019060200180831161075157829003601f168201915b5050505050815250509050919050565b5f6001600160e01b03198216637965db0b60e01b14806107ae57506301ffc9a760e01b6001600160e01b03198316145b92915050565b5f838152600160205260409020546001600160a01b0316331461080f5760405162461bcd60e51b815260206004820152600e60248201526d2737ba103a34329039b2b63632b960911b60448201526064015b60405180910390fd5b60025f8481526001602052604090206005015460ff16600481111561083657610836612315565b146108775760405162461bcd60e51b8152602060048201526011602482015270125d195b481b9bdd08191a5cdc1d5d1959607a1b6044820152606401610806565b610882838383611c94565b505050565b5f818152600160205260409020546001600160a01b031633146108f85760405162461bcd60e51b815260206004820152602360248201527f4f6e6c79207468652073656c6c65722063616e2063616e63656c207468652073604482015262616c6560e81b6064820152608401610806565b5f8181526001602052604081206005015460ff16600481111561091d5761091d612315565b1461096a5760405162461bcd60e51b815260206004820152601760248201527f53616c652063616e27742062652063616e63656c6c65640000000000000000006044820152606401610806565b610974815f611144565b50565b5f83815260016020819052604090912001546001600160a01b031633146109d05760405162461bcd60e51b815260206004820152600d60248201526c2737ba103a343290313abcb2b960991b6044820152606401610806565b5f838152600160209081526040808320600501805460ff1916600217905580516060810182528381528151601f860184900484028101840190925284825291828101919086908690819084018382808284375f92018290525093855250506040805160208181018352848252948501528883526003845290912083518155918301519293508392600183019150610a6790826125ff565b5060408201516002820190610a7c90826125ff565b50505050505050565b7f3b5d4cc60d3ec3516ee8ae083bd60934f6eb2a6c54b1229985c41bfb092b2603610aaf81611d90565b60025f8381526001602052604090206005015460ff166004811115610ad657610ad6612315565b14610b175760405162461bcd60e51b8152602060048201526011602482015270125d195b481b9bdd08191a5cdc1d5d1959607a1b6044820152606401610806565b610b2082611d9a565b610b2a825f611144565b5050565b600160208190525f91825260409091208054918101546002820180546001600160a01b03948516949092169291610b6490612566565b80601f0160208091040260200160405190810160405280929190818152602001828054610b9090612566565b8015610bdb5780601f10610bb257610100808354040283529160200191610bdb565b820191905f5260205f20905b815481529060010190602001808311610bbe57829003601f168201915b505050505090806003018054610bf090612566565b80601f0160208091040260200160405190810160405280929190818152602001828054610c1c90612566565b8015610c675780601f10610c3e57610100808354040283529160200191610c67565b820191905f5260205f20905b815481529060010190602001808311610c4a57829003601f168201915b50505050600483015460059093015491929160ff16905086565b5f82815260208190526040902060010154610c9b81611d90565b610ca58383611e90565b50505050565b6001600160a01b0381163314610cd45760405163334bd91960e11b815260040160405180910390fd5b6108828282611f1f565b60025f8281526001602052604090206005015460ff166004811115610d0557610d05612315565b14610d465760405162461bcd60e51b8152602060048201526011602482015270111a5cdc1d5d19481b9bdd08199bdd5b99607a1b6044820152606401610806565b5f81815260016020819052604090912001546001600160a01b03163303610d7557610d7081611f88565b610d9e565b610d9e7f3b5d4cc60d3ec3516ee8ae083bd60934f6eb2a6c54b1229985c41bfb092b2603611d90565b5f81815260036020526040812081815590610dbc6001830182612112565b610dc9600283015f612112565b50505f818152600160208190526040909120600501805460039260ff1990911690835b0217905550610974816001611144565b610e267f548c7f0307ab2a7ea894e5c7e8c5353cc750bb9385ee2e945f189a9a83daa8ed336112c0565b15610e6b5760405162461bcd60e51b815260206004820152601560248201527414d95b1b195c881a5cc8189b1858dadb1a5cdd1959605a1b6044820152606401610806565b5f8111610eba5760405162461bcd60e51b815260206004820152601c60248201527f5072696365206d7573742062652067726561746572207468616e2030000000006044820152606401610806565b83610eff5760405162461bcd60e51b81526020600482015260156024820152745469746c652063616e6e6f7420626520656d70747960581b6044820152606401610806565b81610f4c5760405162461bcd60e51b815260206004820152601b60248201527f4465736372697074696f6e2063616e6e6f7420626520656d70747900000000006044820152606401610806565b6040805160c0810182523381525f60208083018290528351601f8901829004820281018201855288815291938301919089908990819084018382808284375f92019190915250505090825250604080516020601f8801819004810282018101909252868152918101919087908790819084018382808284375f920182905250938552505050602082018590526040909101525f88815260016020818152604092839020845181546001600160a01b03199081166001600160a01b039283161783559286015193820180549093169316929092179055908201519192508291600282019061103990826125ff565b506060820151600382019061104e90826125ff565b506080820151816004015560a0820151816005015f6101000a81548160ff0219169083600481111561108257611082612315565b0217905550506005546040516303d13c0b60e31b8152336004820152602481018590526001600160a01b039091169150631e89e058906044015f604051808303815f87803b1580156110d2575f80fd5b505af11580156110e4573d5f803e3d5ffd5b50505050600160025f8282546110fa91906126cf565b90915550506040517f4fb1726f546a7c2df9330ef0375a6331aa2f55d13233b4940f90920d9301754590611133908990899089906126e2565b60405180910390a150505050505050565b5f82815260016020526040902080546004909101546001600160a01b03909116908215611202575f826001600160a01b0316826040515f6040518083038185875af1925050503d805f81146111b4576040519150601f19603f3d011682016040523d82523d5f602084013e6111b9565b606091505b50509050806112005760405162461bcd60e51b815260206004820152601360248201527214d85b19481c185e5b595b9d0819985a5b1959606a1b6044820152606401610806565b505b6005546040516303b3117160e11b81526001600160a01b038481166004830152602482018490529091169063076622e2906044015f604051808303815f87803b15801561124d575f80fd5b505af115801561125f573d5f803e3d5ffd5b5050505f858152600160208190526040822080546001600160a01b031990811682559181018054909216909155915061129b6002830182612112565b6112a8600383015f612112565b505f6004820155600501805460ff1916905550505050565b5f918252602082815260408084206001600160a01b0393909316845291905290205460ff1690565b5f81815260016020819052604090912001546001600160a01b031633146113415760405162461bcd60e51b815260206004820152600d60248201526c2737ba103a343290313abcb2b960991b6044820152606401610806565b5f818152600160208190526040909120600501805460039260ff199091169083610dec565b7fa49807205ce4d355092ef5a8a18f56e8913cf4a201fbe287825b095693c2177561139081611d90565b5f828152600160205260409020546001600160a01b03166113eb5760405162461bcd60e51b81526020600482015260156024820152741a5d195b525908191bd95cc81b9bdd08195e1a5cdd605a1b6044820152606401610806565b60015f8381526001602052604090206005015460ff16600481111561141257611412612315565b036114255761142082611d9a565b611463565b60025f8381526001602052604090206005015460ff16600481111561144c5761144c612315565b036114635761145a82611d9a565b61146382611f88565b61146d825f611144565b5f82815260016020526040902054610b2a906001600160a01b031661201b565b611495612149565b5f82815260016020818152604092839020835160c08101855281546001600160a01b039081168252938201549093169183019190915260028101805492939192918401916114e290612566565b80601f016020809104026020016040519081016040528092919081815260200182805461150e90612566565b80156115595780601f1061153057610100808354040283529160200191611559565b820191905f5260205f20905b81548152906001019060200180831161153c57829003601f168201915b5050505050815260200160038201805461157290612566565b80601f016020809104026020016040519081016040528092919081815260200182805461159e90612566565b80156115e95780601f106115c0576101008083540402835291602001916115e9565b820191905f5260205f20905b8154815290600101906020018083116115cc57829003601f168201915b50505091835250506004828101546020830152600583015460409092019160ff169081111561161a5761161a612315565b600481111561162b5761162b612315565b90525092915050565b5f868152600160205260409020546001600160a01b031633146116a55760405162461bcd60e51b815260206004820152602360248201527f4f6e6c79207468652073656c6c65722063616e206d6f64696679207468652073604482015262616c6560e81b6064820152608401610806565b5f8681526001602052604081206005015460ff1660048111156116ca576116ca612315565b146117105760405162461bcd60e51b815260206004820152601660248201527514d85b194818d85b89dd081899481b5bd91a599a595960521b6044820152606401610806565b5f868152600160205260408120600401548210156117a9575f87815260016020526040902060040154611744908390612717565b6005546040516303b3117160e11b8152336004820152602481018390529192506001600160a01b03169063076622e2906044015f604051808303815f87803b15801561178e575f80fd5b505af11580156117a0573d5f803e3d5ffd5b50505050611825565b5f878152600160205260409020600401546117c49083612717565b6005546040516303d13c0b60e31b8152336004820152602481018390529192506001600160a01b031690631e89e058906044015f604051808303815f87803b15801561180e575f80fd5b505af1158015611820573d5f803e3d5ffd5b505050505b5f87815260016020526040902060020161184086888361272a565b505f87815260016020526040902060030161185c84868361272a565b505f8781526001602052604090819020600401839055517fe498c427997a059c76f62dc80c09e284746fb7abf268e673ad2980ec9d1ce21290611133908990899089906126e2565b600481815481106118b3575f80fd5b5f918252602090912001546001600160a01b0316905081565b60036020525f9081526040902080546001820180549192916118ed90612566565b80601f016020809104026020016040519081016040528092919081815260200182805461191990612566565b80156119645780601f1061193b57610100808354040283529160200191611964565b820191905f5260205f20905b81548152906001019060200180831161194757829003601f168201915b50505050509080600201805461197990612566565b80601f01602080910402602001604051908101604052809291908181526020018280546119a590612566565b80156119f05780601f106119c7576101008083540402835291602001916119f0565b820191905f5260205f20905b8154815290600101906020018083116119d357829003601f168201915b5050505050905083565b5f82815260208190526040902060010154611a1481611d90565b610ca58383611f1f565b5f5b600254811015610b2a575f81815260016020526040902054336001600160a01b0390911603611aed57818015611a7857505f8181526001602052604081206005015460ff166004811115611a7657611a76612315565b145b15611a9d575f818152600160205260409020600501805460ff19166004179055611aed565b81158015611acf575060045f8281526001602052604090206005015460ff166004811115611acd57611acd612315565b145b15611aed575f818152600160205260409020600501805460ff191690555b80611af7816127e6565b915050611a20565b5f818152600160205260409020546001600160a01b0316611b5a5760405162461bcd60e51b81526020600482015260156024820152741a5d195b525908191bd95cc81b9bdd08195e1a5cdd605a1b6044820152606401610806565b5f8181526001602052604081206005015460ff166004811115611b7f57611b7f612315565b14611bc45760405162461bcd60e51b8152602060048201526015602482015274125d195b4818d85b9b9bdd08189948189bdd59da1d605a1b6044820152606401610806565b5f81815260016020526040902060040154341015611c245760405162461bcd60e51b815260206004820152601e60248201527f496e636f727265637420616d6f756e74206f662045746865722073656e7400006044820152606401610806565b5f81815260016020819052604090912080820180546001600160a01b03191633179055600501805460ff19168280021790555060408051338152602081018390527fe3d4187f6ca4248660cc0ac8b8056515bac4a8132be2eca31d6d0cc170722a7e91015b60405180910390a150565b5f83815260016020818152604080842090920154600390915291206001600160a01b039091169060028101611cca84868361272a565b506006546040516324ffa41160e01b81526001600160a01b03909116906324ffa41190611d0590889060018601906002870190600401612877565b6020604051808303815f875af1158015611d21573d5f803e3d5ffd5b505050506040513d601f19601f82011682018060405250810190611d4591906128a1565b8155604080516001600160a01b0384168152602081018790527fbd7453469187da17528f45cf1793962104dabbc6d7f267bc42903f77d1a76d1a910160405180910390a15050505050565b61097481336120d9565b5f8181526001602081905260408083206004810154920154905191926001600160a01b0390911691829084908381818185875af1925050503d805f8114611dfc576040519150601f19603f3d011682016040523d82523d5f602084013e611e01565b606091505b5050905080611e485760405162461bcd60e51b815260206004820152601360248201527214d85b19481c185e5b595b9d0819985a5b1959606a1b6044820152606401610806565b604080516001600160a01b0384168152602081018590527fabb9382c3f9ac67dfe9ef9b15126298d48d2652c5fab10d215c59e414caf2b80910160405180910390a150505050565b5f611e9b83836112c0565b611f18575f838152602081815260408083206001600160a01b03861684529091529020805460ff19166001179055611ed03390565b6001600160a01b0316826001600160a01b0316847f2f8788117e7eff1d82e926ec794901d17c78024a50270940304540a733656f0d60405160405180910390a45060016107ae565b505f6107ae565b5f611f2a83836112c0565b15611f18575f838152602081815260408083206001600160a01b0386168085529252808320805460ff1916905551339286917ff6391f5c32d9c69d2a47ea670b442974b53935d1edc7fd64eb21e047a839171b9190a45060016107ae565b5f81815260036020526040908190205460065491516337c0a4d760e21b81526004810182905290916001600160a01b03169063df02935c906024015f604051808303815f87803b158015611fda575f80fd5b505af1158015611fec573d5f803e3d5ffd5b5050505f838152600360205260408120818155915061200e6001830182612112565b610ca5600283015f612112565b6120457f548c7f0307ab2a7ea894e5c7e8c5353cc750bb9385ee2e945f189a9a83daa8ed82610c81565b600554604051630e9973db60e31b81526001600160a01b038381166004830152909116906374cb9ed8906024015f604051808303815f87803b158015612089575f80fd5b505af115801561209b573d5f803e3d5ffd5b50506040516001600160a01b03841681527f3792d06e03cef23745f2e711098be52e90a31d22cb5f39e60d75393ee83412b592506020019050611c89565b6120e382826112c0565b610b2a5760405163e2517d3f60e01b81526001600160a01b038216600482015260248101839052604401610806565b50805461211e90612566565b5f825580601f1061212d575050565b601f0160209004905f5260205f2090810190610974919061219d565b6040518060c001604052805f6001600160a01b031681526020015f6001600160a01b0316815260200160608152602001606081526020015f81526020015f600481111561219857612198612315565b905290565b5b808211156121b1575f815560010161219e565b5090565b5f602082840312156121c5575f80fd5b5035919050565b5f81518084525f5b818110156121f0576020818501810151868301820152016121d4565b505f602082860101526020601f19601f83011685010191505092915050565b60208152815160208201525f60208301516060604084015261223460808401826121cc565b90506040840151601f1984830301606085015261225182826121cc565b95945050505050565b5f6020828403121561226a575f80fd5b81356001600160e01b031981168114612281575f80fd5b9392505050565b5f8083601f840112612298575f80fd5b50813567ffffffffffffffff8111156122af575f80fd5b6020830191508360208285010111156122c6575f80fd5b9250929050565b5f805f604084860312156122df575f80fd5b83359250602084013567ffffffffffffffff8111156122fc575f80fd5b61230886828701612288565b9497909650939450505050565b634e487b7160e01b5f52602160045260245ffd5b6005811061234557634e487b7160e01b5f52602160045260245ffd5b9052565b6001600160a01b0387811682528616602082015260c0604082018190525f90612374908301876121cc565b828103606084015261238681876121cc565b91505083608083015261239c60a0830184612329565b979650505050505050565b5f80604083850312156123b8575f80fd5b8235915060208301356001600160a01b03811681146123d5575f80fd5b809150509250929050565b5f805f805f80608087890312156123f5575f80fd5b86359550602087013567ffffffffffffffff80821115612413575f80fd5b61241f8a838b01612288565b90975095506040890135915080821115612437575f80fd5b5061244489828a01612288565b979a9699509497949695606090950135949350505050565b8035801515811461246b575f80fd5b919050565b5f8060408385031215612481575f80fd5b823591506124916020840161245c565b90509250929050565b602081525f60018060a01b0380845116602084015280602085015116604084015250604083015160c060608401526124d560e08401826121cc565b90506060840151601f198483030160808501526124f282826121cc565b915050608084015160a084015260a084015161251160c0850182612329565b509392505050565b838152606060208201525f61253160608301856121cc565b828103604084015261254381856121cc565b9695505050505050565b5f6020828403121561255d575f80fd5b6122818261245c565b600181811c9082168061257a57607f821691505b60208210810361259857634e487b7160e01b5f52602260045260245ffd5b50919050565b634e487b7160e01b5f52604160045260245ffd5b601f821115610882575f81815260208120601f850160051c810160208610156125d85750805b601f850160051c820191505b818110156125f7578281556001016125e4565b505050505050565b815167ffffffffffffffff8111156126195761261961259e565b61262d816126278454612566565b846125b2565b602080601f831160018114612660575f84156126495750858301515b5f19600386901b1c1916600185901b1785556125f7565b5f85815260208120601f198616915b8281101561268e5788860151825594840194600190910190840161266f565b50858210156126ab57878501515f19600388901b60f8161c191681555b5050505050600190811b01905550565b634e487b7160e01b5f52601160045260245ffd5b808201808211156107ae576107ae6126bb565b83815260406020820152816040820152818360608301375f818301606090810191909152601f909201601f1916010192915050565b818103818111156107ae576107ae6126bb565b67ffffffffffffffff8311156127425761274261259e565b612756836127508354612566565b836125b2565b5f601f841160018114612787575f85156127705750838201355b5f19600387901b1c1916600186901b1783556127df565b5f83815260209020601f19861690835b828110156127b75786850135825560209485019460019092019101612797565b50868210156127d3575f1960f88860031b161c19848701351681555b505060018560011b0183555b5050505050565b5f600182016127f7576127f76126bb565b5060010190565b5f815461280a81612566565b80855260206001838116801561282757600181146128415761286c565b60ff1985168884015283151560051b88018301955061286c565b865f52825f205f5b858110156128645781548a8201860152908301908401612849565b890184019650505b505050505092915050565b838152606060208201525f61288f60608301856127fe565b828103604084015261254381856127fe565b5f602082840312156128b1575f80fd5b505191905056fea26469706673582212204610ab7e617d6cbf83051af5a46eaa1df09fda13e98c0ee8ee78672e1eba21bd64736f6c63430008140033",
    "sourcePath": "/Users/jaimecontreras/Downloads/Proyecto_Final/Proyecto/contracts/iebs_Faillapop_shop.sol",
    "compiler": {
        "name": "solc",
        "version": "0.8.20+commit.a1b79de6"
    },
    "functionHashes": {
        "ADMIN_ROLE()": "75b238fc",
        "BLACKLISTED_ROLE()": "62b199c5",
        "DAO_ROLE()": "e9c26518",
        "DEFAULT_ADMIN_ROLE()": "a217fddf",
        "blacklistedSellers(uint256)": "c2b9cf8d",
        "cancelActiveSale(uint256)": "1d24e299",
        "closeSale(uint256,bool)": "73e07e45",
        "daoContract()": "4a7ffcbc",
        "disputeSale(uint256,string)": "20ca2d27",
        "disputedSaleReply(uint256,string)": "0fa3d7d6",
        "disputed_items(uint256)": "c45379b9",
        "doBuy(uint256)": "fb7c0a3f",
        "endDispute(uint256)": "5187b7a0",
        "getRoleAdmin(bytes32)": "248a9ca3",
        "grantRole(bytes32,address)": "2f2ff15d",
        "hasRole(bytes32,address)": "91d14854",
        "itemReceived(uint256)": "a55dd46b",
        "modifySale(uint256,string,string,uint256)": "ab0378be",
        "newSale(uint256,string,string,uint256)": "704b71ed",
        "offerIndex()": "1f22b677",
        "offered_items(uint256)": "2eaf2054",
        "query_dispute(uint256)": "003a18cf",
        "query_sale(uint256)": "aa8b3745",
        "removeMaliciousSale(uint256)": "a610c298",
        "renounceRole(bytes32,address)": "36568abe",
        "returnItem(uint256)": "223ed1dd",
        "revokeRole(bytes32,address)": "d547741f",
        "setVacationMode(bool)": "d9209de8",
        "supportsInterface(bytes4)": "01ffc9a7",
        "vaultContract()": "2274346b"
    },
    "gasEstimates": {
        "creation": {
            "codeDepositCost": "2095600",
            "executionCost": "infinite",
            "totalCost": "infinite"
        },
        "external": {
            "ADMIN_ROLE()": "284",
            "BLACKLISTED_ROLE()": "305",
            "DAO_ROLE()": "282",
            "DEFAULT_ADMIN_ROLE()": "260",
            "blacklistedSellers(uint256)": "4700",
            "cancelActiveSale(uint256)": "infinite",
            "closeSale(uint256,bool)": "infinite",
            "daoContract()": "2403",
            "disputeSale(uint256,string)": "infinite",
            "disputedSaleReply(uint256,string)": "infinite",
            "disputed_items(uint256)": "infinite",
            "doBuy(uint256)": "56815",
            "endDispute(uint256)": "infinite",
            "getRoleAdmin(bytes32)": "2512",
            "grantRole(bytes32,address)": "infinite",
            "hasRole(bytes32,address)": "2674",
            "itemReceived(uint256)": "infinite",
            "modifySale(uint256,string,string,uint256)": "infinite",
            "newSale(uint256,string,string,uint256)": "infinite",
            "offerIndex()": "2362",
            "offered_items(uint256)": "infinite",
            "query_dispute(uint256)": "infinite",
            "query_sale(uint256)": "infinite",
            "removeMaliciousSale(uint256)": "infinite",
            "renounceRole(bytes32,address)": "29033",
            "returnItem(uint256)": "infinite",
            "revokeRole(bytes32,address)": "infinite",
            "setVacationMode(bool)": "infinite",
            "supportsInterface(bytes4)": "503",
            "vaultContract()": "2382"
        },
        "internal": {
            "blacklist(address)": "infinite",
            "closeDispute(uint256)": "infinite",
            "openDispute(uint256,string calldata)": "infinite",
            "reimburse(uint256)": "infinite"
        }
    }
}