{
    "contractName": "FP_Token",
    "abi": [
        {
            "inputs": [],
            "stateMutability": "nonpayable",
            "type": "constructor"
        },
        {
            "inputs": [],
            "name": "AccessControlBadConfirmation",
            "type": "error"
        },
        {
            "inputs": [
                {
                    "internalType": "address",
                    "name": "account",
                    "type": "address"
                },
                {
                    "internalType": "bytes32",
                    "name": "neededRole",
                    "type": "bytes32"
                }
            ],
            "name": "AccessControlUnauthorizedAccount",
            "type": "error"
        },
        {
            "inputs": [
                {
                    "internalType": "address",
                    "name": "spender",
                    "type": "address"
                },
                {
                    "internalType": "uint256",
                    "name": "allowance",
                    "type": "uint256"
                },
                {
                    "internalType": "uint256",
                    "name": "needed",
                    "type": "uint256"
                }
            ],
            "name": "ERC20InsufficientAllowance",
            "type": "error"
        },
        {
            "inputs": [
                {
                    "internalType": "address",
                    "name": "sender",
                    "type": "address"
                },
                {
                    "internalType": "uint256",
                    "name": "balance",
                    "type": "uint256"
                },
                {
                    "internalType": "uint256",
                    "name": "needed",
                    "type": "uint256"
                }
            ],
            "name": "ERC20InsufficientBalance",
            "type": "error"
        },
        {
            "inputs": [
                {
                    "internalType": "address",
                    "name": "approver",
                    "type": "address"
                }
            ],
            "name": "ERC20InvalidApprover",
            "type": "error"
        },
        {
            "inputs": [
                {
                    "internalType": "address",
                    "name": "receiver",
                    "type": "address"
                }
            ],
            "name": "ERC20InvalidReceiver",
            "type": "error"
        },
        {
            "inputs": [
                {
                    "internalType": "address",
                    "name": "sender",
                    "type": "address"
                }
            ],
            "name": "ERC20InvalidSender",
            "type": "error"
        },
        {
            "inputs": [
                {
                    "internalType": "address",
                    "name": "spender",
                    "type": "address"
                }
            ],
            "name": "ERC20InvalidSpender",
            "type": "error"
        },
        {
            "inputs": [],
            "name": "EnforcedPause",
            "type": "error"
        },
        {
            "inputs": [],
            "name": "ExpectedPause",
            "type": "error"
        },
        {
            "anonymous": false,
            "inputs": [
                {
                    "indexed": true,
                    "internalType": "address",
                    "name": "owner",
                    "type": "address"
                },
                {
                    "indexed": true,
                    "internalType": "address",
                    "name": "spender",
                    "type": "address"
                },
                {
                    "indexed": false,
                    "internalType": "uint256",
                    "name": "value",
                    "type": "uint256"
                }
            ],
            "name": "Approval",
            "type": "event"
        },
        {
            "anonymous": false,
            "inputs": [
                {
                    "indexed": false,
                    "internalType": "address",
                    "name": "account",
                    "type": "address"
                }
            ],
            "name": "Paused",
            "type": "event"
        },
        {
            "anonymous": false,
            "inputs": [
                {
                    "indexed": true,
                    "internalType": "bytes32",
                    "name": "role",
                    "type": "bytes32"
                },
                {
                    "indexed": true,
                    "internalType": "bytes32",
                    "name": "previousAdminRole",
                    "type": "bytes32"
                },
                {
                    "indexed": true,
                    "internalType": "bytes32",
                    "name": "newAdminRole",
                    "type": "bytes32"
                }
            ],
            "name": "RoleAdminChanged",
            "type": "event"
        },
        {
            "anonymous": false,
            "inputs": [
                {
                    "indexed": true,
                    "internalType": "bytes32",
                    "name": "role",
                    "type": "bytes32"
                },
                {
                    "indexed": true,
                    "internalType": "address",
                    "name": "account",
                    "type": "address"
                },
                {
                    "indexed": true,
                    "internalType": "address",
                    "name": "sender",
                    "type": "address"
                }
            ],
            "name": "RoleGranted",
            "type": "event"
        },
        {
            "anonymous": false,
            "inputs": [
                {
                    "indexed": true,
                    "internalType": "bytes32",
                    "name": "role",
                    "type": "bytes32"
                },
                {
                    "indexed": true,
                    "internalType": "address",
                    "name": "account",
                    "type": "address"
                },
                {
                    "indexed": true,
                    "internalType": "address",
                    "name": "sender",
                    "type": "address"
                }
            ],
            "name": "RoleRevoked",
            "type": "event"
        },
        {
            "anonymous": false,
            "inputs": [
                {
                    "indexed": true,
                    "internalType": "address",
                    "name": "from",
                    "type": "address"
                },
                {
                    "indexed": true,
                    "internalType": "address",
                    "name": "to",
                    "type": "address"
                },
                {
                    "indexed": false,
                    "internalType": "uint256",
                    "name": "value",
                    "type": "uint256"
                }
            ],
            "name": "Transfer",
            "type": "event"
        },
        {
            "anonymous": false,
            "inputs": [
                {
                    "indexed": false,
                    "internalType": "address",
                    "name": "account",
                    "type": "address"
                }
            ],
            "name": "Unpaused",
            "type": "event"
        },
        {
            "inputs": [],
            "name": "DEFAULT_ADMIN_ROLE",
            "outputs": [
                {
                    "internalType": "bytes32",
                    "name": "",
                    "type": "bytes32"
                }
            ],
            "stateMutability": "view",
            "type": "function"
        },
        {
            "inputs": [],
            "name": "MINTER_ROLE",
            "outputs": [
                {
                    "internalType": "bytes32",
                    "name": "",
                    "type": "bytes32"
                }
            ],
            "stateMutability": "view",
            "type": "function"
        },
        {
            "inputs": [],
            "name": "PAUSER_ROLE",
            "outputs": [
                {
                    "internalType": "bytes32",
                    "name": "",
                    "type": "bytes32"
                }
            ],
            "stateMutability": "view",
            "type": "function"
        },
        {
            "inputs": [
                {
                    "internalType": "address",
                    "name": "owner",
                    "type": "address"
                },
                {
                    "internalType": "address",
                    "name": "spender",
                    "type": "address"
                }
            ],
            "name": "allowance",
            "outputs": [
                {
                    "internalType": "uint256",
                    "name": "",
                    "type": "uint256"
                }
            ],
            "stateMutability": "view",
            "type": "function"
        },
        {
            "inputs": [
                {
                    "internalType": "address",
                    "name": "spender",
                    "type": "address"
                },
                {
                    "internalType": "uint256",
                    "name": "value",
                    "type": "uint256"
                }
            ],
            "name": "approve",
            "outputs": [
                {
                    "internalType": "bool",
                    "name": "",
                    "type": "bool"
                }
            ],
            "stateMutability": "nonpayable",
            "type": "function"
        },
        {
            "inputs": [
                {
                    "internalType": "address",
                    "name": "account",
                    "type": "address"
                }
            ],
            "name": "balanceOf",
            "outputs": [
                {
                    "internalType": "uint256",
                    "name": "",
                    "type": "uint256"
                }
            ],
            "stateMutability": "view",
            "type": "function"
        },
        {
            "inputs": [
                {
                    "internalType": "uint256",
                    "name": "value",
                    "type": "uint256"
                }
            ],
            "name": "burn",
            "outputs": [],
            "stateMutability": "nonpayable",
            "type": "function"
        },
        {
            "inputs": [
                {
                    "internalType": "address",
                    "name": "account",
                    "type": "address"
                },
                {
                    "internalType": "uint256",
                    "name": "value",
                    "type": "uint256"
                }
            ],
            "name": "burnFrom",
            "outputs": [],
            "stateMutability": "nonpayable",
            "type": "function"
        },
        {
            "inputs": [],
            "name": "decimals",
            "outputs": [
                {
                    "internalType": "uint8",
                    "name": "",
                    "type": "uint8"
                }
            ],
            "stateMutability": "view",
            "type": "function"
        },
        {
            "inputs": [
                {
                    "internalType": "bytes32",
                    "name": "role",
                    "type": "bytes32"
                }
            ],
            "name": "getRoleAdmin",
            "outputs": [
                {
                    "internalType": "bytes32",
                    "name": "",
                    "type": "bytes32"
                }
            ],
            "stateMutability": "view",
            "type": "function"
        },
        {
            "inputs": [
                {
                    "internalType": "bytes32",
                    "name": "role",
                    "type": "bytes32"
                },
                {
                    "internalType": "address",
                    "name": "account",
                    "type": "address"
                }
            ],
            "name": "grantRole",
            "outputs": [],
            "stateMutability": "nonpayable",
            "type": "function"
        },
        {
            "inputs": [
                {
                    "internalType": "bytes32",
                    "name": "role",
                    "type": "bytes32"
                },
                {
                    "internalType": "address",
                    "name": "account",
                    "type": "address"
                }
            ],
            "name": "hasRole",
            "outputs": [
                {
                    "internalType": "bool",
                    "name": "",
                    "type": "bool"
                }
            ],
            "stateMutability": "view",
            "type": "function"
        },
        {
            "inputs": [
                {
                    "internalType": "address",
                    "name": "to",
                    "type": "address"
                },
                {
                    "internalType": "uint256",
                    "name": "amount",
                    "type": "uint256"
                }
            ],
            "name": "mint",
            "outputs": [],
            "stateMutability": "nonpayable",
            "type": "function"
        },
        {
            "inputs": [],
            "name": "name",
            "outputs": [
                {
                    "internalType": "string",
                    "name": "",
                    "type": "string"
                }
            ],
            "stateMutability": "view",
            "type": "function"
        },
        {
            "inputs": [],
            "name": "pause",
            "outputs": [],
            "stateMutability": "nonpayable",
            "type": "function"
        },
        {
            "inputs": [],
            "name": "paused",
            "outputs": [
                {
                    "internalType": "bool",
                    "name": "",
                    "type": "bool"
                }
            ],
            "stateMutability": "view",
            "type": "function"
        },
        {
            "inputs": [
                {
                    "internalType": "bytes32",
                    "name": "role",
                    "type": "bytes32"
                },
                {
                    "internalType": "address",
                    "name": "callerConfirmation",
                    "type": "address"
                }
            ],
            "name": "renounceRole",
            "outputs": [],
            "stateMutability": "nonpayable",
            "type": "function"
        },
        {
            "inputs": [
                {
                    "internalType": "bytes32",
                    "name": "role",
                    "type": "bytes32"
                },
                {
                    "internalType": "address",
                    "name": "account",
                    "type": "address"
                }
            ],
            "name": "revokeRole",
            "outputs": [],
            "stateMutability": "nonpayable",
            "type": "function"
        },
        {
            "inputs": [
                {
                    "internalType": "bytes4",
                    "name": "interfaceId",
                    "type": "bytes4"
                }
            ],
            "name": "supportsInterface",
            "outputs": [
                {
                    "internalType": "bool",
                    "name": "",
                    "type": "bool"
                }
            ],
            "stateMutability": "view",
            "type": "function"
        },
        {
            "inputs": [],
            "name": "symbol",
            "outputs": [
                {
                    "internalType": "string",
                    "name": "",
                    "type": "string"
                }
            ],
            "stateMutability": "view",
            "type": "function"
        },
        {
            "inputs": [],
            "name": "totalSupply",
            "outputs": [
                {
                    "internalType": "uint256",
                    "name": "",
                    "type": "uint256"
                }
            ],
            "stateMutability": "view",
            "type": "function"
        },
        {
            "inputs": [
                {
                    "internalType": "address",
                    "name": "to",
                    "type": "address"
                },
                {
                    "internalType": "uint256",
                    "name": "value",
                    "type": "uint256"
                }
            ],
            "name": "transfer",
            "outputs": [
                {
                    "internalType": "bool",
                    "name": "",
                    "type": "bool"
                }
            ],
            "stateMutability": "nonpayable",
            "type": "function"
        },
        {
            "inputs": [
                {
                    "internalType": "address",
                    "name": "from",
                    "type": "address"
                },
                {
                    "internalType": "address",
                    "name": "to",
                    "type": "address"
                },
                {
                    "internalType": "uint256",
                    "name": "value",
                    "type": "uint256"
                }
            ],
            "name": "transferFrom",
            "outputs": [
                {
                    "internalType": "bool",
                    "name": "",
                    "type": "bool"
                }
            ],
            "stateMutability": "nonpayable",
            "type": "function"
        },
        {
            "inputs": [],
            "name": "unpause",
            "outputs": [],
            "stateMutability": "nonpayable",
            "type": "function"
        }
    ],
    "bytecode": "608060405234801562000010575f80fd5b506040518060400160405280600f81526020016e2330b4b63630a837b8102a37b5b2b760891b8152506040518060400160405280600381526020016211941560ea1b8152508160039081620000669190620003d6565b506004620000758282620003d6565b50506005805460ff19169055506200008e5f3362000117565b50620000bb7f65d7a28e3265b37a6474929f336521b332c1681b933f6cb9f3376673440d862a3362000117565b50620000e433620000cf6012600a620005ab565b620000de90620f4240620005c2565b620001c7565b620001107f9f2df0fed2c77648de5860a4cc508cd0818c85b8b8a1ab4ceeef8d981c8956a63362000117565b50620005f2565b5f8281526006602090815260408083206001600160a01b038516845290915281205460ff16620001be575f8381526006602090815260408083206001600160a01b03861684529091529020805460ff19166001179055620001753390565b6001600160a01b0316826001600160a01b0316847f2f8788117e7eff1d82e926ec794901d17c78024a50270940304540a733656f0d60405160405180910390a4506001620001c1565b505f5b92915050565b6001600160a01b038216620001f65760405163ec442f0560e01b81525f60048201526024015b60405180910390fd5b620002035f838362000207565b5050565b6001600160a01b03831662000235578060025f828254620002299190620005dc565b90915550620002a79050565b6001600160a01b0383165f9081526020819052604090205481811015620002895760405163391434e360e21b81526001600160a01b03851660048201526024810182905260448101839052606401620001ed565b6001600160a01b0384165f9081526020819052604090209082900390555b6001600160a01b038216620002c557600280548290039055620002e3565b6001600160a01b0382165f9081526020819052604090208054820190555b816001600160a01b0316836001600160a01b03167fddf252ad1be2c89b69c2b068fc378daa952ba7f163c4a11628f55a4df523b3ef836040516200032991815260200190565b60405180910390a3505050565b634e487b7160e01b5f52604160045260245ffd5b600181811c908216806200035f57607f821691505b6020821081036200037e57634e487b7160e01b5f52602260045260245ffd5b50919050565b601f821115620003d1575f81815260208120601f850160051c81016020861015620003ac5750805b601f850160051c820191505b81811015620003cd57828155600101620003b8565b5050505b505050565b81516001600160401b03811115620003f257620003f262000336565b6200040a816200040384546200034a565b8462000384565b602080601f83116001811462000440575f8415620004285750858301515b5f19600386901b1c1916600185901b178555620003cd565b5f85815260208120601f198616915b8281101562000470578886015182559484019460019091019084016200044f565b50858210156200048e57878501515f19600388901b60f8161c191681555b5050505050600190811b01905550565b634e487b7160e01b5f52601160045260245ffd5b600181815b80851115620004f257815f1904821115620004d657620004d66200049e565b80851615620004e457918102915b93841c9390800290620004b7565b509250929050565b5f826200050a57506001620001c1565b816200051857505f620001c1565b81600181146200053157600281146200053c576200055c565b6001915050620001c1565b60ff8411156200055057620005506200049e565b50506001821b620001c1565b5060208310610133831016604e8410600b841016171562000581575081810a620001c1565b6200058d8383620004b2565b805f1904821115620005a357620005a36200049e565b029392505050565b5f620005bb60ff841683620004fa565b9392505050565b8082028115828204841417620001c157620001c16200049e565b80820180821115620001c157620001c16200049e565b610d5880620006005f395ff3fe608060405234801561000f575f80fd5b5060043610610153575f3560e01c80635c975abb116100bf578063a217fddf11610079578063a217fddf146102bc578063a9059cbb146102c3578063d5391393146102d6578063d547741f146102fd578063dd62ed3e14610310578063e63ab1e914610348575f80fd5b80635c975abb1461025357806370a082311461025e57806379cc6790146102865780638456cb591461029957806391d14854146102a157806395d89b41146102b4575f80fd5b80632f2ff15d116101105780632f2ff15d146101ee578063313ce5671461020357806336568abe146102125780633f4ba83a1461022557806340c10f191461022d57806342966c6814610240575f80fd5b806301ffc9a71461015757806306fdde031461017f578063095ea7b31461019457806318160ddd146101a757806323b872dd146101b9578063248a9ca3146101cc575b5f80fd5b61016a610165366004610b54565b61036f565b60405190151581526020015b60405180910390f35b6101876103a5565b6040516101769190610b82565b61016a6101a2366004610be8565b610435565b6002545b604051908152602001610176565b61016a6101c7366004610c10565b61044c565b6101ab6101da366004610c49565b5f9081526006602052604090206001015490565b6102016101fc366004610c60565b61046f565b005b60405160128152602001610176565b610201610220366004610c60565b610499565b6102016104d1565b61020161023b366004610be8565b610506565b61020161024e366004610c49565b61053a565b60055460ff1661016a565b6101ab61026c366004610c8a565b6001600160a01b03165f9081526020819052604090205490565b610201610294366004610be8565b610544565b61020161055d565b61016a6102af366004610c60565b61058f565b6101876105b9565b6101ab5f81565b61016a6102d1366004610be8565b6105c8565b6101ab7f9f2df0fed2c77648de5860a4cc508cd0818c85b8b8a1ab4ceeef8d981c8956a681565b61020161030b366004610c60565b6105d5565b6101ab61031e366004610ca3565b6001600160a01b039182165f90815260016020908152604080832093909416825291909152205490565b6101ab7f65d7a28e3265b37a6474929f336521b332c1681b933f6cb9f3376673440d862a81565b5f6001600160e01b03198216637965db0b60e01b148061039f57506301ffc9a760e01b6001600160e01b03198316145b92915050565b6060600380546103b490610ccb565b80601f01602080910402602001604051908101604052809291908181526020018280546103e090610ccb565b801561042b5780601f106104025761010080835404028352916020019161042b565b820191905f5260205f20905b81548152906001019060200180831161040e57829003601f168201915b5050505050905090565b5f336104428185856105f9565b5060019392505050565b5f33610459858285610606565b610464858585610680565b506001949350505050565b5f82815260066020526040902060010154610489816106dd565b61049383836106e7565b50505050565b6001600160a01b03811633146104c25760405163334bd91960e11b815260040160405180910390fd5b6104cc8282610778565b505050565b7f65d7a28e3265b37a6474929f336521b332c1681b933f6cb9f3376673440d862a6104fb816106dd565b6105036107e3565b50565b7f9f2df0fed2c77648de5860a4cc508cd0818c85b8b8a1ab4ceeef8d981c8956a6610530816106dd565b6104cc8383610835565b6105033382610869565b61054f823383610606565b6105598282610869565b5050565b7f65d7a28e3265b37a6474929f336521b332c1681b933f6cb9f3376673440d862a610587816106dd565b61050361089d565b5f9182526006602090815260408084206001600160a01b0393909316845291905290205460ff1690565b6060600480546103b490610ccb565b5f33610442818585610680565b5f828152600660205260409020600101546105ef816106dd565b6104938383610778565b6104cc83838360016108da565b6001600160a01b038381165f908152600160209081526040808320938616835292905220545f198114610493578181101561067257604051637dc7a0d960e11b81526001600160a01b038416600482015260248101829052604481018390526064015b60405180910390fd5b61049384848484035f6108da565b6001600160a01b0383166106a957604051634b637e8f60e11b81525f6004820152602401610669565b6001600160a01b0382166106d25760405163ec442f0560e01b81525f6004820152602401610669565b6104cc8383836109ac565b6105038133610ad2565b5f6106f2838361058f565b610771575f8381526006602090815260408083206001600160a01b03861684529091529020805460ff191660011790556107293390565b6001600160a01b0316826001600160a01b0316847f2f8788117e7eff1d82e926ec794901d17c78024a50270940304540a733656f0d60405160405180910390a450600161039f565b505f61039f565b5f610783838361058f565b15610771575f8381526006602090815260408083206001600160a01b0386168085529252808320805460ff1916905551339286917ff6391f5c32d9c69d2a47ea670b442974b53935d1edc7fd64eb21e047a839171b9190a450600161039f565b6107eb610b0b565b6005805460ff191690557f5db9ee0a495bf2e6ff9c91a7834c1ba4fdd244a5e8aa4e537bd38aeae4b073aa335b6040516001600160a01b03909116815260200160405180910390a1565b6001600160a01b03821661085e5760405163ec442f0560e01b81525f6004820152602401610669565b6105595f83836109ac565b6001600160a01b03821661089257604051634b637e8f60e11b81525f6004820152602401610669565b610559825f836109ac565b6108a5610b30565b6005805460ff191660011790557f62e78cea01bee320cd4e420270b5ea74000d11b0c9f74754ebdbfc544b05a2586108183390565b6001600160a01b0384166109035760405163e602df0560e01b81525f6004820152602401610669565b6001600160a01b03831661092c57604051634a1406b160e11b81525f6004820152602401610669565b6001600160a01b038085165f908152600160209081526040808320938716835292905220829055801561049357826001600160a01b0316846001600160a01b03167f8c5be1e5ebec7d5bd14f71427d1e84f3dd0314c0f7b2291e5b200ac8c7c3b9258460405161099e91815260200190565b60405180910390a350505050565b6001600160a01b0383166109d6578060025f8282546109cb9190610d03565b90915550610a469050565b6001600160a01b0383165f9081526020819052604090205481811015610a285760405163391434e360e21b81526001600160a01b03851660048201526024810182905260448101839052606401610669565b6001600160a01b0384165f9081526020819052604090209082900390555b6001600160a01b038216610a6257600280548290039055610a80565b6001600160a01b0382165f9081526020819052604090208054820190555b816001600160a01b0316836001600160a01b03167fddf252ad1be2c89b69c2b068fc378daa952ba7f163c4a11628f55a4df523b3ef83604051610ac591815260200190565b60405180910390a3505050565b610adc828261058f565b6105595760405163e2517d3f60e01b81526001600160a01b038216600482015260248101839052604401610669565b60055460ff16610b2e57604051638dfc202b60e01b815260040160405180910390fd5b565b60055460ff1615610b2e5760405163d93c066560e01b815260040160405180910390fd5b5f60208284031215610b64575f80fd5b81356001600160e01b031981168114610b7b575f80fd5b9392505050565b5f6020808352835180828501525f5b81811015610bad57858101830151858201604001528201610b91565b505f604082860101526040601f19601f8301168501019250505092915050565b80356001600160a01b0381168114610be3575f80fd5b919050565b5f8060408385031215610bf9575f80fd5b610c0283610bcd565b946020939093013593505050565b5f805f60608486031215610c22575f80fd5b610c2b84610bcd565b9250610c3960208501610bcd565b9150604084013590509250925092565b5f60208284031215610c59575f80fd5b5035919050565b5f8060408385031215610c71575f80fd5b82359150610c8160208401610bcd565b90509250929050565b5f60208284031215610c9a575f80fd5b610b7b82610bcd565b5f8060408385031215610cb4575f80fd5b610cbd83610bcd565b9150610c8160208401610bcd565b600181811c90821680610cdf57607f821691505b602082108103610cfd57634e487b7160e01b5f52602260045260245ffd5b50919050565b8082018082111561039f57634e487b7160e01b5f52601160045260245ffdfea2646970667358221220c7327790d1c52c4c54b39a415625d173eafaa83d12e3eba7ddcd9381361e2b3864736f6c63430008140033",
    "sourcePath": "/Users/jaimecontreras/Downloads/Proyecto_Final/Proyecto/contracts/iebs_Faillapop_ERC20.sol",
    "compiler": {
        "name": "solc",
        "version": "0.8.20+commit.a1b79de6"
    },
    "functionHashes": {
        "DEFAULT_ADMIN_ROLE()": "a217fddf",
        "MINTER_ROLE()": "d5391393",
        "PAUSER_ROLE()": "e63ab1e9",
        "allowance(address,address)": "dd62ed3e",
        "approve(address,uint256)": "095ea7b3",
        "balanceOf(address)": "70a08231",
        "burn(uint256)": "42966c68",
        "burnFrom(address,uint256)": "79cc6790",
        "decimals()": "313ce567",
        "getRoleAdmin(bytes32)": "248a9ca3",
        "grantRole(bytes32,address)": "2f2ff15d",
        "hasRole(bytes32,address)": "91d14854",
        "mint(address,uint256)": "40c10f19",
        "name()": "06fdde03",
        "pause()": "8456cb59",
        "paused()": "5c975abb",
        "renounceRole(bytes32,address)": "36568abe",
        "revokeRole(bytes32,address)": "d547741f",
        "supportsInterface(bytes4)": "01ffc9a7",
        "symbol()": "95d89b41",
        "totalSupply()": "18160ddd",
        "transfer(address,uint256)": "a9059cbb",
        "transferFrom(address,address,uint256)": "23b872dd",
        "unpause()": "3f4ba83a"
    },
    "gasEstimates": {
        "creation": {
            "codeDepositCost": "683200",
            "executionCost": "infinite",
            "totalCost": "infinite"
        },
        "external": {
            "DEFAULT_ADMIN_ROLE()": "215",
            "MINTER_ROLE()": "260",
            "PAUSER_ROLE()": "326",
            "allowance(address,address)": "infinite",
            "approve(address,uint256)": "24765",
            "balanceOf(address)": "2582",
            "burn(uint256)": "51049",
            "burnFrom(address,uint256)": "infinite",
            "decimals()": "221",
            "getRoleAdmin(bytes32)": "2575",
            "grantRole(bytes32,address)": "infinite",
            "hasRole(bytes32,address)": "2762",
            "mint(address,uint256)": "infinite",
            "name()": "infinite",
            "pause()": "infinite",
            "paused()": "2315",
            "renounceRole(bytes32,address)": "29091",
            "revokeRole(bytes32,address)": "infinite",
            "supportsInterface(bytes4)": "447",
            "symbol()": "infinite",
            "totalSupply()": "2370",
            "transfer(address,uint256)": "51245",
            "transferFrom(address,address,uint256)": "infinite",
            "unpause()": "infinite"
        },
        "internal": {
            "_beforeTokenTransfer(address,address,uint256)": "infinite"
        }
    }
}