{
    "contractName": "FP_Vault",
    "abi": [
        {
            "inputs": [
                {
                    "internalType": "address",
                    "name": "token",
                    "type": "address"
                },
                {
                    "internalType": "address",
                    "name": "shop",
                    "type": "address"
                },
                {
                    "internalType": "address",
                    "name": "dao",
                    "type": "address"
                }
            ],
            "stateMutability": "nonpayable",
            "type": "constructor"
        },
        {
            "inputs": [],
            "name": "AccessControlBadConfirmation",
            "type": "error"
        },
        {
            "inputs": [
                {
                    "internalType": "address",
                    "name": "account",
                    "type": "address"
                },
                {
                    "internalType": "bytes32",
                    "name": "neededRole",
                    "type": "bytes32"
                }
            ],
            "name": "AccessControlUnauthorizedAccount",
            "type": "error"
        },
        {
            "anonymous": false,
            "inputs": [
                {
                    "indexed": false,
                    "internalType": "address",
                    "name": "user",
                    "type": "address"
                },
                {
                    "indexed": false,
                    "internalType": "uint256",
                    "name": "amount",
                    "type": "uint256"
                }
            ],
            "name": "Locked",
            "type": "event"
        },
        {
            "anonymous": false,
            "inputs": [
                {
                    "indexed": false,
                    "internalType": "address",
                    "name": "shop",
                    "type": "address"
                },
                {
                    "indexed": false,
                    "internalType": "address",
                    "name": "dao",
                    "type": "address"
                },
                {
                    "indexed": false,
                    "internalType": "address",
                    "name": "nft",
                    "type": "address"
                }
            ],
            "name": "NewConfig",
            "type": "event"
        },
        {
            "anonymous": false,
            "inputs": [
                {
                    "indexed": false,
                    "internalType": "address",
                    "name": "user",
                    "type": "address"
                },
                {
                    "indexed": false,
                    "internalType": "uint256",
                    "name": "amount",
                    "type": "uint256"
                }
            ],
            "name": "RewardsClaimed",
            "type": "event"
        },
        {
            "anonymous": false,
            "inputs": [
                {
                    "indexed": true,
                    "internalType": "bytes32",
                    "name": "role",
                    "type": "bytes32"
                },
                {
                    "indexed": true,
                    "internalType": "bytes32",
                    "name": "previousAdminRole",
                    "type": "bytes32"
                },
                {
                    "indexed": true,
                    "internalType": "bytes32",
                    "name": "newAdminRole",
                    "type": "bytes32"
                }
            ],
            "name": "RoleAdminChanged",
            "type": "event"
        },
        {
            "anonymous": false,
            "inputs": [
                {
                    "indexed": true,
                    "internalType": "bytes32",
                    "name": "role",
                    "type": "bytes32"
                },
                {
                    "indexed": true,
                    "internalType": "address",
                    "name": "account",
                    "type": "address"
                },
                {
                    "indexed": true,
                    "internalType": "address",
                    "name": "sender",
                    "type": "address"
                }
            ],
            "name": "RoleGranted",
            "type": "event"
        },
        {
            "anonymous": false,
            "inputs": [
                {
                    "indexed": true,
                    "internalType": "bytes32",
                    "name": "role",
                    "type": "bytes32"
                },
                {
                    "indexed": true,
                    "internalType": "address",
                    "name": "account",
                    "type": "address"
                },
                {
                    "indexed": true,
                    "internalType": "address",
                    "name": "sender",
                    "type": "address"
                }
            ],
            "name": "RoleRevoked",
            "type": "event"
        },
        {
            "anonymous": false,
            "inputs": [
                {
                    "indexed": false,
                    "internalType": "address",
                    "name": "user",
                    "type": "address"
                },
                {
                    "indexed": false,
                    "internalType": "uint256",
                    "name": "amount",
                    "type": "uint256"
                }
            ],
            "name": "Slashed",
            "type": "event"
        },
        {
            "anonymous": false,
            "inputs": [
                {
                    "indexed": false,
                    "internalType": "address",
                    "name": "user",
                    "type": "address"
                },
                {
                    "indexed": false,
                    "internalType": "uint256",
                    "name": "amount",
                    "type": "uint256"
                }
            ],
            "name": "Stake",
            "type": "event"
        },
        {
            "anonymous": false,
            "inputs": [
                {
                    "indexed": false,
                    "internalType": "address",
                    "name": "user",
                    "type": "address"
                },
                {
                    "indexed": false,
                    "internalType": "uint256",
                    "name": "amount",
                    "type": "uint256"
                }
            ],
            "name": "Unlocked",
            "type": "event"
        },
        {
            "anonymous": false,
            "inputs": [
                {
                    "indexed": false,
                    "internalType": "address",
                    "name": "user",
                    "type": "address"
                },
                {
                    "indexed": false,
                    "internalType": "uint256",
                    "name": "amount",
                    "type": "uint256"
                }
            ],
            "name": "Unstake",
            "type": "event"
        },
        {
            "inputs": [],
            "name": "DEFAULT_ADMIN_ROLE",
            "outputs": [
                {
                    "internalType": "bytes32",
                    "name": "",
                    "type": "bytes32"
                }
            ],
            "stateMutability": "view",
            "type": "function"
        },
        {
            "inputs": [
                {
                    "internalType": "address",
                    "name": "",
                    "type": "address"
                }
            ],
            "name": "balance",
            "outputs": [
                {
                    "internalType": "uint256",
                    "name": "",
                    "type": "uint256"
                }
            ],
            "stateMutability": "view",
            "type": "function"
        },
        {
            "inputs": [],
            "name": "claimRewards",
            "outputs": [],
            "stateMutability": "nonpayable",
            "type": "function"
        },
        {
            "inputs": [],
            "name": "daoContract",
            "outputs": [
                {
                    "internalType": "contract IFP_DAO",
                    "name": "",
                    "type": "address"
                }
            ],
            "stateMutability": "view",
            "type": "function"
        },
        {
            "inputs": [
                {
                    "internalType": "address",
                    "name": "user",
                    "type": "address"
                },
                {
                    "internalType": "uint256",
                    "name": "amount",
                    "type": "uint256"
                }
            ],
            "name": "doLock",
            "outputs": [],
            "stateMutability": "nonpayable",
            "type": "function"
        },
        {
            "inputs": [
                {
                    "internalType": "address",
                    "name": "badUser",
                    "type": "address"
                }
            ],
            "name": "doSlash",
            "outputs": [],
            "stateMutability": "nonpayable",
            "type": "function"
        },
        {
            "inputs": [],
            "name": "doStake",
            "outputs": [],
            "stateMutability": "payable",
            "type": "function"
        },
        {
            "inputs": [
                {
                    "internalType": "address",
                    "name": "user",
                    "type": "address"
                },
                {
                    "internalType": "uint256",
                    "name": "amount",
                    "type": "uint256"
                }
            ],
            "name": "doUnlock",
            "outputs": [],
            "stateMutability": "nonpayable",
            "type": "function"
        },
        {
            "inputs": [
                {
                    "internalType": "uint256",
                    "name": "amount",
                    "type": "uint256"
                }
            ],
            "name": "doUnstake",
            "outputs": [],
            "stateMutability": "nonpayable",
            "type": "function"
        },
        {
            "inputs": [
                {
                    "internalType": "bytes32",
                    "name": "role",
                    "type": "bytes32"
                }
            ],
            "name": "getRoleAdmin",
            "outputs": [
                {
                    "internalType": "bytes32",
                    "name": "",
                    "type": "bytes32"
                }
            ],
            "stateMutability": "view",
            "type": "function"
        },
        {
            "inputs": [
                {
                    "internalType": "bytes32",
                    "name": "role",
                    "type": "bytes32"
                },
                {
                    "internalType": "address",
                    "name": "account",
                    "type": "address"
                }
            ],
            "name": "grantRole",
            "outputs": [],
            "stateMutability": "nonpayable",
            "type": "function"
        },
        {
            "inputs": [
                {
                    "internalType": "bytes32",
                    "name": "role",
                    "type": "bytes32"
                },
                {
                    "internalType": "address",
                    "name": "account",
                    "type": "address"
                }
            ],
            "name": "hasRole",
            "outputs": [
                {
                    "internalType": "bool",
                    "name": "",
                    "type": "bool"
                }
            ],
            "stateMutability": "view",
            "type": "function"
        },
        {
            "inputs": [
                {
                    "internalType": "address",
                    "name": "",
                    "type": "address"
                }
            ],
            "name": "lockedFunds",
            "outputs": [
                {
                    "internalType": "uint256",
                    "name": "",
                    "type": "uint256"
                }
            ],
            "stateMutability": "view",
            "type": "function"
        },
        {
            "inputs": [],
            "name": "max_claimable_amount",
            "outputs": [
                {
                    "internalType": "uint256",
                    "name": "",
                    "type": "uint256"
                }
            ],
            "stateMutability": "view",
            "type": "function"
        },
        {
            "inputs": [],
            "name": "nftContract",
            "outputs": [
                {
                    "internalType": "address",
                    "name": "",
                    "type": "address"
                }
            ],
            "stateMutability": "view",
            "type": "function"
        },
        {
            "inputs": [
                {
                    "internalType": "bytes32",
                    "name": "role",
                    "type": "bytes32"
                },
                {
                    "internalType": "address",
                    "name": "callerConfirmation",
                    "type": "address"
                }
            ],
            "name": "renounceRole",
            "outputs": [],
            "stateMutability": "nonpayable",
            "type": "function"
        },
        {
            "inputs": [
                {
                    "internalType": "bytes32",
                    "name": "role",
                    "type": "bytes32"
                },
                {
                    "internalType": "address",
                    "name": "account",
                    "type": "address"
                }
            ],
            "name": "revokeRole",
            "outputs": [],
            "stateMutability": "nonpayable",
            "type": "function"
        },
        {
            "inputs": [
                {
                    "internalType": "address",
                    "name": "",
                    "type": "address"
                }
            ],
            "name": "rewardsClaimed",
            "outputs": [
                {
                    "internalType": "uint256",
                    "name": "",
                    "type": "uint256"
                }
            ],
            "stateMutability": "view",
            "type": "function"
        },
        {
            "inputs": [],
            "name": "shopContract",
            "outputs": [
                {
                    "internalType": "contract IFP_Shop",
                    "name": "",
                    "type": "address"
                }
            ],
            "stateMutability": "view",
            "type": "function"
        },
        {
            "inputs": [
                {
                    "internalType": "bytes4",
                    "name": "interfaceId",
                    "type": "bytes4"
                }
            ],
            "name": "supportsInterface",
            "outputs": [
                {
                    "internalType": "bool",
                    "name": "",
                    "type": "bool"
                }
            ],
            "stateMutability": "view",
            "type": "function"
        },
        {
            "inputs": [],
            "name": "totalSlashed",
            "outputs": [
                {
                    "internalType": "uint256",
                    "name": "",
                    "type": "uint256"
                }
            ],
            "stateMutability": "view",
            "type": "function"
        },
        {
            "inputs": [
                {
                    "internalType": "address",
                    "name": "newDao",
                    "type": "address"
                },
                {
                    "internalType": "address",
                    "name": "newShop",
                    "type": "address"
                },
                {
                    "internalType": "address",
                    "name": "newNft",
                    "type": "address"
                }
            ],
            "name": "updateConfig",
            "outputs": [],
            "stateMutability": "nonpayable",
            "type": "function"
        },
        {
            "inputs": [
                {
                    "internalType": "address",
                    "name": "user",
                    "type": "address"
                }
            ],
            "name": "userBalance",
            "outputs": [
                {
                    "internalType": "uint256",
                    "name": "",
                    "type": "uint256"
                }
            ],
            "stateMutability": "view",
            "type": "function"
        },
        {
            "inputs": [
                {
                    "internalType": "address",
                    "name": "user",
                    "type": "address"
                }
            ],
            "name": "userLockedBalance",
            "outputs": [
                {
                    "internalType": "uint256",
                    "name": "",
                    "type": "uint256"
                }
            ],
            "stateMutability": "view",
            "type": "function"
        },
        {
            "inputs": [],
            "name": "vaultBalance",
            "outputs": [
                {
                    "internalType": "uint256",
                    "name": "",
                    "type": "uint256"
                }
            ],
            "stateMutability": "view",
            "type": "function"
        }
    ],
    "bytecode": "608060405234801562000010575f80fd5b50604051620013e8380380620013e88339810160408190526200003391620001c5565b6200005f7fa49807205ce4d355092ef5a8a18f56e8913cf4a201fbe287825b095693c2177533620000fd565b506200008c7f3b5d4cc60d3ec3516ee8ae083bd60934f6eb2a6c54b1229985c41bfb092b260382620000fd565b50620000b97f1f0426c2589e5c3ea5f5996e2a4371ca21edd86514b6679c9dd135d7c85b28bf83620000fd565b50600380546001600160a01b039485166001600160a01b0319918216179091556004805493851693821693909317909255600580549190931691161790556200020c565b5f828152602081815260408083206001600160a01b038516845290915281205460ff16620001a0575f838152602081815260408083206001600160a01b03861684529091529020805460ff19166001179055620001573390565b6001600160a01b0316826001600160a01b0316847f2f8788117e7eff1d82e926ec794901d17c78024a50270940304540a733656f0d60405160405180910390a4506001620001a3565b505f5b92915050565b80516001600160a01b0381168114620001c0575f80fd5b919050565b5f805f60608486031215620001d8575f80fd5b620001e384620001a9565b9250620001f360208501620001a9565b91506200020360408501620001a9565b90509250925092565b6111ce806200021a5f395ff3fe608060405260043610610161575f3560e01c80634a7ffcbc116100cd578063a201bbdd11610087578063d3f730fd11610062578063d3f730fd14610423578063d547741f1461044e578063d56d229d1461046d578063e3d670d71461048c575f80fd5b8063a201bbdd146103d0578063a217fddf146103e5578063b86247d7146103f8575f80fd5b80634a7ffcbc146103225780634efa7e701461034157806374cb9ed8146103495780638b0e458d146103685780638cf2b63e1461037d57806391d14854146103b1575f80fd5b80631e89e0581161011e5780631e89e05814610264578063248a9ca3146102835780632f2ff15d146102b157806336568abe146102d0578063372500ab146102ef5780634697fbfa14610303575f80fd5b80630103c92b1461016557806301ffc9a7146101ac578063076622e2146101db57806309090a51146101fc5780630bf6cc081461023357806311c9a94d14610245575b5f80fd5b348015610170575f80fd5b5061019961017f366004610fdd565b6001600160a01b03165f9081526001602052604090205490565b6040519081526020015b60405180910390f35b3480156101b7575f80fd5b506101cb6101c6366004610ffd565b6104b7565b60405190151581526020016101a3565b3480156101e6575f80fd5b506101fa6101f5366004611024565b6104ed565b005b348015610207575f80fd5b5060045461021b906001600160a01b031681565b6040516001600160a01b0390911681526020016101a3565b34801561023e575f80fd5b5047610199565b348015610250575f80fd5b506101fa61025f36600461104c565b61061a565b34801561026f575f80fd5b506101fa61027e366004611024565b6106ca565b34801561028e575f80fd5b5061019961029d36600461108c565b5f9081526020819052604090206001015490565b3480156102bc575f80fd5b506101fa6102cb3660046110a3565b61084a565b3480156102db575f80fd5b506101fa6102ea3660046110a3565b610874565b3480156102fa575f80fd5b506101fa6108ac565b34801561030e575f80fd5b506101fa61031d36600461108c565b610a9d565b34801561032d575f80fd5b5060055461021b906001600160a01b031681565b6101fa610c52565b348015610354575f80fd5b506101fa610363366004610fdd565b610cce565b348015610373575f80fd5b5061019960065481565b348015610388575f80fd5b50610199610397366004610fdd565b6001600160a01b03165f9081526002602052604090205490565b3480156103bc575f80fd5b506101cb6103cb3660046110a3565b610d6b565b3480156103db575f80fd5b5061019960085481565b3480156103f0575f80fd5b506101995f81565b348015610403575f80fd5b50610199610412366004610fdd565b60026020525f908152604090205481565b34801561042e575f80fd5b5061019961043d366004610fdd565b60076020525f908152604090205481565b348015610459575f80fd5b506101fa6104683660046110a3565b610d93565b348015610478575f80fd5b5060035461021b906001600160a01b031681565b348015610497575f80fd5b506101996104a6366004610fdd565b60016020525f908152604090205481565b5f6001600160e01b03198216637965db0b60e01b14806104e757506301ffc9a760e01b6001600160e01b03198316145b92915050565b7f1f0426c2589e5c3ea5f5996e2a4371ca21edd86514b6679c9dd135d7c85b28bf61051781610db7565b5f821161053f5760405162461bcd60e51b8152600401610536906110cd565b60405180910390fd5b6001600160a01b0383165f908152600260205260409020548211156105a65760405162461bcd60e51b815260206004820152601760248201527f4e6f7420656e6f756768206c6f636b65642066756e64730000000000000000006044820152606401610536565b6001600160a01b0383165f90815260026020526040812080548492906105cd908490611110565b9091555050604080516001600160a01b0385168152602081018490527f0f0bc5b519ddefdd8e5f9e6423433aa2b869738de2ae34d58ebc796fc749fa0d91015b60405180910390a1505050565b7fa49807205ce4d355092ef5a8a18f56e8913cf4a201fbe287825b095693c2177561064481610db7565b600580546001600160a01b038681166001600160a01b0319928316811790935560048054878316908416811790915560038054928716929093168217909255604080519384526020840192909252908201527fb932d837ab7f56a484a07ab64a666e9208940b3d35de9c0aff3cd0192f5d0676906060015b60405180910390a150505050565b7f1f0426c2589e5c3ea5f5996e2a4371ca21edd86514b6679c9dd135d7c85b28bf6106f481610db7565b6001600160a01b0383165f908152600160205260409020548390839061074f5760405162461bcd60e51b815260206004820152601060248201526f4e6f207374616b65642066756e64732160801b6044820152606401610536565b6001600160a01b0382165f908152600260209081526040808320546001909252909120540381036107b65760405162461bcd60e51b81526020600482015260116024820152704e6f7420656e6f7567682066756e64732160781b6044820152606401610536565b5f84116107d55760405162461bcd60e51b8152600401610536906110cd565b6001600160a01b0385165f90815260026020526040812080548692906107fc908490611123565b9091555050604080516001600160a01b0387168152602081018690527f9f1ec8c880f76798e7b793325d625e9b60e4082a553c98f42b6cda368dd60008910160405180910390a15050505050565b5f8281526020819052604090206001015461086481610db7565b61086e8383610dc4565b50505050565b6001600160a01b038116331461089d5760405163334bd91960e11b815260040160405180910390fd5b6108a78282610e53565b505050565b6003546040513360248201526001600160a01b039091169060440160408051601f198184030181529181526020820180516001600160e01b03166313b10d4d60e31b179052516108fc9190611136565b5f604051808303815f865af19150503d805f8114610935576040519150601f19603f3d011682016040523d82523d5f602084013e61093a565b606091505b5050600654335f9081526007602052604090205410905061099d5760405162461bcd60e51b815260206004820152601c60248201527f4d617820636c61696d61626c6520616d6f756e742072656163686564000000006044820152606401610536565b335f908152600760205260408120546006546109b99190611110565b6040519091505f90339083908381818185875af1925050503d805f81146109fb576040519150601f19603f3d011682016040523d82523d5f602084013e610a00565b606091505b5050905080610a4a5760405162461bcd60e51b815260206004820152601660248201527514995dd85c991cc81c185e5b595b9d0819985a5b195960521b6044820152606401610536565b600654335f818152600760209081526040918290209390935580519182529181018490527ffc30cddea38e2bf4d6ea7d3f9ed3b6ad7f176419f4963bd81318067a4aee73fe910160405180910390a15050565b335f818152600160205260409020548290610aed5760405162461bcd60e51b815260206004820152601060248201526f4e6f207374616b65642066756e64732160801b6044820152606401610536565b6001600160a01b0382165f90815260026020908152604080832054600190925290912054038103610b545760405162461bcd60e51b81526020600482015260116024820152704e6f7420656e6f7567682066756e64732160781b6044820152606401610536565b5f8311610b735760405162461bcd60e51b8152600401610536906110cd565b335f9081526001602052604081208054859290610b91908490611110565b90915550506040515f90339085908381818185875af1925050503d805f8114610bd5576040519150601f19603f3d011682016040523d82523d5f602084013e610bda565b606091505b5050905080610c1c5760405162461bcd60e51b815260206004820152600e60248201526d155b9cdd185ad94819985a5b195960921b6044820152606401610536565b60408051338152602081018690527f85082129d87b2fe11527cb1b3b7a520aeb5aa6913f88a3d8757fe40d1db02fdd91016106bc565b5f3411610c715760405162461bcd60e51b8152600401610536906110cd565b335f9081526001602052604081208054349290610c8f908490611123565b9091555050604080513381523460208201527febedb8b3c678666e7f36970bc8f57abf6d8fa2e828c0da91ea5b75bf68ed101a910160405180910390a1565b7f3b5d4cc60d3ec3516ee8ae083bd60934f6eb2a6c54b1229985c41bfb092b2603610cf881610db7565b6001600160a01b0382165f9081526001602090815260408083208054908490556002909252822091909155610d2c81610ebc565b604080516001600160a01b0385168152602081018390527f4ed05e9673c26d2ed44f7ef6a7f2942df0ee3b5e1e17db4b99f9dcd261a339cd910161060d565b5f918252602082815260408084206001600160a01b0393909316845291905290205460ff1690565b5f82815260208190526040902060010154610dad81610db7565b61086e8383610e53565b610dc18133610f85565b50565b5f610dcf8383610d6b565b610e4c575f838152602081815260408083206001600160a01b03861684529091529020805460ff19166001179055610e043390565b6001600160a01b0316826001600160a01b0316847f2f8788117e7eff1d82e926ec794901d17c78024a50270940304540a733656f0d60405160405180910390a45060016104e7565b505f6104e7565b5f610e5e8383610d6b565b15610e4c575f838152602081815260408083206001600160a01b0386168085529252808320805460ff1916905551339286917ff6391f5c32d9c69d2a47ea670b442974b53935d1edc7fd64eb21e047a839171b9190a45060016104e7565b8060085f828254610ecd9190611123565b909155505060035460408051600481526024810182526020810180516001600160e01b03166385aa2e1b60e01b17905290515f926001600160a01b031691610f1491611136565b5f604051808303815f865af19150503d805f8114610f4d576040519150601f19603f3d011682016040523d82523d5f602084013e610f52565b606091505b509150505f81806020019051810190610f6b9190611162565b90505f81600854610f7c9190611179565b60065550505050565b610f8f8282610d6b565b610fbe5760405163e2517d3f60e01b81526001600160a01b038216600482015260248101839052604401610536565b5050565b80356001600160a01b0381168114610fd8575f80fd5b919050565b5f60208284031215610fed575f80fd5b610ff682610fc2565b9392505050565b5f6020828403121561100d575f80fd5b81356001600160e01b031981168114610ff6575f80fd5b5f8060408385031215611035575f80fd5b61103e83610fc2565b946020939093013593505050565b5f805f6060848603121561105e575f80fd5b61106784610fc2565b925061107560208501610fc2565b915061108360408501610fc2565b90509250925092565b5f6020828403121561109c575f80fd5b5035919050565b5f80604083850312156110b4575f80fd5b823591506110c460208401610fc2565b90509250929050565b602080825260159082015274416d6f756e742063616e6e6f74206265207a65726f60581b604082015260600190565b634e487b7160e01b5f52601160045260245ffd5b818103818111156104e7576104e76110fc565b808201808211156104e7576104e76110fc565b5f82515f5b81811015611155576020818601810151858301520161113b565b505f920191825250919050565b5f60208284031215611172575f80fd5b5051919050565b5f8261119357634e487b7160e01b5f52601260045260245ffd5b50049056fea2646970667358221220f502122b502f9194feb3f1c9fe357dce7fc52c1afec43101859a6915b2803f9864736f6c63430008140033",
    "sourcePath": "/Users/jaimecontreras/Downloads/Proyecto_Final/Proyecto/contracts/iebs_Faillapop_vault.sol",
    "compiler": {
        "name": "solc",
        "version": "0.8.20+commit.a1b79de6"
    },
    "functionHashes": {
        "DEFAULT_ADMIN_ROLE()": "a217fddf",
        "balance(address)": "e3d670d7",
        "claimRewards()": "372500ab",
        "daoContract()": "4a7ffcbc",
        "doLock(address,uint256)": "1e89e058",
        "doSlash(address)": "74cb9ed8",
        "doStake()": "4efa7e70",
        "doUnlock(address,uint256)": "076622e2",
        "doUnstake(uint256)": "4697fbfa",
        "getRoleAdmin(bytes32)": "248a9ca3",
        "grantRole(bytes32,address)": "2f2ff15d",
        "hasRole(bytes32,address)": "91d14854",
        "lockedFunds(address)": "b86247d7",
        "max_claimable_amount()": "8b0e458d",
        "nftContract()": "d56d229d",
        "renounceRole(bytes32,address)": "36568abe",
        "revokeRole(bytes32,address)": "d547741f",
        "rewardsClaimed(address)": "d3f730fd",
        "shopContract()": "09090a51",
        "supportsInterface(bytes4)": "01ffc9a7",
        "totalSlashed()": "a201bbdd",
        "updateConfig(address,address,address)": "11c9a94d",
        "userBalance(address)": "0103c92b",
        "userLockedBalance(address)": "8cf2b63e",
        "vaultBalance()": "0bf6cc08"
    },
    "gasEstimates": {
        "creation": {
            "codeDepositCost": "911600",
            "executionCost": "infinite",
            "totalCost": "infinite"
        },
        "external": {
            "DEFAULT_ADMIN_ROLE()": "249",
            "balance(address)": "2615",
            "claimRewards()": "infinite",
            "daoContract()": "2359",
            "doLock(address,uint256)": "35092",
            "doSlash(address)": "infinite",
            "doStake()": "25883",
            "doUnlock(address,uint256)": "30750",
            "doUnstake(uint256)": "infinite",
            "getRoleAdmin(bytes32)": "2478",
            "grantRole(bytes32,address)": "infinite",
            "hasRole(bytes32,address)": "2792",
            "lockedFunds(address)": "2594",
            "max_claimable_amount()": "2372",
            "nftContract()": "2424",
            "renounceRole(bytes32,address)": "29107",
            "revokeRole(bytes32,address)": "infinite",
            "rewardsClaimed(address)": "2549",
            "shopContract()": "2426",
            "supportsInterface(bytes4)": "480",
            "totalSlashed()": "2328",
            "updateConfig(address,address,address)": "infinite",
            "userBalance(address)": "2547",
            "userLockedBalance(address)": "2634",
            "vaultBalance()": "294"
        },
        "internal": {
            "distributeSlashing(uint256)": "infinite"
        }
    }
}