{
  "_format": "hh-sol-artifact-1",
  "contractName": "FP_Token",
  "sourceName": "contracts/iebs_Faillapop_ERC20.sol",
  "abi": [
    {
      "inputs": [],
      "stateMutability": "nonpayable",
      "type": "constructor"
    },
    {
      "inputs": [],
      "name": "AccessControlBadConfirmation",
      "type": "error"
    },
    {
      "inputs": [
        {
          "internalType": "address",
          "name": "account",
          "type": "address"
        },
        {
          "internalType": "bytes32",
          "name": "neededRole",
          "type": "bytes32"
        }
      ],
      "name": "AccessControlUnauthorizedAccount",
      "type": "error"
    },
    {
      "inputs": [
        {
          "internalType": "address",
          "name": "spender",
          "type": "address"
        },
        {
          "internalType": "uint256",
          "name": "allowance",
          "type": "uint256"
        },
        {
          "internalType": "uint256",
          "name": "needed",
          "type": "uint256"
        }
      ],
      "name": "ERC20InsufficientAllowance",
      "type": "error"
    },
    {
      "inputs": [
        {
          "internalType": "address",
          "name": "sender",
          "type": "address"
        },
        {
          "internalType": "uint256",
          "name": "balance",
          "type": "uint256"
        },
        {
          "internalType": "uint256",
          "name": "needed",
          "type": "uint256"
        }
      ],
      "name": "ERC20InsufficientBalance",
      "type": "error"
    },
    {
      "inputs": [
        {
          "internalType": "address",
          "name": "approver",
          "type": "address"
        }
      ],
      "name": "ERC20InvalidApprover",
      "type": "error"
    },
    {
      "inputs": [
        {
          "internalType": "address",
          "name": "receiver",
          "type": "address"
        }
      ],
      "name": "ERC20InvalidReceiver",
      "type": "error"
    },
    {
      "inputs": [
        {
          "internalType": "address",
          "name": "sender",
          "type": "address"
        }
      ],
      "name": "ERC20InvalidSender",
      "type": "error"
    },
    {
      "inputs": [
        {
          "internalType": "address",
          "name": "spender",
          "type": "address"
        }
      ],
      "name": "ERC20InvalidSpender",
      "type": "error"
    },
    {
      "inputs": [],
      "name": "EnforcedPause",
      "type": "error"
    },
    {
      "inputs": [],
      "name": "ExpectedPause",
      "type": "error"
    },
    {
      "anonymous": false,
      "inputs": [
        {
          "indexed": true,
          "internalType": "address",
          "name": "owner",
          "type": "address"
        },
        {
          "indexed": true,
          "internalType": "address",
          "name": "spender",
          "type": "address"
        },
        {
          "indexed": false,
          "internalType": "uint256",
          "name": "value",
          "type": "uint256"
        }
      ],
      "name": "Approval",
      "type": "event"
    },
    {
      "anonymous": false,
      "inputs": [
        {
          "indexed": false,
          "internalType": "address",
          "name": "account",
          "type": "address"
        }
      ],
      "name": "Paused",
      "type": "event"
    },
    {
      "anonymous": false,
      "inputs": [
        {
          "indexed": true,
          "internalType": "bytes32",
          "name": "role",
          "type": "bytes32"
        },
        {
          "indexed": true,
          "internalType": "bytes32",
          "name": "previousAdminRole",
          "type": "bytes32"
        },
        {
          "indexed": true,
          "internalType": "bytes32",
          "name": "newAdminRole",
          "type": "bytes32"
        }
      ],
      "name": "RoleAdminChanged",
      "type": "event"
    },
    {
      "anonymous": false,
      "inputs": [
        {
          "indexed": true,
          "internalType": "bytes32",
          "name": "role",
          "type": "bytes32"
        },
        {
          "indexed": true,
          "internalType": "address",
          "name": "account",
          "type": "address"
        },
        {
          "indexed": true,
          "internalType": "address",
          "name": "sender",
          "type": "address"
        }
      ],
      "name": "RoleGranted",
      "type": "event"
    },
    {
      "anonymous": false,
      "inputs": [
        {
          "indexed": true,
          "internalType": "bytes32",
          "name": "role",
          "type": "bytes32"
        },
        {
          "indexed": true,
          "internalType": "address",
          "name": "account",
          "type": "address"
        },
        {
          "indexed": true,
          "internalType": "address",
          "name": "sender",
          "type": "address"
        }
      ],
      "name": "RoleRevoked",
      "type": "event"
    },
    {
      "anonymous": false,
      "inputs": [
        {
          "indexed": true,
          "internalType": "address",
          "name": "from",
          "type": "address"
        },
        {
          "indexed": true,
          "internalType": "address",
          "name": "to",
          "type": "address"
        },
        {
          "indexed": false,
          "internalType": "uint256",
          "name": "value",
          "type": "uint256"
        }
      ],
      "name": "Transfer",
      "type": "event"
    },
    {
      "anonymous": false,
      "inputs": [
        {
          "indexed": false,
          "internalType": "address",
          "name": "account",
          "type": "address"
        }
      ],
      "name": "Unpaused",
      "type": "event"
    },
    {
      "inputs": [],
      "name": "DEFAULT_ADMIN_ROLE",
      "outputs": [
        {
          "internalType": "bytes32",
          "name": "",
          "type": "bytes32"
        }
      ],
      "stateMutability": "view",
      "type": "function"
    },
    {
      "inputs": [],
      "name": "MINTER_ROLE",
      "outputs": [
        {
          "internalType": "bytes32",
          "name": "",
          "type": "bytes32"
        }
      ],
      "stateMutability": "view",
      "type": "function"
    },
    {
      "inputs": [],
      "name": "PAUSER_ROLE",
      "outputs": [
        {
          "internalType": "bytes32",
          "name": "",
          "type": "bytes32"
        }
      ],
      "stateMutability": "view",
      "type": "function"
    },
    {
      "inputs": [
        {
          "internalType": "address",
          "name": "owner",
          "type": "address"
        },
        {
          "internalType": "address",
          "name": "spender",
          "type": "address"
        }
      ],
      "name": "allowance",
      "outputs": [
        {
          "internalType": "uint256",
          "name": "",
          "type": "uint256"
        }
      ],
      "stateMutability": "view",
      "type": "function"
    },
    {
      "inputs": [
        {
          "internalType": "address",
          "name": "spender",
          "type": "address"
        },
        {
          "internalType": "uint256",
          "name": "value",
          "type": "uint256"
        }
      ],
      "name": "approve",
      "outputs": [
        {
          "internalType": "bool",
          "name": "",
          "type": "bool"
        }
      ],
      "stateMutability": "nonpayable",
      "type": "function"
    },
    {
      "inputs": [
        {
          "internalType": "address",
          "name": "account",
          "type": "address"
        }
      ],
      "name": "balanceOf",
      "outputs": [
        {
          "internalType": "uint256",
          "name": "",
          "type": "uint256"
        }
      ],
      "stateMutability": "view",
      "type": "function"
    },
    {
      "inputs": [
        {
          "internalType": "uint256",
          "name": "value",
          "type": "uint256"
        }
      ],
      "name": "burn",
      "outputs": [],
      "stateMutability": "nonpayable",
      "type": "function"
    },
    {
      "inputs": [
        {
          "internalType": "address",
          "name": "account",
          "type": "address"
        },
        {
          "internalType": "uint256",
          "name": "value",
          "type": "uint256"
        }
      ],
      "name": "burnFrom",
      "outputs": [],
      "stateMutability": "nonpayable",
      "type": "function"
    },
    {
      "inputs": [],
      "name": "decimals",
      "outputs": [
        {
          "internalType": "uint8",
          "name": "",
          "type": "uint8"
        }
      ],
      "stateMutability": "view",
      "type": "function"
    },
    {
      "inputs": [
        {
          "internalType": "bytes32",
          "name": "role",
          "type": "bytes32"
        }
      ],
      "name": "getRoleAdmin",
      "outputs": [
        {
          "internalType": "bytes32",
          "name": "",
          "type": "bytes32"
        }
      ],
      "stateMutability": "view",
      "type": "function"
    },
    {
      "inputs": [
        {
          "internalType": "bytes32",
          "name": "role",
          "type": "bytes32"
        },
        {
          "internalType": "address",
          "name": "account",
          "type": "address"
        }
      ],
      "name": "grantRole",
      "outputs": [],
      "stateMutability": "nonpayable",
      "type": "function"
    },
    {
      "inputs": [
        {
          "internalType": "bytes32",
          "name": "role",
          "type": "bytes32"
        },
        {
          "internalType": "address",
          "name": "account",
          "type": "address"
        }
      ],
      "name": "hasRole",
      "outputs": [
        {
          "internalType": "bool",
          "name": "",
          "type": "bool"
        }
      ],
      "stateMutability": "view",
      "type": "function"
    },
    {
      "inputs": [
        {
          "internalType": "address",
          "name": "to",
          "type": "address"
        },
        {
          "internalType": "uint256",
          "name": "amount",
          "type": "uint256"
        }
      ],
      "name": "mint",
      "outputs": [],
      "stateMutability": "nonpayable",
      "type": "function"
    },
    {
      "inputs": [],
      "name": "name",
      "outputs": [
        {
          "internalType": "string",
          "name": "",
          "type": "string"
        }
      ],
      "stateMutability": "view",
      "type": "function"
    },
    {
      "inputs": [],
      "name": "pause",
      "outputs": [],
      "stateMutability": "nonpayable",
      "type": "function"
    },
    {
      "inputs": [],
      "name": "paused",
      "outputs": [
        {
          "internalType": "bool",
          "name": "",
          "type": "bool"
        }
      ],
      "stateMutability": "view",
      "type": "function"
    },
    {
      "inputs": [
        {
          "internalType": "bytes32",
          "name": "role",
          "type": "bytes32"
        },
        {
          "internalType": "address",
          "name": "callerConfirmation",
          "type": "address"
        }
      ],
      "name": "renounceRole",
      "outputs": [],
      "stateMutability": "nonpayable",
      "type": "function"
    },
    {
      "inputs": [
        {
          "internalType": "bytes32",
          "name": "role",
          "type": "bytes32"
        },
        {
          "internalType": "address",
          "name": "account",
          "type": "address"
        }
      ],
      "name": "revokeRole",
      "outputs": [],
      "stateMutability": "nonpayable",
      "type": "function"
    },
    {
      "inputs": [
        {
          "internalType": "bytes4",
          "name": "interfaceId",
          "type": "bytes4"
        }
      ],
      "name": "supportsInterface",
      "outputs": [
        {
          "internalType": "bool",
          "name": "",
          "type": "bool"
        }
      ],
      "stateMutability": "view",
      "type": "function"
    },
    {
      "inputs": [],
      "name": "symbol",
      "outputs": [
        {
          "internalType": "string",
          "name": "",
          "type": "string"
        }
      ],
      "stateMutability": "view",
      "type": "function"
    },
    {
      "inputs": [],
      "name": "totalSupply",
      "outputs": [
        {
          "internalType": "uint256",
          "name": "",
          "type": "uint256"
        }
      ],
      "stateMutability": "view",
      "type": "function"
    },
    {
      "inputs": [
        {
          "internalType": "address",
          "name": "to",
          "type": "address"
        },
        {
          "internalType": "uint256",
          "name": "value",
          "type": "uint256"
        }
      ],
      "name": "transfer",
      "outputs": [
        {
          "internalType": "bool",
          "name": "",
          "type": "bool"
        }
      ],
      "stateMutability": "nonpayable",
      "type": "function"
    },
    {
      "inputs": [
        {
          "internalType": "address",
          "name": "from",
          "type": "address"
        },
        {
          "internalType": "address",
          "name": "to",
          "type": "address"
        },
        {
          "internalType": "uint256",
          "name": "value",
          "type": "uint256"
        }
      ],
      "name": "transferFrom",
      "outputs": [
        {
          "internalType": "bool",
          "name": "",
          "type": "bool"
        }
      ],
      "stateMutability": "nonpayable",
      "type": "function"
    },
    {
      "inputs": [],
      "name": "unpause",
      "outputs": [],
      "stateMutability": "nonpayable",
      "type": "function"
    }
  ],
  "bytecode": "0x60806040523480156200001157600080fd5b506040518060400160405280600f81526020017f4661696c6c61506f7020546f6b656e00000000000000000000000000000000008152506040518060400160405280600381526020017f465054000000000000000000000000000000000000000000000000000000000081525081600390816200008f919062000837565b508060049081620000a1919062000837565b5050506000600560006101000a81548160ff021916908315150217905550620000d46000801b336200018060201b60201c565b50620001077f65d7a28e3265b37a6474929f336521b332c1681b933f6cb9f3376673440d862a336200018060201b60201c565b5062000147336200011d6200028460201b60201c565b600a6200012b919062000aae565b620f42406200013b919062000aff565b6200028d60201b60201c565b620001797f9f2df0fed2c77648de5860a4cc508cd0818c85b8b8a1ab4ceeef8d981c8956a6336200018060201b60201c565b5062000c52565b60006200019483836200031a60201b60201c565b620002795760016006600085815260200190815260200160002060000160008473ffffffffffffffffffffffffffffffffffffffff1673ffffffffffffffffffffffffffffffffffffffff16815260200190815260200160002060006101000a81548160ff021916908315150217905550620002156200038560201b60201c565b73ffffffffffffffffffffffffffffffffffffffff168273ffffffffffffffffffffffffffffffffffffffff16847f2f8788117e7eff1d82e926ec794901d17c78024a50270940304540a733656f0d60405160405180910390a4600190506200027e565b600090505b92915050565b60006012905090565b600073ffffffffffffffffffffffffffffffffffffffff168273ffffffffffffffffffffffffffffffffffffffff1603620003025760006040517fec442f05000000000000000000000000000000000000000000000000000000008152600401620002f9919062000b8f565b60405180910390fd5b62000316600083836200038d60201b60201c565b5050565b60006006600084815260200190815260200160002060000160008373ffffffffffffffffffffffffffffffffffffffff1673ffffffffffffffffffffffffffffffffffffffff16815260200190815260200160002060009054906101000a900460ff16905092915050565b600033905090565b600073ffffffffffffffffffffffffffffffffffffffff168373ffffffffffffffffffffffffffffffffffffffff1603620003e3578060026000828254620003d6919062000bac565b92505081905550620004b9565b60008060008573ffffffffffffffffffffffffffffffffffffffff1673ffffffffffffffffffffffffffffffffffffffff1681526020019081526020016000205490508181101562000472578381836040517fe450d38c000000000000000000000000000000000000000000000000000000008152600401620004699392919062000bf8565b60405180910390fd5b8181036000808673ffffffffffffffffffffffffffffffffffffffff1673ffffffffffffffffffffffffffffffffffffffff16815260200190815260200160002081905550505b600073ffffffffffffffffffffffffffffffffffffffff168273ffffffffffffffffffffffffffffffffffffffff160362000504578060026000828254039250508190555062000551565b806000808473ffffffffffffffffffffffffffffffffffffffff1673ffffffffffffffffffffffffffffffffffffffff168152602001908152602001600020600082825401925050819055505b8173ffffffffffffffffffffffffffffffffffffffff168373ffffffffffffffffffffffffffffffffffffffff167fddf252ad1be2c89b69c2b068fc378daa952ba7f163c4a11628f55a4df523b3ef83604051620005b0919062000c35565b60405180910390a3505050565b600081519050919050565b7f4e487b7100000000000000000000000000000000000000000000000000000000600052604160045260246000fd5b7f4e487b7100000000000000000000000000000000000000000000000000000000600052602260045260246000fd5b600060028204905060018216806200063f57607f821691505b602082108103620006555762000654620005f7565b5b50919050565b60008190508160005260206000209050919050565b60006020601f8301049050919050565b600082821b905092915050565b600060088302620006bf7fffffffffffffffffffffffffffffffffffffffffffffffffffffffffffffffff8262000680565b620006cb868362000680565b95508019841693508086168417925050509392505050565b6000819050919050565b6000819050919050565b600062000718620007126200070c84620006e3565b620006ed565b620006e3565b9050919050565b6000819050919050565b6200073483620006f7565b6200074c62000743826200071f565b8484546200068d565b825550505050565b600090565b6200076362000754565b6200077081848462000729565b505050565b5b8181101562000798576200078c60008262000759565b60018101905062000776565b5050565b601f821115620007e757620007b1816200065b565b620007bc8462000670565b81016020851015620007cc578190505b620007e4620007db8562000670565b83018262000775565b50505b505050565b600082821c905092915050565b60006200080c60001984600802620007ec565b1980831691505092915050565b6000620008278383620007f9565b9150826002028217905092915050565b6200084282620005bd565b67ffffffffffffffff8111156200085e576200085d620005c8565b5b6200086a825462000626565b620008778282856200079c565b600060209050601f831160018114620008af57600084156200089a578287015190505b620008a6858262000819565b86555062000916565b601f198416620008bf866200065b565b60005b82811015620008e957848901518255600182019150602085019450602081019050620008c2565b8683101562000909578489015162000905601f891682620007f9565b8355505b6001600288020188555050505b505050505050565b7f4e487b7100000000000000000000000000000000000000000000000000000000600052601160045260246000fd5b60008160011c9050919050565b6000808291508390505b6001851115620009ac578086048111156200098457620009836200091e565b5b6001851615620009945780820291505b8081029050620009a4856200094d565b945062000964565b94509492505050565b600082620009c7576001905062000a9a565b81620009d7576000905062000a9a565b8160018114620009f05760028114620009fb5762000a31565b600191505062000a9a565b60ff84111562000a105762000a0f6200091e565b5b8360020a91508482111562000a2a5762000a296200091e565b5b5062000a9a565b5060208310610133831016604e8410600b841016171562000a6b5782820a90508381111562000a655762000a646200091e565b5b62000a9a565b62000a7a84848460016200095a565b9250905081840481111562000a945762000a936200091e565b5b81810290505b9392505050565b600060ff82169050919050565b600062000abb82620006e3565b915062000ac88362000aa1565b925062000af77fffffffffffffffffffffffffffffffffffffffffffffffffffffffffffffffff8484620009b5565b905092915050565b600062000b0c82620006e3565b915062000b1983620006e3565b925082820262000b2981620006e3565b9150828204841483151762000b435762000b426200091e565b5b5092915050565b600073ffffffffffffffffffffffffffffffffffffffff82169050919050565b600062000b778262000b4a565b9050919050565b62000b898162000b6a565b82525050565b600060208201905062000ba6600083018462000b7e565b92915050565b600062000bb982620006e3565b915062000bc683620006e3565b925082820190508082111562000be15762000be06200091e565b5b92915050565b62000bf281620006e3565b82525050565b600060608201905062000c0f600083018662000b7e565b62000c1e602083018562000be7565b62000c2d604083018462000be7565b949350505050565b600060208201905062000c4c600083018462000be7565b92915050565b611a868062000c626000396000f3fe608060405234801561001057600080fd5b50600436106101585760003560e01c80635c975abb116100c3578063a217fddf1161007c578063a217fddf146103b3578063a9059cbb146103d1578063d539139314610401578063d547741f1461041f578063dd62ed3e1461043b578063e63ab1e91461046b57610158565b80635c975abb146102f157806370a082311461030f57806379cc67901461033f5780638456cb591461035b57806391d148541461036557806395d89b411461039557610158565b80632f2ff15d116101155780632f2ff15d14610259578063313ce5671461027557806336568abe146102935780633f4ba83a146102af57806340c10f19146102b957806342966c68146102d557610158565b806301ffc9a71461015d57806306fdde031461018d578063095ea7b3146101ab57806318160ddd146101db57806323b872dd146101f9578063248a9ca314610229575b600080fd5b610177600480360381019061017291906114ff565b610489565b6040516101849190611547565b60405180910390f35b610195610503565b6040516101a291906115f2565b60405180910390f35b6101c560048036038101906101c091906116a8565b610595565b6040516101d29190611547565b60405180910390f35b6101e36105b8565b6040516101f091906116f7565b60405180910390f35b610213600480360381019061020e9190611712565b6105c2565b6040516102209190611547565b60405180910390f35b610243600480360381019061023e919061179b565b6105f1565b60405161025091906117d7565b60405180910390f35b610273600480360381019061026e91906117f2565b610611565b005b61027d610633565b60405161028a919061184e565b60405180910390f35b6102ad60048036038101906102a891906117f2565b61063c565b005b6102b76106b7565b005b6102d360048036038101906102ce91906116a8565b6106ec565b005b6102ef60048036038101906102ea9190611869565b610725565b005b6102f9610739565b6040516103069190611547565b60405180910390f35b61032960048036038101906103249190611896565b610750565b60405161033691906116f7565b60405180910390f35b610359600480360381019061035491906116a8565b610798565b005b6103636107b8565b005b61037f600480360381019061037a91906117f2565b6107ed565b60405161038c9190611547565b60405180910390f35b61039d610858565b6040516103aa91906115f2565b60405180910390f35b6103bb6108ea565b6040516103c891906117d7565b60405180910390f35b6103eb60048036038101906103e691906116a8565b6108f1565b6040516103f89190611547565b60405180910390f35b610409610914565b60405161041691906117d7565b60405180910390f35b610439600480360381019061043491906117f2565b610938565b005b610455600480360381019061045091906118c3565b61095a565b60405161046291906116f7565b60405180910390f35b6104736109e1565b60405161048091906117d7565b60405180910390f35b60007f7965db0b000000000000000000000000000000000000000000000000000000007bffffffffffffffffffffffffffffffffffffffffffffffffffffffff1916827bffffffffffffffffffffffffffffffffffffffffffffffffffffffff191614806104fc57506104fb82610a05565b5b9050919050565b60606003805461051290611932565b80601f016020809104026020016040519081016040528092919081815260200182805461053e90611932565b801561058b5780601f106105605761010080835404028352916020019161058b565b820191906000526020600020905b81548152906001019060200180831161056e57829003601f168201915b5050505050905090565b6000806105a0610a6f565b90506105ad818585610a77565b600191505092915050565b6000600254905090565b6000806105cd610a6f565b90506105da858285610a89565b6105e5858585610b1d565b60019150509392505050565b600060066000838152602001908152602001600020600101549050919050565b61061a826105f1565b61062381610c11565b61062d8383610c25565b50505050565b60006012905090565b610644610a6f565b73ffffffffffffffffffffffffffffffffffffffff168173ffffffffffffffffffffffffffffffffffffffff16146106a8576040517f6697b23200000000000000000000000000000000000000000000000000000000815260040160405180910390fd5b6106b28282610d17565b505050565b7f65d7a28e3265b37a6474929f336521b332c1681b933f6cb9f3376673440d862a6106e181610c11565b6106e9610e0a565b50565b7f9f2df0fed2c77648de5860a4cc508cd0818c85b8b8a1ab4ceeef8d981c8956a661071681610c11565b6107208383610e6d565b505050565b610736610730610a6f565b82610eef565b50565b6000600560009054906101000a900460ff16905090565b60008060008373ffffffffffffffffffffffffffffffffffffffff1673ffffffffffffffffffffffffffffffffffffffff168152602001908152602001600020549050919050565b6107aa826107a4610a6f565b83610a89565b6107b48282610eef565b5050565b7f65d7a28e3265b37a6474929f336521b332c1681b933f6cb9f3376673440d862a6107e281610c11565b6107ea610f71565b50565b60006006600084815260200190815260200160002060000160008373ffffffffffffffffffffffffffffffffffffffff1673ffffffffffffffffffffffffffffffffffffffff16815260200190815260200160002060009054906101000a900460ff16905092915050565b60606004805461086790611932565b80601f016020809104026020016040519081016040528092919081815260200182805461089390611932565b80156108e05780601f106108b5576101008083540402835291602001916108e0565b820191906000526020600020905b8154815290600101906020018083116108c357829003601f168201915b5050505050905090565b6000801b81565b6000806108fc610a6f565b9050610909818585610b1d565b600191505092915050565b7f9f2df0fed2c77648de5860a4cc508cd0818c85b8b8a1ab4ceeef8d981c8956a681565b610941826105f1565b61094a81610c11565b6109548383610d17565b50505050565b6000600160008473ffffffffffffffffffffffffffffffffffffffff1673ffffffffffffffffffffffffffffffffffffffff16815260200190815260200160002060008373ffffffffffffffffffffffffffffffffffffffff1673ffffffffffffffffffffffffffffffffffffffff16815260200190815260200160002054905092915050565b7f65d7a28e3265b37a6474929f336521b332c1681b933f6cb9f3376673440d862a81565b60007f01ffc9a7000000000000000000000000000000000000000000000000000000007bffffffffffffffffffffffffffffffffffffffffffffffffffffffff1916827bffffffffffffffffffffffffffffffffffffffffffffffffffffffff1916149050919050565b600033905090565b610a848383836001610fd4565b505050565b6000610a95848461095a565b90507fffffffffffffffffffffffffffffffffffffffffffffffffffffffffffffffff8114610b175781811015610b07578281836040517ffb8f41b2000000000000000000000000000000000000000000000000000000008152600401610afe93929190611972565b60405180910390fd5b610b1684848484036000610fd4565b5b50505050565b600073ffffffffffffffffffffffffffffffffffffffff168373ffffffffffffffffffffffffffffffffffffffff1603610b8f5760006040517f96c6fd1e000000000000000000000000000000000000000000000000000000008152600401610b8691906119a9565b60405180910390fd5b600073ffffffffffffffffffffffffffffffffffffffff168273ffffffffffffffffffffffffffffffffffffffff1603610c015760006040517fec442f05000000000000000000000000000000000000000000000000000000008152600401610bf891906119a9565b60405180910390fd5b610c0c8383836111ab565b505050565b610c2281610c1d610a6f565b6113d0565b50565b6000610c3183836107ed565b610d0c5760016006600085815260200190815260200160002060000160008473ffffffffffffffffffffffffffffffffffffffff1673ffffffffffffffffffffffffffffffffffffffff16815260200190815260200160002060006101000a81548160ff021916908315150217905550610ca9610a6f565b73ffffffffffffffffffffffffffffffffffffffff168273ffffffffffffffffffffffffffffffffffffffff16847f2f8788117e7eff1d82e926ec794901d17c78024a50270940304540a733656f0d60405160405180910390a460019050610d11565b600090505b92915050565b6000610d2383836107ed565b15610dff5760006006600085815260200190815260200160002060000160008473ffffffffffffffffffffffffffffffffffffffff1673ffffffffffffffffffffffffffffffffffffffff16815260200190815260200160002060006101000a81548160ff021916908315150217905550610d9c610a6f565b73ffffffffffffffffffffffffffffffffffffffff168273ffffffffffffffffffffffffffffffffffffffff16847ff6391f5c32d9c69d2a47ea670b442974b53935d1edc7fd64eb21e047a839171b60405160405180910390a460019050610e04565b600090505b92915050565b610e12611421565b6000600560006101000a81548160ff0219169083151502179055507f5db9ee0a495bf2e6ff9c91a7834c1ba4fdd244a5e8aa4e537bd38aeae4b073aa610e56610a6f565b604051610e6391906119a9565b60405180910390a1565b600073ffffffffffffffffffffffffffffffffffffffff168273ffffffffffffffffffffffffffffffffffffffff1603610edf5760006040517fec442f05000000000000000000000000000000000000000000000000000000008152600401610ed691906119a9565b60405180910390fd5b610eeb600083836111ab565b5050565b600073ffffffffffffffffffffffffffffffffffffffff168273ffffffffffffffffffffffffffffffffffffffff1603610f615760006040517f96c6fd1e000000000000000000000000000000000000000000000000000000008152600401610f5891906119a9565b60405180910390fd5b610f6d826000836111ab565b5050565b610f79611461565b6001600560006101000a81548160ff0219169083151502179055507f62e78cea01bee320cd4e420270b5ea74000d11b0c9f74754ebdbfc544b05a258610fbd610a6f565b604051610fca91906119a9565b60405180910390a1565b600073ffffffffffffffffffffffffffffffffffffffff168473ffffffffffffffffffffffffffffffffffffffff16036110465760006040517fe602df0500000000000000000000000000000000000000000000000000000000815260040161103d91906119a9565b60405180910390fd5b600073ffffffffffffffffffffffffffffffffffffffff168373ffffffffffffffffffffffffffffffffffffffff16036110b85760006040517f94280d620000000000000000000000000000000000000000000000000000000081526004016110af91906119a9565b60405180910390fd5b81600160008673ffffffffffffffffffffffffffffffffffffffff1673ffffffffffffffffffffffffffffffffffffffff16815260200190815260200160002060008573ffffffffffffffffffffffffffffffffffffffff1673ffffffffffffffffffffffffffffffffffffffff1681526020019081526020016000208190555080156111a5578273ffffffffffffffffffffffffffffffffffffffff168473ffffffffffffffffffffffffffffffffffffffff167f8c5be1e5ebec7d5bd14f71427d1e84f3dd0314c0f7b2291e5b200ac8c7c3b9258460405161119c91906116f7565b60405180910390a35b50505050565b600073ffffffffffffffffffffffffffffffffffffffff168373ffffffffffffffffffffffffffffffffffffffff16036111fd5780600260008282546111f191906119f3565b925050819055506112d0565b60008060008573ffffffffffffffffffffffffffffffffffffffff1673ffffffffffffffffffffffffffffffffffffffff16815260200190815260200160002054905081811015611289578381836040517fe450d38c00000000000000000000000000000000000000000000000000000000815260040161128093929190611972565b60405180910390fd5b8181036000808673ffffffffffffffffffffffffffffffffffffffff1673ffffffffffffffffffffffffffffffffffffffff16815260200190815260200160002081905550505b600073ffffffffffffffffffffffffffffffffffffffff168273ffffffffffffffffffffffffffffffffffffffff16036113195780600260008282540392505081905550611366565b806000808473ffffffffffffffffffffffffffffffffffffffff1673ffffffffffffffffffffffffffffffffffffffff168152602001908152602001600020600082825401925050819055505b8173ffffffffffffffffffffffffffffffffffffffff168373ffffffffffffffffffffffffffffffffffffffff167fddf252ad1be2c89b69c2b068fc378daa952ba7f163c4a11628f55a4df523b3ef836040516113c391906116f7565b60405180910390a3505050565b6113da82826107ed565b61141d5780826040517fe2517d3f000000000000000000000000000000000000000000000000000000008152600401611414929190611a27565b60405180910390fd5b5050565b611429610739565b61145f576040517f8dfc202b00000000000000000000000000000000000000000000000000000000815260040160405180910390fd5b565b611469610739565b156114a0576040517fd93c066500000000000000000000000000000000000000000000000000000000815260040160405180910390fd5b565b600080fd5b60007fffffffff0000000000000000000000000000000000000000000000000000000082169050919050565b6114dc816114a7565b81146114e757600080fd5b50565b6000813590506114f9816114d3565b92915050565b600060208284031215611515576115146114a2565b5b6000611523848285016114ea565b91505092915050565b60008115159050919050565b6115418161152c565b82525050565b600060208201905061155c6000830184611538565b92915050565b600081519050919050565b600082825260208201905092915050565b60005b8381101561159c578082015181840152602081019050611581565b60008484015250505050565b6000601f19601f8301169050919050565b60006115c482611562565b6115ce818561156d565b93506115de81856020860161157e565b6115e7816115a8565b840191505092915050565b6000602082019050818103600083015261160c81846115b9565b905092915050565b600073ffffffffffffffffffffffffffffffffffffffff82169050919050565b600061163f82611614565b9050919050565b61164f81611634565b811461165a57600080fd5b50565b60008135905061166c81611646565b92915050565b6000819050919050565b61168581611672565b811461169057600080fd5b50565b6000813590506116a28161167c565b92915050565b600080604083850312156116bf576116be6114a2565b5b60006116cd8582860161165d565b92505060206116de85828601611693565b9150509250929050565b6116f181611672565b82525050565b600060208201905061170c60008301846116e8565b92915050565b60008060006060848603121561172b5761172a6114a2565b5b60006117398682870161165d565b935050602061174a8682870161165d565b925050604061175b86828701611693565b9150509250925092565b6000819050919050565b61177881611765565b811461178357600080fd5b50565b6000813590506117958161176f565b92915050565b6000602082840312156117b1576117b06114a2565b5b60006117bf84828501611786565b91505092915050565b6117d181611765565b82525050565b60006020820190506117ec60008301846117c8565b92915050565b60008060408385031215611809576118086114a2565b5b600061181785828601611786565b92505060206118288582860161165d565b9150509250929050565b600060ff82169050919050565b61184881611832565b82525050565b6000602082019050611863600083018461183f565b92915050565b60006020828403121561187f5761187e6114a2565b5b600061188d84828501611693565b91505092915050565b6000602082840312156118ac576118ab6114a2565b5b60006118ba8482850161165d565b91505092915050565b600080604083850312156118da576118d96114a2565b5b60006118e88582860161165d565b92505060206118f98582860161165d565b9150509250929050565b7f4e487b7100000000000000000000000000000000000000000000000000000000600052602260045260246000fd5b6000600282049050600182168061194a57607f821691505b60208210810361195d5761195c611903565b5b50919050565b61196c81611634565b82525050565b60006060820190506119876000830186611963565b61199460208301856116e8565b6119a160408301846116e8565b949350505050565b60006020820190506119be6000830184611963565b92915050565b7f4e487b7100000000000000000000000000000000000000000000000000000000600052601160045260246000fd5b60006119fe82611672565b9150611a0983611672565b9250828201905080821115611a2157611a206119c4565b5b92915050565b6000604082019050611a3c6000830185611963565b611a4960208301846117c8565b939250505056fea2646970667358221220806b8a6e2d9ba791dd37035d1dc5a6e7ae38263dac52f5054e4b8b6cbaa6eab964736f6c63430008140033",
  "linkReferences": {},
  "deployedLinkReferences": {}
}